S0140000415453414D523231453138412E73726563F6
S113200000080020CFD00200000000001BD0020016
S113201000000000000000000000000000000000BC
S113202000000000000000000000000000000000AC
S1132030000000000000000000000000000000009C
S1132040FFFFFFFFFFFFFFFFFFFFFFFFFFFFFFFF9C
S113610010B582B00400684608F09EFB7A48018806
S11361100C430480684608F09CFB13BD80B56A46B6
S11361201080917068460AF0F1FB01BD10B50400BF
S11361302068081A28210CF095FAC000A1680818F4
S113614010BD6E48408F7047AB4800787047F2B579
S113615005006C48017E42680068101A00110C1892
S1136160641C694E654FADB26848854201D228006F
S113617000D10125798F8D4204D100980CF089FD5E
S113618000281CD0280000F035FA00280AD0017835
S1136190890714D408300CC8009803C88B420ED168
S11361A082420CD1280003F0FBFF002813D00830F2
S11361B00CC8009803C88B4201D182420BD06D1CDD
S11361C0200084190004CED1A1484D4908800CF068
S11361D08CFD3000F2BD2800F2BD38B50CB484B09B
S11361E00C006846048001A89A492CC92CC0684652
S11361F0029001A91E200CF0ECFD0398002803D0A6
S113620004A96846008810E093488178002901D0E9
S113621020000EE0007802280AD13C48844202D3D0
S11362200CF026FE040004A9A0B2FFF790FF00E0E2
S1136230354807B030BD30B5010000202F4B1C7A23
S11362400122A74D491B06D0491E0CD0491E11D06E
S1136250891E12D030BD2E21595C01290ED1A1080E
S113626011420BD009E02E21595C012905D00029E7
S113627004D102E0E108114200D0012030BD10B584
S1136280B248A82149004418A178AA292DD10100B7
S1136290E831C8680278062A0BD0827E120708D536
S11362A000280AD081882180817EF7220A408276E4
S11362B011E028300A699042ECD308680278D307C9
S11362C014D5920712D500280FD041882180017877
S11362D0FD220A4002700121208800F019F8A078FC
S11362E0AA2802D1022007F07FFB10BD10304A68B3
S11362F09042E3D310BD0000181E00201825002092
S1136300CC7E002050110020FFFF0000F8FF0000A9
S1136310F8B58E4B1A7852066CD5A62252009C18FA
S1136320A279AA2A04D0A288904263D1E171F1BD76
S1136330A080E1719D4A16002E3631788C256D00BF
S11363405D19B789B84240D1080053D0022902D060
S1136350707802281FD0106C516C03C5083D0320CF
S1136360287300206873694628200CF004FE01207D
S113637069460978002900D06873A873B17A884007
S1136380286308202070A34868614520A071280074
S113639002F0CCFAF1BD01292CD10CF078FC0CC828
S11363A09D490120FFF719FFB2899042F5D09B491E
S11363B088421FD2288253202872AC48A861442006
S11363C0A07128000CF09DFFF1BD022912D0E179E3
S11363D0002903D0280000F06FF8F1BD04F096F80E
S11363E0002807D04721A171817EF7220A408276D6
S11363F002F0E0F8F1BD000049250020F8B50400E2
S1136400524DA92040002F18994E3878452804D0C1
S1136410C620800130800CF074FC002C04D09C2039
S113642040002818A04203D0924830800CF069FC48
S1136430AA2038705D48408FE17A002901D11021EB
S113644000E00921FFF76AFE022000F04EFE000082
S113645006300000840D03004725002070B50600B7
S11364603A4CA92040002518002E07D0287844284B
S113647004D19A2040002018B04204D0A9487C4995
S113648008800CF03EFCAA2028703078002810D137
S113649094204000205A454948871021FFF73EFECA
S11364A06878002805D08C204000201800F004F8FB
S11364B070BD022002F099FC80B5011D0D228A7482
S11364C0A74A8A80921C0A818A8ECA80AA4A0A60D4
S11364D000220A7346213A22815407F0F8F801BDDC
S11364E0FBFF000010B51949A82252008C1800289F
S11364F007D0A278462A04D1FF222E32891881427D
S113650004D09E485A4908800CF0FBFBB54800783B
S113651002280DD0208803F0F9FF002808D0817EDE
S1136520F7220A40827602F045F84720A07010BD99
S1136530AA20A070022007F057FA10BDAA480078DC
S1136540AA2801D10120704700207047681000205C
S11365507CB50500684600F035F8040014D1A34E5C
S1136560B46831688C4202D371688C4204D3A04869
S11365703F4908800CF0C5FBB0681030B06071680A
S1136580884201D33068B06020780122024322702F
S11365906580684603C82300083303C3FD20104008
S11365A0069949000143217073BD0000182500209D
S11365B080B500F007F8002803D00178FE220A40D5
S11365C0027001BD70B50400884E35682878C00794
S11365D00AD50CCC083C2800083003C88B4203D1F0
S11365E0824201D1280070BD103570688542EDD318
S11365F0002070BD10B501007C4A10680378DB07E9
S113660002D54488A14204D0103053689842F5D38F
S1136610002010BDFD630000FEFF0000F8FF000035
S113662010B582B06946FF200C300CF0A4FC68461B
S11366300088002805D16F480D4908800CF055FBEF
S113664013BD6A4C2100B2480CF07EFC20686946F8
S113665009880901401860606846008801012068C3
S11366600CF002FF2068A06013BD00005D64000010
S1136670CC7E002081310000F8B5050016001F0013
S11366800024B148854203D2002F03D1002E01D14A
S11366900020F2BD280000F047F8002808D003C805
S11366A08F4201D1864203D00124022007F09CF9D5
S11366B03000390003F08EFD002807D08580817EEC
S11366C0F7220A40E1001143817605E0009432008C
S11366D03B002800FFF73CFF01206040F2BD10B5ED
S11366E0040006D19D489E4908800CF0FEFA002063
S11366F010BD0CF0CEFA002801D09A4810BD03CC8E
S1136700083C03F067FD002805D081888E4A914239
S113671001D2001D10BD2000FFF754FF0028E6D071
S1136720801C10BD8231000010B50400B649498FA9
S1136730884202D10CF0ABFA10BD03F031FD002801
S113674006D0010008310CC9002B06D1002A04D15F
S11367502000FFF74FFF002800D0083010BD0000D4
S1136760FDFF000080B5B44B5B8F984201D100203F
S113677002BD00F041F802BDE56400008331000071
S1136780F8B50022D24300210024AC4B1800D430C9
S113679002E0E970641CE4B2457CA5420EDBC568E6
S11367A0E600AD19EE78002EF4D06E680768F61B8B
S11367B06E60EED0B242EDD33200EBE71C00C83479
S11367C00023DB439A4208D09D4B012120000CF0AA
S11367D04DFE20000CF057FEF1BD417420000CF07A
S11367E05DFEF1BD46250020BA11002050110020A5
S11367F01431000015310000F3B583B000240026E5
S1136800F64301206946087101A936200CF0B3FB58
S11368108C480078022805D168460079002801D107
S1136820032073E00020884F07E0002C03D10029E7
S113683001D1009C0500401CC0B2797F814214DB69
S1136840B969C20089180091C9780A00EDD0009A8C
S113685012886B469B899A42E7D1009A92786B46DC
S11368601B7C9A42E1D1002050E0002C1CD06846E9
S1136870808920806846007CA0706348C0680A3024
S113688060600120E070787FEDB2854205D1397FE8
S1136890491E884201D2401C7877694D3878002817
S11368A004D12B00626829E002202FE00CF0D1FE15
S11368B0B968884201D3411A01E0711A091800200D
S11368C004E000235360D370401CC0B27A7F82423C
S11368D012DBBA69C300D218D378002BF4D0536802
S11368E0002BF1D0A242EFD09942EAD25B1A536056
S11368F09E42E9D31E00E7E72B0032000121380055
S11369000CF0B4FD38000CF0BEFD012005B0F0BD64
S11369100A02000070B5002200234C4C0FE02568E9
S1136920DE00AD19EE78002E07D02E88864204D101
S1136930AE788E4201D1EA706A605B1CDBB2657985
S11369409D42ECDA70BD0000F8FF000080B5010044
S11369503948408FFFF750FF02BD0000113100009D
S1136960CC7E002052250020F8B504000E0017004C
S11369702578787D002829D0002D27D00D2D25DA03
S1136980B078F1780906090C08433149884211D3DB
S1136990012D0FD0082D0DD0042D0BD03079717935
S11369A00906090C0843F179FFF7DCFE012801D040
S11369B003280BD1AA48A9004018001F0368180037
S11369C004D03A003100601C9847F2BD0020F2BDAB
S11369D038B50400A34D142C03DBA34828800CF025
S11369E090F916480019AC21490040180178491C57
S11369F00170090603D19D4828800CF082F920001B
S1136A0000F004F831BD00001825002010B5040082
S1136A10012004F08CF800280CD008490919AC2294
S1136A20520089180A78521E0A708521445407F0CE
S1136A3019F8012010BD000018250020681000205E
S1136A4081670000462500203011002048110020F5
S1136A50F8FF0000F0B585B0050009200290002D74
S1136A6009D02F008837B868002804D02C00B0342F
S1136A706078002801D1BA482DE01B207871B9480C
S1136A80019000784000F8700026E079002812D0C8
S1136A90B88C2178022908D1019AD288904209D071
S1136AA0FFF7C9FB002806D004E0FF2101F0C6F976
S1136AB0002800D00120E071AB480078C00704D45E
S1136AC0E079002815D1C22186E02078012812D06F
S1136AD0022805D0A548634908800CF006F9BDE0FA
S1136AE008200290B88CA249884204D2E079002898
S1136AF001D0E671AAE0207A002803D0F88C9C49E2
S1136B00884256D2029841420391B86840180090D6
S1136B10290000F077F900984078FB2101400098A3
S1136B20417006F0C7FC002802D0607900280AD121
S1136B3000984078FD21014000984170B879FD210A
S1136B400140B9710BE0A079002801D1E07900E09F
S1136B500120B979FD220A4040001043B871009821
S1136B60B98C8170090AC170A078010002D0009923
S1136B7088710AE001F0E0F800998979814204D033
S1136B80B948384908800CF0B0F80099280000F0A2
S1136B906FF8002862D1207801282ED0B88C74496F
S1136BA088422AD3C91D884205D0B0494018032819
S1136BB001D3C12110E01C207871207A002804D070
S1136BC0617AF88CFFF718FE03E00098C079FFF7AC
S1136BD0BDFE022804D1D221280000F0A0F83DE037
S1136BE000988079022808D30198C1880098C37955
S1136BF00A002800403004F091F878791B280AD163
S1136C002079002807D0009800788006800E402163
S1136C10014300980170ED60280038304661067425
S1136C208661C661067346730199C98839800299E1
S1136C30627889180170B8680399401868629B49A2
S1136C403D200CF06DF8E079002803D0280003F013
S1136C5046F903E02800083006F004FF05B0F0BD53
S1136C60900D0300CC7E0020D2310000D33100000F
S1136C70F8B504000D0068782700AC37397901298C
S1136C8039D1012601436970FF21388801F0D6F813
S1136C900028287A19D0FC2101400E432E721D20B1
S1136CA08D216054387B002804D0797B7888FFF7E5
S1136CB0A3FD02E0E879FFF749FE02280BD1D221B7
S1136CC0200000F02CF8D220F2BDFC2101402972F2
S1136CD01B208D216054287AE3210140F879820039
S1136CE01C20104008432872C006C00EF9794901DF
S1136CF00143297202E0FE21014069700020F2BDC7
S1136D0038B50C0045688321415CA822A954383069
S1136D1004F069F82100280000F001F831BD10B535
S1136D200200943251751168D160002111610E4C3A
S1136D300100200048300CF0E1FC4C20205C41288C
S1136D4006D103204C2160540E2006F04DFE10BDE8
S1136D50C01E04D08248834908800BF0C6FF10BDD2
S1136D60B03100004C25002068100020B131000033
S1136D70F8FF0000F8B57C4C2700483738000CF0C9
S1136D80DBFC0500774E3879032803D07748308040
S1136D900BF0B7FF002D03D1754830800BF0B1FF25
S1136DA098202958080003D17248308000F054FE1E
S1136DB028009C30884728009830407C002803D164
S1136DC0AD493C200CF005F8E820800021183D2056
S1136DD00BF0D5FF3868002801D00E2085E1412052
S1136DE03871F1BDA5480078412801D101207047D0
S1136DF0002070473D2804D1002902D008889E490C
S1136E000880704738B50400002020706070207836
S1136E10FC23034023709A48C3221A403323C35CE3
S1136E209B003C251D4015432570627802231343C3
S1136E3063700022A270E270AE318A7A002A06D012
S1136E4008882071000A6071C87AE07107E0418FF8
S1136E502171090A6171817A491C8172E17100F022
S1136E606BFFA07131BD0000B73100000500FFFFCA
S1136E7038B53C4C002801D1824813E03A4D01005A
S1136E80280038300CF03AFC3C20285CD62805D188
S1136E9070203C216854082001F029FB7038032835
S1136EA003D3794820800BF020FF31BD0814002063
S1136EB0F8B52D4C3C20205C2A4D70282CD1A76BB2
S1136EC0002F03D1714828800BF01BFF3E002436AD
S1136ED0207880061AD53D1D307C002802D0012080
S1136EE003F01AF90020707001212977B1686961F3
S1136EF0717C697766490978A977E87728616548DC
S1136F00A86128000CF0FAF9712021E0C220307049
S1136F1072203C21605401E072281CD120003830DA
S1136F200CF00AFC060003D15B4828800BF0E9FE54
S1136F30316B080001D159480EE0300024308847F5
S1136F40A06B002803D070203C216054CCE0D620F4
S1136F503C216054F1BDAE48288000F07DFD000066
S1136F60B3310000CC7E002068100020B431000052
S1136F70B5310000B6310000F0B587B005002E0031
S1136F802C367468002D04D19C489D4908800BF070
S1136F90B8FE9C48007871286CD101A89A498CC924
S1136FA08CC0029530780F2864D32078002861D1F2
S1136FB0E01C0CF0E3FB002901D100285AD0E01CAE
S1136FC00CF0DCFB93A20CCA994201D1904251D03F
S1136FD0280000F08DF860788C4F01097A7991428D
S1136FE048D10007000F3979884243D101A91E20F6
S1136FF00BF0EFFE039800283CD1746804A93220FA
S11370000BF0B9FF04A803C8002901D1002810D04F
S113701004A803C87FA20CCA994201D1904208D0A7
S1137020E01C0CF0ABFB04AA0CCA8B4222D18242B6
S113703020D100A9891C18200BF09DFF6846807898
S1137040002808D0694617200BF095FF6846008891
S1137050A98988420ED13878022802D1A178C909B9
S113706008D0012803D1A0788008C00702D52800E1
S113707000F0D4F807B0F0BDB67F0020B4100020B3
S113708018250020D0300000D1300000D23000009C
S11370904F250020A1700000D3300000D430000040
S11370A0F8B50400B74D2E68554F2879712803D0E0
S11370B0B54838800BF025FE002E03D1B348388044
S11370C00BF01FFE30000C30A04203D0C0483880C3
S11370D00BF017FE2079010001D0FA2800D100201E
S11370E02421705472202871082006F07DFCF1BD23
S11370F0F1B586B0B748806B01900698006B00909C
S11371003F4F0198002803D1B34838800BF0F9FDB4
S113711001982521405C019A2532527890426AD226
S113712001998C6A000126180025002C2AD1AB484D
S113713038800BF0DAFD5EE00098C01C0CF01EFBFA
S113714004AA03C202AF20000CF018FB03C704A872
S11371500CC802A803C88B4213D1824211D101206A
S113716001250699C98BC90B00D0607300998978F1
S11371708908014200D0A07300998978C90900D018
S1137180E0731034B442D7D3002D34D10698007E76
S113719030720F240698C08B0F210140F1720698BB
S11371A0C08B0006000F30730698C08BC00B707341
S11371B00098C01C0CF0E2FA02AA03C2320002A832
S11371C003C80CF0F1FA009880784007C10FB1733E
S11371D000988078C009F073009840780440747275
S11371E0009840780009B07201982521405C401C49
S11371F001992522885407B0F0BD0000D630000064
S1137200CC7E0020A4100020C00D030046250020E1
S1137210D5300000FFFFFFFFFFFFFFFFF0B587B091
S11372200500286B029000260396AB4F3C6800963D
S113723069460E712078062801D1039414E0288A47
S1137240A188884210D104AA00920298C01C0CF0B4
S113725095FA009A03C2200010300CC804A803C891
S11372608B4201D1824203D0283478688442E1D32E
S11372707868844203D30398002879D00446210017
S11372803800FEF753FF00902078062801D1032030
S11372902070E88B4004C10F012048406070A07842
S11372A03A2101400A200843A070287EE070288A11
S11372B0A080A889E080002000212200083203C2B7
S11372C00298C01C0CF05AFA2200103203C2029831
S11372D080784006000F20760298807B6076012734
S11372E0A07E01210143A176FD200840E98BC90B52
S11372F049000143FB200840A076A6838B4E56200C
S1137300305C03F035F9206200988079BF21014098
S1137310009881710420029989788908394207D03C
S11373202E21715C012903D1A17E04220A43A27695
S113733002998978C90906D02E21715C022902D1EB
S1137340A17E0843A076200002F05EFF1D202A568D
S1137350E97E200003F002F8009840687449014077
S1137360009841606846077101A948200BF031FD7F
S113737007B0F0BD6F480078D62801D101207047CE
S113738000207047A0100020D7300000D830000043
S113739038B5694C002802D1C220800113E00D4D9C
S11373A001002800C0300CF0A9F92800C43001788D
S11373B0132904D1E72101700D2001F098F8E73971
S11373C0032903D35D4820800BF08FFC31BD0000FE
S11373D0D930000068100020DA300000DB300000F3
S11373E0F8B5574F3C00C0342079534EE7282AD1D2
S11373F02568002D03D1534830800BF082FC387887
S1137400C0071AD5281D00260677696A096A4161F2
S1137410696A2422895C41774B4909788177102174
S1137420C1774A498161696A093101610BF066FFDC
S1137430387860713E70E8201FE0C320696A0870E4
S1137440E920207101E0E92819D120000CF074F939
S1137450050003D1A34830800BF053FC686A816AAD
S11374600A0001D1A0480BE088472068002803D017
S1137470E72020710D2038E613202071F1BD9B48D0
S11374803080E9E2F8B50400994D2E682A4F287936
S1137490E82803D0974838800BF033FC002E03D142
S11374A0954838800BF02DFC30000C30A04203D0FE
S11374B0924838800BF025FC2079716A08702068A6
S11374C0716A4860E079716A0872E9202871687904
S11374D0B44908700D2008E65C110020B248007819
S11374E0132801D1012070470020704738B5124C91
S11374F0002801D1AD4815E0114D0100BA2040002B
S113750028180CF0FBF8BC20400028180178B72993
S113751004D154210170092000F0E9FF54390D29E8
S113752003D3A34820800BF0E0FB31BD18250020D5
S1137530FFFFF8FFA4100020CC7E00208A3000005A
S113754068100020813000004F2500208574000061
S1137550F0B583B0974C2079974D54287AD126689A
S1137560002E04D19548964908800BF0CAFB4420AC
S1137570305C287200F0BCFC8A4800788007C10F98
S1137580684601713100383128002E3000900378AC
S11375900022487B002814D0012B01D1012700E0F0
S11375A00027CB8968460079384204D08548834255
S11375B0BF41FF0F00E00027180000D00120384031
S11375C005E0581E8041C00F6B461B791840002807
S11375D03BD00878012812D129003C3117200BF048
S11375E0CAFC2900383116200BF0C5FC300000F02D
S11375F089F90098817A24200BF0EBFBF7BD8B68A6
S1137600022502E0581E18400300002B16D06D1E00
S1137610F8D13000083002778A684261497D4177A9
S11376200099497A81771021C177310028310161AD
S1137630654981610BF062FE57204AE03100403118
S1137640300000F066FA562043E0C2200875582046
S1137650207101E058283ED120000CF06DF806009E
S113766004D1A748564908800BF04BFB37003C3740
S11376703878002802D0012002F04EFD387C002822
S113768015D129003C3117200BF09CFC290038311E
S113769016200BF097FC6079002803D102F0C1FC9E
S11376A002F0FDF901206071FD203E490870F9687F
S11376B0080001D1A0480FE030004C308847206812
S11376C0002805D054202071092006F08DF9F7BD5B
S11376D0B7202071F7BD9948394908800BF005FBA4
S11376E0F7BD0000823000008330000086300000C7
S11376F02811002087300000883000008930000005
S113770080B54C23CA5458210171092004F01DF896
S1137710F8B50500274C2768294E2079572803D04F
S1137720874830800BF0EDFA002F03D18548308074
S11377300BF0E7FA38001030A84203D082483080BA
S11377400BF0DFFA2A79100024D1F8690090296837
S1137750884300900098002801D17C481DE0E87916
S1137760A96801220023DDB285420CD2009D154098
S113777007D0DBB2CD5CCD2D02D3009D954300959F
S11377805B1C5200EFD16946380000F0C2F9562064
S11377902071F1BDFA2A02D1B14830805CE1390090
S11377A095E10000681000202C110020A03000009A
S11377B0BC300000DC11002018250020A13000009E
S11377C0CC7E0020F8FF000011770000F0B587B0F0
S11377D00400A44D28680290C4262879562804D0B1
S11377E0A1485B4908800BF08CFA0298002804D168
S11377F09E48574908800BF084FA02981030A04242
S113780004D09B48524908800BF07BFA2079010090
S113781003D0EA2801D0FA2869D10298C0690190FE
S11378202168884301900198002861D0E279A16819
S113783001A800F099F98F4E3070E1796A46D17051
S1137840A16805916946087400248C70891C18206D
S11378500BF091FB884D68468078002830D168464B
S1137860C078401C80B203900BF002FB694608808C
S1137870002016E0491C6A46D278914210DA059A33
S113788018234B43D2186B461B7C177CBB42F1D1A7
S11378906B461B8892889342ECD1591C6A4611802E
S11378A0401C80B2039988420EDA69460988A942CD
S11378B004D169460988491C6A4611800021DAE727
S11378C0694617200BF057FB68460088B080A84231
S11378D005D1A0481E4908800BF007FA0DE0029874
S11378E000F010F8317824200BF073FA05E006005C
S11378F0320002992800FFF703FF07B0F0BD000033
S1137900A230000080B501001031934A4523C35CC6
S1137910002B06D04623C35A53874622825A0A8133
S113792001E053870B818D4A0A6153220A70592161
S1137930C04A117003F068FBA3300000A4300000BB
S1137940A8300000A9300000AA300000BA300000BE
S1137950CC7E0020F8B50500424E34682700083775
S1137960002C04D17E48B84908800BF0CAF92000E5
S11379702430A84204D07B48B34908800BF0C1F9F5
S11379802A78100002D021003000A1E00120724DBD
S1137990317959290AD05A291DD05B2937D05C295D
S11379A03AD05F2941D060290FD052E06F2038725D
S11379B03900103106200BF0DEFA60203071674880
S11379C0B86138000BF09DFCF1BD462038720F20E1
S11379D038745A20F2E7002000F004FB29004031FB
S11379E032200BF0C8FA286C696C002906D10028F3
S11379F004D10BF04CF903C82864696400F0C2FA9E
S1137A004520387228001E3038615B20D6E75221A9
S1137A10397238745C20D1E7832038723900103110
S1137A2008200BF0A8FA5F20C8E7A98F218229005B
S1137A3037314A78A2740978E174207500206075A2
S1137A409D48A061200008300BF05EFC5D20307181
S1137A50F1BD9A487C4908800BF047F9F1BD00005C
S1137A60BB300000DC110020AB300000AC30000063
S1137A70AD30000050250020FFFF0000F8B50700DE
S1137A808F4C2568704E002D03D18E4830800BF04A
S1137A9038F928001C30B84203D0AB4830800BF0D2
S1137AA030F920795D2803D0A84830800BF029F9FB
S1137AB03A7810000AD128000830A5498160A54908
S1137AC0C1600BF018FC5E202071F1BD290020007C
S1137AD0FFF716FEF1BDF8B50500794F3C685A4E24
S1137AE0002C03D1AB4830800BF00BF92000183088
S1137AF0A84203D0A84830800BF003F938795E28F7
S1137B0003D0B64830800BF0FCF82A782100380006
S1137B10DEE738B5040025001C350120287208680A
S1137B2028604D20205C6872AD480078A87221005E
S1137B302731822040000BF01EFA21001831A94899
S1137B400BF002FABB486860200008300BF0D6FB4B
S1137B5031BD0000B930000018250020557900001F
S1137B60AE300000AF300000F7B582B0FF20FF2434
S1137B70FF216A461070002013E098420BD0039E48
S1137B8018275F43F619B788BA4204D1377CBD423F
S1137B9001D1A94FB7805B1C6E46367CB342ECDB47
S1137BA0401C6A46127C90420ADA039A1823434323
S1137BB0D3189A88A04DAA42F2D01D7C431CEBE74F
S1137BC000200122029B1B68134022D000230025C1
S1137BD00CE0039E18276F43F619377C874204D1C3
S1137BE0B688954FBE4200D05B1C6D1C6E46367C39
S1137BF0B542EEDBDDB2002D04D1C324E40314400E
S1137C0016D104006E463678B54202D201006D46A4
S1137C102B70401CC0B25200D4D1FF2C00D10C00F8
S1137C20FF2C04D1A248284908800BF05EF8E0B28A
S1137C3005B0F0BDE0110020AB480078B72801D1B1
S1137C400120704700207047CC7E002070B50400EE
S1137C500020207060702178FC2008402070A34D23
S1137C602E002E36C3210140707980003C22024050
S1137C700A43227060780221014361700020A070E1
S1137C80E070B0892071000A607100F055F8A071AD
S1137C90A87A401CA872E0713078022806D1F08CD2
S1137CA0002803D060782021014302E06078DF21BE
S1137CB00140617070BD00007D7A0000B0300000AA
S1137CC0DC110020B1300000CC7E002030B5020071
S1137CD008320A61002201234478E4081C4204D0DB
S1137CE00C69250008350D6100E000240C6044781F
S1137CF024091C4204D00C69250008350D6100E0FC
S1137D0000244C6044781C4203D00C69651C0D614E
S1137D1000E000248C604478A4081C4207D00A695F
S1137D20CA6013785B00D218921C0A6100E0CA6032
S1137D300A69101A087530BDB84800784000FF2859
S1137D4000DBFF20C0B27047B2300000B330000047
S1137D50FFFFFF00D77A000010B5AD4A13680C008E
S1137D6001D0FF2905D1AE48B34908800AF0BDFF10
S1137D700EE01C78002C07D15880197001001120E6
S1137D800BF027F8012010BD1B1D5468A342F0D34B
S1137D90002010BDB4300000B5300000F8B5060076
S1137DA00C0000209A4F3D68210001D1B0483AE010
S1137DB029780A000DD06A88B2420AD1FF2C01D07A
S1137DC08C4206D100202870310011200BF001F8FC
S1137DD001202D1D79688D42EAD3F2BDB630000032
S1137DE04F25002002020000F8B5050000270020FE
S1137DF0874E3468290001D1A84814E0FF2D02D031
S1137E00227895420AD10422210068460BF0DCFC5A
S1137E10694612200AF0DDFF27700120241D7168D5
S1137E208C42EBD3F2BD844908800AF05EFF002047
S1137E30F2BD0000CD770000FFFF000038B5744AA2
S1137E4013680C0005D19D487B4908800AF04DFF5A
S1137E500FE01C78250008D05D88854205D1FF29F4
S1137E6001D0A14201D1012032BD1B1D5468A3429F
S1137E70EFD3002032BD66490A6800201378002B36
S1137E8000D1401C121D4B689A42F7D3C0B2704710
S1137E905F49002801D1086800E0001D4A6890424B
S1137EA003D20278002AF8D07047002070470000FF
S1137EB0B830000010B582B06946FF2016300BF0D0
S1137EC05AF8534C210090480BF03EF8206869465C
S1137ED0097889004018606068460078810020684D
S1137EE00BF0C0FA13BD0000E0110020182500209B
S1137EF070B582B0002669460E70FF2008300BF082
S1137F003AF8824C25002E3568460078A871210085
S1137F104831832040000BF02EF86946FF20801D75
S1137F200BF029F8A87E6A461278904201D2101A02
S1137F3001E0AA760020E87602F0E0F90220694622
S1137F40087019200BF017F86846007868702878D4
S1137F50022800D00126EE842100563122200BF0A5
S1137F600AF89B480678A3480AF0A8FE7100461850
S1137F70802000010AF0A2FEA9794008301841438C
S1137F80E16073BD38B5614B1C0009340020607595
S1137F901D0029350F20A17DF0220A40697A014095
S1137FA01143A1750840A97A09010143A175E17D36
S1137FB0FC200840E075872101402078C000782229
S1137FC002400A43E2751A002132186C596C0BF016
S1137FD0EBFBFF2028706870A870E079E87002F06D
S1137FE08DF931BD102800D30F20484948727047DD
S1137FF001000A480278102A01D3002070479142F8
S11380008041C043C00F7047A349088070470000F7
S1138010D0130020A0480088704700004C250020A1
S1138020A03400003948008870473848808F704772
S11380303649888770470000CC7E0020334A106C94
S1138040516C704703C8954A03C27047944800783E
S1138050704794480078704780B5924908700100D1
S113806024200AF0B6FE01BD2848C068704700000D
S1138070A13400002549C880704780B5234908749D
S1138080010022200AF0A5FEFFF77CFF01BD1F4876
S1138090007C70471D48408870470000A3340000EE
S11380A01A488088704719480021418081807047B0
S11380B001001648027C0AE000000000A23400001F
S11380C001001248027C914201D101207047881AB4
S11380D000D54042C82802D28A42804102E08A4246
S11380E08041C043C00F704780B505F063F9A649CD
S11380F00B78984201D3002002BD49681C225043EA
S11381000818143002BD00001102000018250020D8
S1138110F8B50D001400FFF7E7FF0600002020600B
S1138120002E01D10120F2BD37680CCD083D03CFEC
S1138130083F8B4204D1824202D127600020F2BD65
S1138140103770688742F0D30220F2BDF8B50400FE
S11381500D001300BB4846680078800137180022E0
S1138160002E07D1C1208001B74908800AF0BDFD67
S11381700020F2BD002D05D1002C03D11000F2BD6A
S113818032004036BE42F9D230780028F8D01800C8
S113819002D03000083001E03000183003C88D42AE
S11381A0EFD18442EDD1E3E780B5A6494A68904215
S11381B004D3097889015118884205D3B348C849C2
S11381C008800AF092FD01BD40210BF04DF901BD7C
S11381D0EA24002001B4C348007A4006C10F68466F
S11381E000784006C20F914201D1012000E0002036
S11381F001B07047093D0000F0B587B0914E746836
S1138200307880012718002C32D1B7488E49088075
S11382100AF06BFD3EE0032829D1208A108020005B
S1138220083003C86B46083303C303205074607DD1
S1138230907460784008C00710D501F03BFE002818
S11382400CD001F034FCC94D0AF012FE80B22900B2
S11382500AF00BFA4819306501F021FC6078694690
S113826008742000FFF7A0FF684608F05BFA40346A
S1138270BC420FD220786A460228CCD1208C1080D0
S11382802000183003C86B46083303C3022050741F
S11382900020CDE707B0F0BD6C2500205825002054
S11382A04625002050250020F0B589B00D001700A8
S11382B06878C008C00705D5280018300390280046
S11382C0103004E028001030039028000830029099
S11382D0A879012854D1039840780090FFF77AFFD9
S11382E000284ED0B2480078000749D502980BF018
S11382F045FA0122FFF72AFF040041D02E7968795C
S11383000006000C064302980BF038FA06AA03C2D2
S1138310039840780490192038560190387E0090D4
S1138320049B320006A803C800F098F9060009D09F
S113833019203A56397E300001F0FBFFB0882082C4
S1138340002002E0BC482082012020750398407878
S1138350607068788007C00F00D0012060752879AC
S113836069790906090C0843608202980BF006FA41
S11383702200083203C2012020700520FEF728FBEA
S1138380012009B0F0BD0000D8130020F8B50700A3
S1138390381D84692B48456800788001281800E05E
S11383A04035854240D229780129F9D1002D3BD0AE
S11383B02000FFF74BFC01262078FC21014001201E
S11383C0084320706178182008436070FD21014043
S11383D0687D400008436070688AA070000AE070FD
S11383E0220008322800083003C80BF0DDF93D48AC
S11383F0408F2071000A60710AF049FC220010329B
S113840003C80BF0D1F9A67107202076288A60767C
S1138410000AA076287DE076688A391D8884687809
S1138420C008304203D003E08448FFF713FB05265D
S11384303800303086707D601C2101700420287063
S1138440F1BD000070120020CC7E002038B50D0074
S113845044682078042804D07948214908800AF027
S113846050FC2000083003C801F0B4FE002809D0F5
S1138470217D002904D1002D02D10320207035E094
S113848001F083FF2000FFF78FFE31BD4130000073
S113849038B504002500283D114801D1694903E09D
S11384A02978052904D0684901800AF01EFC31BDF1
S11384B02000103803C801F08DFE00280BD0A11F46
S11384C00978002905D1217D002902D102202870D4
S11384D00CE001F05AFF2800FFF766FE31BD0000F2
S11384E0CC7E002018250020423000000B2005F02F
S11384F07BFA31BDFEB5060000272D480078000741
S113850032D5307A0090FFF765FE00282CD0002287
S113851003CE083EFFF71AFE050025D0464C307AFC
S113852002900A2030560190707A0090029B22003B
S113853003CE083E00F092F8002803D022216F54A5
S1138540848802E00120222168542C84307A6870E7
S113855003CE2A00183203C23C486862280008305F
S11385600AF096FE05202870F7BD00004C1D00009F
S113857010B54468AA20364A10702078042805D023
S11385803448354908800AF0B0FB10BD00290AD1EF
S11385902000083003C801F01DFE002803D0218A02
S11385A0818002F00EF82000FFF7FEFD10BD0000F0
S11385B06810002038B505000122083003C8FFF711
S11385C0C5FD04001ED0002020756078F72101400D
S11385D0A87EC207100F08436070A8886082280034
S11385E008300CC8B8490020FDF7F7FD20822800A8
S11385F0083003C82200083203C20120207004207E
S1138600FEF7E6F931BD38B5C54C82208000251847
S11386100020002103C5083D2900FF200A300AF08C
S1138620AAFC832080002118401F0AF08DFC2878C2
S1138630810106F022F80000FFFF00004330000033
S113864045300000463000004730000091840000AF
S1138650BA11002048300000CC7E0020FEB503B4DF
S113866088B00020049003900024AE48029005686E
S11386700027002669460C71AB4805900078FFF787
S1138680B7FC002850D128780090062828D008A8E4
S11386900CC82800083003C88B4202D1824200D1A2
S11386A02C000098012801D0052806D168780228FA
S11386B001D17F1C18E0761C16E0039800280DD029
S11386C029000298FDF732FD009003990298FDF706
S11386D02DFD009909790079814205D2039503E0C3
S11386E00498002800D104952835029840688542F2
S11386F0C9D3F1B2F8B201F0DBFD0CA80078400850
S11387006946487001256846407801210140684661
S11387100170B7480690002C3FD1F2B2F9B2684616
S1138720007800F0D3F8002844D10498002801D040
S1138730044602E0039C002C3CD008A80CC8684600
S1138740818D8C464178C807C00F6146FDF745FD11
S1138750694688856846808DC34988422AD268461E
S11387600078002801D0761C00E07F1CF1B2F8B23A
S113877001F09EFD6846808DA08008A803C82200F1
S1138780083203C2A07EEF210140A17669460D7133
S113879001A948200AF01DFB2DE0207801281AD0F9
S11387A0052818D0F2B2F9B26846007800F08EF8C5
S11387B0002801D0002085E068460078002801D018
S11387C0761C00E07F1CF1B2F8B201F071FDA07ECE
S11387D0EF210140A1760698007800280BD0A088EC
S11387E06946898D884203D0A07EEF210140A1769D
S11387F06846808DA080257000A9491C28200AF0B5
S1138800BAFB68464078002801D0052020706846ED
S11388100078002800D102256570A01C0CA90A78F4
S113882002700698C079E0709A48808FE0809A4A76
S113883003CA083A2300103303C3059800780F28AD
S113884000D2401C20760598C0796076A07EFE2177
S113885001400CA800780007C30F0B43F92018400F
S1138860A0760020A083907D01F082FE206200208B
S113887060626078022802D1200001F0A2FE21008B
S11388800298FDF753FC8179BF220A4082712100CE
S11388900298FDF74BFC4168C34A0A4042606946AE
S11388A04C200A561299200001F058FD200001F0D6
S11388B0ABFC00200090200008300CC8A088FDF715
S11388C047FE20000DB0F0BDFEFF000070B50400AF
S11388D00D0016003100280001F0BBFC002801D077
S11388E0012070BD002C03D0300001F0D3FC02E065
S11388F0280001F0BEFC401E8041C00F70BDBE4880
S1138900416800788001081800E04031814204D2B7
S11389100A78002AF9D0002070470120704700002F
S1138920681000205C1100202125002010B5017B77
S1138930042901D0062902D101F0DCFE10BDAF4CA0
S1138940012912D101000831D120800020180AF039
S1138950D5FED020800020180178162917D11721C0
S11389600170132005F040F810BD01000831C42047
S1138970400020180AF0C2FE8020800024182078CD
S1138980DA2804D10A2005F02FF82120207010BD28
S113899070B59A4CC620400025180122286803C8E7
S11389A000F012FC6860802189006618002814D049
S11389B0002070706868C08836498887E8214900BB
S11389C0611850220A7008818D480861E420400033
S11389D020180AF096FC292007E0C32029682B22DE
S11389E088540A2005F000F82220307070BD000081
S11389F04925002070B5814CC6204000251800226E
S1138A00286803C800F0E0FB6860802189006618CC
S1138A10002821D000207070E820400020181D4953
S1138A2037228A5C42706A68D278027002228270AD
S1138A306A68D28882806A6892880281097AF02200
S1138A405200A154CB494161E420400020180AF0AF
S1138A501CFC2320307070BDCA2029682B22885446
S1138A6022203070C0E10000F8FF000080B56348A8
S1138A708021890041184A78521C4A70D2B2032AD4
S1138A8003D3C82149004058AEE2282008700320CF
S1138A9000F0DFFF1825002058250020F8B5574DB9
S1138AA0F62040002F18387DC42149006E18002498
S1138AB0212837D130000AF03FFE08387060007E6C
S1138AC0AD490872FFF714FA2878C00623D57068F8
S1138AD0017B022901D003291DD132213975297066
S1138AE03421405C78747068006BB8607C60BC7042
S1138AF0A248F860012038747068807B002805D093
S1138B00E42040002818FEF7B3F9F1BD3C703800AA
S1138B1000F04CF8F1BDC22071680C31C8772220F6
S1138B20387501E022283ED1706802002032944951
S1138B3000914988118103C803C2083A009800785B
S1138B40907270682B21405C00281CD1B0681030F2
S1138B5003C8009A083203C2C14917200AF032FA46
S1138B60009916200AF02EFAFFF70CFABD2028709F
S1138B708148407AC1000B1ADBB2B06882880021B8
S1138B80002003F005FC716808002030496988471B
S1138B90B4603068002804D00A2004F025FF2120A6
S1138BA000E0DA203875F1BDFFFFF8FF38B5007832
S1138BB0124C010013D1E820400025186F202870C2
S1138BC0EC204000211806200AF0D5F90C48286151
S1138BD0E420400020180AF094FB352008E0C62168
S1138BE0490061582B2288540A2004F0FDFE2220FB
S1138BF080218900605431BD70120020681000206B
S1138C00058C0000FEB59749C42252008C187832B6
S1138C108A1800920078020007D061680C31C87786
S1138C200A2004F0E1FE222078E0534D287AC0089F
S1138C302A0031320292E42252008A180192E82278
S1138C4052008E180022009B1B78243B112B2ED837
S1138C5001A7FF5C7F00BF444046572A2A31392AC6
S1138C602A2A646B757F2A2E50086068007B0328CB
S1138C701ED10298007800280DD1688F7A49884265
S1138C8002D30AF0F5F868870AF001F80100688F4A
S1138C90FDF75DFA688753203070688F3081332088
S1138CA000990870BE48306101980AF02AFBF7BDAC
S1138CB0FFF7A0FEF7BDFFF76BFEF7BDA068C07815
S1138CC00299C871327030722A20E9E74520307069
S1138CD028001E30B0602420E2E7462030700F20C8
S1138CE030722520DCE783203070EC204000091826
S1138CF008200AF040F93420D2E752213170C1072C
S1138D00C90F31722620CBE7C00700D5A54A3260CF
S1138D10A548706001980AF0EEFA272000990870BF
S1138D20F7BD4B203070A068808830812F20B7E7D2
S1138D304A203070A068083003C83200083203C2E9
S1138D403020ADE760680C30C277222000990870AB
S1138D500A2004F049FEF7BD1021688FFDF7DEF903
S1138D602068002804D00A2004F03EFE2120D5E724
S1138D70DA20D3E7E990000018250020AD8B00002D
S1138D805025002070B53749C62252008A1813684E
S1138D900C338024A4000C1900782225060005D089
S1138DA0D8770A2004F020FE257070BD00201E78BC
S1138DB0032E17D12D4B1B7ADB08DB0703D410617C
S1138DC0FFF754FE70BDE8204000081881220270AD
S1138DD0A24A4260E420400008180AF062FA2B20FC
S1138DE0207070BDD87725700A2004F0FDFD70BD99
S1138DF010B51C4CC621490061180278130004D137
S1138E0080680861FFF732FE10BD08682B214254C8
S1138E100A2004F0E9FD222080218900605410BD5D
S1138E2010B5104CC8204000201800290FD1C1688B
S1138E30912292008918C160A949416101210174FC
S1138E40CA20400020180AF038FD2D20E4E700680D
S1138E50817EFB220A408276FFF79AFD10BD000056
S1138E605425002068100020F8FF00001825002079
S1138E70F6B585B0887901286CD109F008FF0400A3
S1138E80059808300AF07AFC0CCC994262D19042E1
S1138E9060D1944E80208000301802900078E42144
S1138EA0490071180391E821490071180091C34CDD
S1138EB03B4F53252D2801D02C2855D1CA204000E2
S1138EC030180AF017FD0599487E8A7E1206120CA6
S1138ED01043C621490071180191B94988423AD01A
S1138EE00598C07E002836D1019A12682B23D054ED
S1138EF0059A517E937E1B061B0C1943A18101998F
S1138F004E68B188AF4A1180F178A1723070307E1A
S1138F10401CC0B2FFF766F8707EFFF7AEF8069803
S1138F204068002805D00AF029FC019A52680832EA
S1138F3003C200980570A089009908810098076110
S1138F4003980AF0DEF92E2002990870A17A2420F1
S1138F5009F03FFF20E001984668B07EFB21014004
S1138F60B176FFF715FD17E0DA2815D1207802282D
S1138F7012D10599487E8A7E1206120C1043A081F4
S1138F8000990D70009908810098076103980AF010
S1138F90B8F9312002990870012007B0F0BD000033
S1138FA0058C0000FFFFFF00858D000080B54D4853
S1138FB0C82149004118834A127AD208D20712D430
S1138FC0D82252008218022313700B68DB88538066
S1138FD0096889881181AE491161D421490040187A
S1138FE00AF095F901BD0868817EFB220A40827669
S1138FF0FFF7CEFC01BD80B5FAE7F8B50400394DA2
S1139000802080002F1838782D2826D16946282002
S113901009F0B1FFC82040002E182078002815D18F
S113902068460078002811D004F0C7F800280DD055
S113903098487061012030747820F060CA204000A4
S113904028180AF03AFC2C203870F1BD3068817E73
S1139050FB220A408276FFF79BFCF1BDF18D0000F4
S1139060F8B50500EC692000FEF7F0FD0127207833
S1139070FC2101400120084320706078F721014061
S1139080102008436070844E3168497BFD22024001
S113909048001043607070688088A070000AE07017
S11390A07E48408F2071000A607109F0F0FD2200B3
S11390B0083203C80AF078FBA771062020747748A9
S11390C0007A60747068808829001C3188812800C7
S11390D01C308775122029001C310875F1BD000071
S11390E0AD8F000068100020F0B585B00500B04ACF
S11390F0E420400010180390802080001018009095
S1139100C820400010180290A87C002803D0022830
S113911049D048D338E0029806682A4C20003830F9
S11391200190F08801998880288801994880B08846
S113913020802800083003C83300083303C3E82024
S11391404000171838780199087000203070307E7C
S1139150401CC0B2FEF746FF707EFEF78EFF112062
S11391602A56297C0298006801F0E3F845203870FB
S113917020001E30B860242000990870A948386186
S113918003980AF0BEF816E000984078401C009955
S11391904870C0B2022806D203980AF076F8232059
S11391A00099087007E002980668B07EFD2101402E
S11391B0B176FFF71FFC05B0F0BD00004625002086
S11391C0FFFF000018250020F7B50026AE4F3C68CD
S11391D0207806284AD06078022847D0607EFEF7BF
S11391E06FFF002842D0684603C8002901D1002837
S11391F008D068460CC82000103003C88B4235D113
S1139200824233D16846007A0028A07E02D040070B
S113921002D42BE0800729D5207EFEF7E9FE002842
S113922024D1002E21D021003800FCF77FFF050057
S113923031003800FCF77AFF29790079081A717E29
S1139240627E8A4209D0531A00D55B42C82B02D2EF
S113925091420BD201E0914208D31821C9438842BC
S113926004DB09F005FE000700D4260028347868E2
S11392708442ADD33000FEBDA7480078DA2801D17E
S11392800120704700207047FD204949087070474D
S1139290FB8F0000F78F0000F41100201825002038
S11392A0F0B583B00C00002100256B461970517D88
S11392B002297BD300780121820600D5012502060C
S11392C000D51970954F3A0040320192400611D5ED
S11392D02E20385C022808D1207961790906090C0E
S11392E008433988814245D002E0907C002841D16E
S11392F00020FEBD60780009084257D020000830E5
S11393000AF03CFA00F066FF002803D02A0001218D
S113931000F095F8280021D1684622796179090680
S1139320090C0A4342800021408803F008F8BE4833
S113933006683079C0070CD5B078F1780906090CB5
S1139340084369464988814203D13079FE210140AE
S11393503171F61D02F0ECFF8642EAD3207961797F
S11393600906090C0843398888421FD168460078E9
S113937000281BD0280003D10021352009F029FD45
S11393802E20385C022808D100200021019A03C253
S113939068460178280000F029F82E20385C01285E
S11393A004D168460178280000F020F80120FEBDB1
S11393B06810002010B59D4C00202076607B0028AA
S11393C013D1200009F065FC002805D10CCC083C21
S11393D0002B07D1002A05D100200021BF4A03C277
S11393E000220023207B00F01FF810BD70B502009E
S11393F00B00C34D2C00A034207E002811D1002185
S113940003C4083C2800AA30BE490E780670E372F3
S11394102273BD4820612800983000F06AF80120CA
S1139420207670BD058C000000B585B069460872D1
S113943068460CC0684607F0D4F905B000BD70B5A5
S113944005000C00160008300CC8002B01D1002ABE
S113945015D03000FFF7E8FF29000B48FCF766FE43
S1139460002E02D0006800280CD1002C03D0280064
S11394700830FDF79DF82800083003F0F4FF2800B9
S113948000F083FF70BD00005C1100203BB582B08A
S11394909E48006800909A4B1C00A034207E00284F
S11394A019D1D2B200210125022A16D16A461289A5
S11394B02281657303C4083C1800AA3069460A78FF
S11394C002700020E07225738F48206118009830E4
S11394D000F00FF8257605B030BD032AEAD103C4A5
S11394E0083C6573F7E710B51923412403550A773F
S11394F010BD10B5824C0100200078300AF0FEF84F
S11395002000B9300178E62904D1112101700C2022
S113951004F06AFA10BD000068120020182500202B
S113952070B5774C2600B936307811283ED1A56F36
S11395302078C00734D5687D002809D0288AB2492C
S1139540884205D2172030701120FDF741FA2DE032
S11395502800083003C8002901D100280BD02800B6
S1139560083009F096FB002805D129002000783046
S113957000F032F81AE0C048007802280BD0E87CEA
S1139580002808D0F120207000207070200078306E
S113959000F03CF90AE02000783000F049F805E0DA
S11395A0C222290020007830FFF79DFF3078192867
S11395B011D1200078300AF0BFF801001C3089690D
S11395C08847A06F002804D0112030700C20FFF7CA
S11395D00CFCE620307070BD70B505000E00C2248E
S11395E0A5480078012801D0002817D130000830A0
S11395F003C800F0EFFD00280FD00178012901D045
S1139600022904D10100280000F038F970BD0529B1
S113961004D100F0BAFE002201E0C8242200310087
S11396202800FFF760FF70BD101300200811002010
S113963080B50168897CC90907D01321412281546E
S11396400021002000F04CF801BD12214122815478
S11396500620FEE1F8B52A4EB16F009107001C37D1
S11396603C682000FEF7F2FA01252078FC21014035
S1139670012008432070607810210143617009F0D3
S113968006FB2200083203C80AF08EF8BF48A07017
S1139690FF20E070E079FDF759F96078F721014087
S11396A06170A571042020740020607472480078F1
S11396B0022805D00098C07C002801D08020607466
S11396C00098007D002803D0607C20210143617450
S11396D0122038751320B9217054F1BD582500208B
S11396E010B5074C2000883000210170C749416043
S11396F02000803009F0D8FD1420B921605410BD39
S113970068100020CC0D0300B5930000D00D0300B9
S1139710F8B5764C26005036B76A0178002960D136
S1139720200068300AF008F80500307800280FD0CF
S113973000203070200054300AF0DCF801212800A9
S113974004F0E3FB2000683009F0F6FF0500F5D1D2
S11397500125B87C284222D0A72080002018009040
S113976006683078002802D0300002F060F818361D
S1139770009840688642F4D302F0BFF805E0C220A6
S1139780087408001030C9688847A0208000201899
S113979009F0D2FF0100F2D1102004F030F9B87CB6
S11397A04008284201D000F01AFCB87C8008284206
S11397B001D0FCF735FFB87C4009284201D0FEF700
S11397C079FBB87C8009284201D003F083FDB87C82
S11397D0C00902D10021BC4A03C212202070002219
S11397E002E0FD2121700278390020007830FFF773
S11397F07AFE0C20FDF779FCB4480078E62801D104
S11398000120704700207047F8FF0000F8B50400FD
S1139810AF4F3D680026287806281DD0012816D1B0
S11398204220205C002809D0200008300CC8280001
S1139830083003C88B4201D182420AD0A54800787F
S1139840002802D06878022806D12E0004E00528FA
S113985002D1280000F099FD283578688542DAD3D2
S1139860002E04D03100200000F008F8F1BD2000E3
S1139870FFF7DEFEF1BD00004625002010B5020012
S11398800B0014000834988820811800083003C89D
S113989003C4083C987EC00701D5012000E00520E0
S11398A0A0721520412150540720FDF791F810BDF6
S11398B010B50A000D4CA36F1800083003C8002926
S11398C001D1002808D0190020007830FFF70BFEE2
S11398D00C2004F089F810BD2000BA300178491C2E
S11398E0017020007830FFF791FF10BD6810002050
S11398F0F8B50500784800900768EC692000FEF789
S1139900A5F901262078FC2101400120084320709C
S1139910607810210143617009F0B9F92200103216
S113992003C809F041FF0098008AA070000AE070A3
S113993060780821014361702200083200980830E1
S113994003C809F031FFA671042020764020607618
S1139950F87C002801D0C0206076387D002803D030
S1139960607E2021014361760098008A29001C3121
S113997088811A2029001C3108750098807C2900F0
S11399801C318875162051490870F1BDFDFF000097
S1139990F8B50500A94FB86F0090EC692000FEF7F8
S11399A055F901262078FC2101400120084320704C
S11399B0607810210143617009F069F922000832CE
S11399C003C809F0F1FE0098008AA070000AE07054
S11399D06078F72101406170A67104202074602032
S11399E06074122029001C3108750098008A8021B7
S11399F06852022029001C3148720098008A29000C
S1139A001C3188811820B9217854F1BD11970000C8
S1139A1080B58A480A00816F7830FFF764FD0C2016
S1139A2001F093FE80B585480178C90700D50BE0A5
S1139A3000F035F801BD80B580480178C90700D52C
S1139A4002E000F04BF801BD02219F2292008154F4
S1139A500020FCF7BDFF01BD80B569468A204000A7
S1139A6009F089FA7549962080000818964A8918E1
S1139A700A78002A0ED04A78521E4A70120609D07B
S1139A80009A002A03D0426100F028F801BD0220A8
S1139A908870DDE7C149016000F001F801BD80B5BF
S1139AA0664801219F229200815494211DE080B5D3
S1139AB0624800219F229200815494218900401819
S1139AC009F018FF01BD00005825002021110020D5
S1139AD05C11002047250020E010002080B5574885
S1139AE001219F229200815499218900401809F094
S1139AF0E4FE01BDF1B584B0C4692000FEF7A6F808
S1139B002078FC2101400120084320706078102156
S1139B100143617009F0BBF82200083203C809F060
S1139B2043FEA948A070FF20E0700120A071082026
S1139B302074607C4006400E6946087168460079CE
S1139B406074A24800900088C8800026A048029053
S1139B5005681BE02878062817D06F78022F14D0E8
S1139B609C48026C436C2800103003C88B420CD113
S1139B7082420AD1A8889849884206D2012F04D18A
S1139B806946C988884200D3761C28350298406803
S1139B908542DFD3009880786025F6B21B2E06D26A
S1139BA0002814D1684600790543657427E000282D
S1139BB017D1BF49FF20143009F0DDF9607C00990A
S1139BC0C978012913D105436574002015E00020EC
S1139BD000998870607CDF21014040200843607454
S1139BE00DE0684600799F210140617407E0BF21C0
S1139BF00140202008436074012000998870009877
S1139C0001882000123000F061F81F21627CE023FB
S1139C10134008401843607400988078002801D1EC
S1139C20009A1080607C01404800401820181230CF
S1139C30001B04991C31087505B0F0BD68100020A4
S1139C40F2B582B015000178C906C90E01916968A0
S1139C500091002936D0697D891E019A53009A1813
S1139C60C9B2D2B291422DD3A7490A0000230DE014
S1139C705C00E41806197478B7783F063F0C3C433F
S1139C80544E768FA64200D1DAB25B1C019CA342EB
S1139C90EEDB07248A4204D0510089184018C078AA
S1139CA004400298067941790906090C0E4300988C
S1139CB009F064FD01941922AA5600922B7E320009
S1139CC000F08EF80120FEBD7A020000F1B582B0EA
S1139CD00E00054641489E21890041180191F43047
S1139CE000900024009807681DE03878062819D0F1
S1139CF07878022816D03748026C436C380010304C
S1139D0003C88B420ED182420CD1B88832498842B2
S1139D1008D2B2B2904205D3002C02D0A188884266
S1139D2000D23C002837009840688742DDD3002CDD
S1139D302DD021000098FCF7F9F9A1882970090AAF
S1139D406970A978F0220A4041688902490F1143D9
S1139D50A9708F220A404068000C0001104340069D
S1139D60400EA87001988078002806D02878697879
S1139D700906090C084301990880A688761CA8786E
S1139D80400700D0ED1C02984E308542A9D30298BA
S1139D90281A032108F066FCC0B2FEBD983A000000
S1139DA038B504000D0021000948FCF7BFF94168EB
S1139DB0B84A0A402904E023DB020B401343436002
S1139DC0200000F021FA31BDFCFF0000E012002069
S1139DD05C11002018250020F8FF00006810002006
S1139DE0FEB503B484B000250027AB480090046896
S1139DF02678062E03D1002F38D1270036E0684696
S1139E00808BA188884208D004A80CC820000830A0
S1139E1003C88B4217D1824215D16078022844D0FE
S1139E200220012E08D1B549CA7B002A04D0207033
S1139E300A78042313430B702178032901D00429E1
S1139E402ED120702CE0012E10D0052E0ED0200033
S1139E5000F056F90600002D03D0280000F050F958
S1139E6001E00FA80078B04200DA250028340098F9
S1139E7040688442BCD3002F01D03C0001E02C0098
S1139E8013D0694638200856029008A8007801903B
S1139E906846808B009004A80CC8200002F0F9FDED
S1139EA00FA801782000FFF77BFF09B0F0BD000088
S1139EB0E3120020B8480078022801D0012070473E
S1139EC00020704780B5FFF7F5FF002806D0FFF7A4
S1139ED0EEFD0120B0490870FFF7A4FD01BD10B5E7
S1139EE0AE4C0100B6204000201809F007FCB82051
S1139EF04000201801788E2904D18F2101700F2091
S1139F0003F072FD10BD0000FFFF0000F8B5AF4E76
S1139F1034682000B0304178062000F0F7FD0500D9
S1139F2052D02878F8210140297028005430B021FB
S1139F30615C017027009037B98B4180A449498F37
S1139F4081802100B031497801722100B031497912
S1139F50017669680931C1602100B031497809315D
S1139F602972017E002902D0C1680E31C160A54961
S1139F70C16101214176027A3968C06809F024FC84
S1139F80300009F0D9FB002038767876786838619B
S1139F902000B030C079002804D120009C30B9687A
S1139FA0884703E02000083003F05CFD28003830C7
S1139FB00AF035FD3068002804D00F2003F014FDAA
S1139FC08F2002E08E2000E090203071F1BDAF4878
S1139FD000788E2801D1012070470020704738B5E1
S1139FE06E4C2500F4352900A94808F0ADFF802007
S1139FF040002118801C08F0BEFF2868297B282215
S113A0005143401868602100FC31A84808F09CFFC7
S113A01082204000201809F06DFC012000F07CF83B
S113A02031BD70B55D4C2500F4352E68300000F06C
S113A030EBF8283668688642F8D3AF482862802057
S113A0400001A8610020287782204000201809F030
S113A05034FC70BD38B5104D2C682078062813D018
S113A06021002800FCF762F80168002902D0491E8B
S113A070016009D12078012801D1012100E00021EB
S113A08001222000FFF7DBF9283468688442E4D316
S113A09031BD0000FFFFF8FF5C11002010B5AE4A8F
S113A0A0002801D1106800E02830536898420BD290
S113A0B00378012B01D0052BF6D1837EDB07F3D483
S113A0C08488A142F0D010BD002010BD10B5A24A72
S113A0D0002801D1106800E02830536898420BD260
S113A0E00378012B01D0052BF6D14378022BF3D151
S113A0F08488A142F0D010BD002010BD3825002076
S113A10080B50100B548FCF711F84068010C072040
S113A110014200D0084002BDF1B58F4F3C680025D4
S113A12000262078010003D169460978002907D068
S113A1306178022904D0012802D006202070761C00
S113A14065626078022805D12078012802D12000B8
S113A15000F037FA283478688442E2D31C480100BE
S113A1604831F2B2002A03D00A78002A00D0012232
S113A1702023C35CFB241C40920022432023C254AE
S113A180360603D04D78002D00D001255106490E26
S113A190EA010A43C254F1BDE41200206810002011
S113A1A030B501006C4A1068094B0478062C06D0BF
S113A1B08588A94203D1C4889D8FAC4204D028303D
S113A1C05468A042F1D3002030BD0000D411002017
S113A1D01825002030B502000B00804D2C68207833
S113A1E0062808D02000083003C88B4203D18242DD
S113A1F001D1200030BD283468688442EFD30020A8
S113A20030BD000099CC000030B583B004002100BB
S113A2105148FBF78BFF05002078052804D16946D7
S113A2202B2008F0A8FE10E06078022803D1206AF1
S113A230FA21890007E001A9142008F09CFE684671
S113A2400079401CAF49484300900098C00A286038
S113A25037BDAD4A1278914200DD1100511AC9B2DE
S113A260884200DD0800091AC8B2401E8041C00FB0
S113A2707047B2494A7CD20705D44922895C884296
S113A28001D201207047002070470000D81100203F
S113A29001020000A9494A7C920705D44822895C3E
S113A2A0884201D201207047002070470302000059
S113A2B0F8B506000F00A14C2020255C3000FFF704
S113A2C0C8FF002802D07B20284011E03800FFF7A7
S113A2D0E1FFFB2129408500042005400D43202097
S113A2E025543000FFF7C5FF6906490EC001084335
S113A2F020216054F1BD000055A0000010B50020DD
S113A3000021364A13681C78062C09D0012C01D090
S113A310052C05D15C78022C01D1401C00E0491CBD
S113A32028335468A342EED3C9B2C0B2FFF7C0FFCA
S113A33010BD70B50C00150001002848FBF7F6FEAF
S113A34006003079010004D04008A108091840082B
S113A3500C18347130790BE05C11002070B50C00DE
S113A360150001001D48FBF7E1FE060034712000D2
S113A37000F036F87168A64A0A40C004E021890357
S113A380014011437160757170BD70B582B00021D8
S113A390002201236D462B700478012C01D0052C7A
S113A3A00FD1664C2025655D4678022E05D18022AA
S113A3B02A4320256255012203E004232B43202550
S113A3C06355062303704162002A01D000F022F98C
S113A3D06946492008F0FDFC73BD00005C110020B3
S113A3E01CB56946A44A18CA18C100216B465B5CB7
S113A3F0984203D2491CC9B20629F7D3491CC8B2F2
S113A40016BDB948704780B50100B748FBF78EFE0A
S113A410007902BD10B51400FFF7DCFE0100002036
S113A420002907D08A7ED306D80F002C02D010232F
S113A43013438B7610BD10B50100B94A1068047837
S113A440A14204D0283053689842F8D3002010BDAC
S113A450F2B506001500FFF7A3FE040003D10620A1
S113A460FFF7E9FF0400002D05D0002C03D10320E1
S113A470FFF7E1FF0400002C41D021009A48FBF7CC
S113A48055FE07000320207001256570A0783A214D
S113A49001400A200843A070E11C162008F06BFD5F
S113A4A0A680A11D172008F066FD0098002801D0A1
S113A4B003C800E000212200083203C22100103149
S113A4C00C2008F058FD25761C4D287C6076A07E73
S113A4D007210143A1762000FFF796FE0022FF2109
S113A4E02000FFF73BFF7868BB49014079600026F4
S113A4F0A6835620285C00F03BF8206266622000A8
S113A500F2BD0000983A00006811002010B5010067
S113A510834A10680378062B09D04478022C06D1AC
S113A520012B01D0052B02D18488A14204D028300C
S113A53053689842EED3002010BD00001825002077
S113A54010B503C8FFF746FE04000FD02078052895
S113A5500CD1012020706078022802D1200000F084
S113A56030F82000FFF750FE012010BD002010BD80
S113A57001003C200A0001D10A2070470F2903DAA8
S113A580012088403C214843704738B50400002529
S113A59069460D7000F069F8C0496A461278D20025
S113A5A089180A880240824209D1486800E0406A5A
S113A5B0002804D08188A142F9D1012032BD0020B5
S113A5C032BD10B582B00400002069460870A0882E
S113A5D000F04BF8B1496A461278D20089180A880B
S113A5E0104308804868626A002A01D1844201D17C
S113A5F0002803D160624C6013BD0800416A002941
S113A60001D0A142F9D1002901D100F003F813BD12
S113A610FFFFC7FF70B582B0334E346800200021BD
S113A6206A4611709D4DCA00AA1810805060491CDA
S113A6301029F8D32078012801D0052810D160789A
S113A64002280DD16946A08800F00FF86946097800
S113A650C90069180A8810430880486860624C6021
S113A660283470688442E5D373BDC04A424312045F
S113A670120F0A70704700007C0D0300F8B5050046
S113A680A74C207800072ED5C020800027183878E2
S113A690662828D103CD083DFFF79CFD060022D093
S113A6A0307801281FD13000FFF7AEFD31002000C3
S113A6B0F430FBF73BFD817940220A43827101208B
S113A6C0AB49605403CD3A00183203C2B0883884D1
S113A6D0C148C92189006050C4208000201808F0B6
S113A6E0DDFD6C203870F1BD5C1100206620BB4993
S113A6F00870704710B58A4C01000831C1208000F1
S113A700201808F0FBFFC02080002018017866297B
S113A71004D167210170122003F066F910BD000016
S113A7205C110020F0B583B07D4CC020800025185A
S113A7306E68083E001D201808F0FEFF307BC4211F
S113A740890061180191C8218900611800916F2165
S113A750A34A68230E4F2478E40601D5042801D0C7
S113A76006280DD1307E3872AE602B70AA6229762D
S113A7700099062008F0FFFB019808F0C2FDF7BD20
S113A780C2202B2170543000203071698847F7BDF6
S113A7901825002080B56249C02292008A18936867
S113A7A01B7B0079062B13D0042B0ED103000CD194
S113A7B06A2010708A48906245201076BB48106267
S113A7C0C4208000081800F020FCEA2800D1CA2028
S113A7D000F0A8F801BD0000FFFFF8FF70B501000C
S113A7E00878020002D000F09DF870BDB04A107ADB
S113A7F0C3084B48C024A4000419C825AD0045195A
S113A800C426B600801900264978452919D046295E
S113A8101BD0522921D06F2927D16921217003210E
S113A8202973A168096B6960A1683423C95C6973E1
S113A8303721515CA973EE73B249A96008F05EFD3B
S113A84070BD462121760F2103E052212176D907DC
S113A850C90F297008F055FD70BDD90700D5AA4E5F
S113A860A661C249E16108F046FD70BD80B500787B
S113A87001000FD12A48C021890041186B220A70B7
S113A880BB4ACA6153220A76C4218900401808F0E1
S113A89008FD01BD00F046F801BD000070790020FC
S113A8A0F8B501780A0003D0080000F03BF8F1BDC8
S113A8B07F490E0038361A4CC4229200A718083279
S113A8C0A51842784B2A07D0502A09D0532A13D10D
S113A8D0008970804B200AE000890880502006E03F
S113A8E00089B0803C31172008F06CFB00202870F0
S113A8F0380008F0D6FCF1BD002A10D1007A30707F
S113A9003100162008F05EFBFDF73CFBBD202070F3
S113A910002000F007F83178242008F05AFAF1BD3D
S113A9206810002070B502002C4CB24D2878A16844
S113A9302A23C854A668330020332800083003C8EB
S113A94003C3083B68881881DA7218007169884764
S113A9500020A0606068002804D0672020701220C6
S113A960FEF743FA6620207070BD0000DDBF0000D2
S113A9702203000070B5C24C2078C00628D5D02030
S113A98080002618706818213170494D007C2872A7
S113A99029003C31172008F0EEFA2900383116203E
S113A9A008F0E9FAFDF7A4FAFDF7ECFAB5483062CD
S113A9B04520307428001E30B061D2208000201859
S113A9C008F09FFC3820295C242008F002FA70BDAE
S113A9D0C22000F06FF870BDEDA6000068130020DF
S113A9E0DDA70000F8B501780A0003D0080000F0E4
S113A9F061F8F1BD2E490A7AD208A14BD224A400F1
S113AA001C190D003835D426B6009E19002740784D
S113AA1045280CD046280ED04B2822D0502825D0CB
S113AA2052280DD053280FD06F2816D025E0462089
S113AA3030700F201CE052203070D007C00F17E098
S113AA405320307068880FE06F203070D62080006B
S113AA501918062008F08FFA0BE04B203070088894
S113AA6002E050203070A888308102E037702878E6
S113AA703072200008F045FCF1BD3078002808D180
S113AA80D00700D5204F376090487060200008F050
S113AA9032FCF1BD80B50078010003D1BD207849B6
S113AAA00870002000F006F801BD000036250020E3
S113AAB01825002070B504007148D021890045187C
S113AAC06E68083E091D401808F036FE3200203238
S113AAD0484B187890721800083003C803C2083A2B
S113AAE058881081D47210007169884768680028FA
S113AAF004D0172028701320FEF777F91620287049
S113AB0070BD000095A70000FFFFFF0080B5752908
S113AB1001D3002002BD00F032F8002804D0010067
S113AB200C3184228150803002BD80B523E080B591
S113AB3000F025F8002817D001001A319C2281501A
S113AB400100BC3100228A600A71CA600A610A707D
S113AB504A708021490041188A79FD2313408B7182
S113AB60A94A528F0A80803002BD00006DA80000FF
S113AB70A1A8000080B5803800F03EF801BDFEB504
S113AB800400BA4807790068A021490079434118B4
S113AB900022002600256B461A7005E0944200D17D
S113ABA06D1CA02252008018884204D2027813003F
S113ABB0F4D10600F5E7002E0DD001A9FF203230B4
S113ABC008F0D9F901A80019401E0078EDB2062F4B
S113ABD009D285420BDB012069460870462008F043
S113ABE0F8F80020FEBD784380108542F3DA347013
S113ABF03000FEBD5025002010B50400B83000F030
S113AC00F2F8002020701E4CAC2252002118895CFE
S113AC10002904D1401CC0B2142804D2F6E7FBF783
S113AC20F5FE002818D1A9208000205C1A2802D142
S113AC30052002F0D9FEB8204000201801789029A0
S113AC4004D1912101700F2002F0CEFE606F002824
S113AC5002D0152002F0C8FE10BD10B5010008484E
S113AC60426F002A01D1012400E00024743008F06E
S113AC7045FD002C02D0152002F0B6FE10BD0000E8
S113AC8068100020E5A9000038B50720FFF777FF1A
S113AC9004001AD0B04D2800743008F04DFD0100B6
S113ACA00879FF223232A05420002330213AA050E8
S113ACB020008030C86008000C3089688847686FBD
S113ACC0002802D0152002F08FFE31BD95AA0000A5
S113ACD080B58038FFF790FF01BD1CB50400080063
S113ACE02200243211786B4619715168127C0123B9
S113ACF04340134308D120009538009068460279F8
S113AD0000980DF0ADFF00E000910098A065684642
S113AD10007979216054383C200016BDFAB583B01F
S113AD2004001500002000F040F800908A48B42187
S113AD3089004118019169460978019A1279914272
S113AD4031D20700F4373E683078062809D070788D
S113AD50022806D0B08869468989814201D085429B
S113AD6009D131003800FBF7E1F9C1796A4652781C
S113AD709143C17108E031003800FBF7D7F9C1797C
S113AD806A4652780A43C271283678688642DBD311
S113AD900198006869460978C900401804608580F4
S113ADA06946097C817105B0F0BD81B0AF4909687D
S113ADB00091AF4908E06A466B461B785B1C137030
S113ADC0527852006B465A706A4612780B799A424E
S113ADD006D20A686B461B78DB00D2589042EAD14F
S113ADE0009801B0704780B5FFF7DFFF0090A048DE
S113ADF0694609780279914205D2002100686A46C1
S113AE001278D200815001BD18250020F1B582B01E
S113AE10B74F3C68002500266946242008F0ABF8AB
S113AE20207806280DD021003800FBF77FF9C0797F
S113AE3002A94978084200D1761C6078022800D023
S113AE406D1C283478688442EAD3E8B200280CD018
S113AE5069460978884201D2EDB200E00D46F6B2A7
S113AE60AE4201DA0020FEBD0120FEBDD410002058
S113AE70F1B582B0A34800680090B54CB4208000BE
S113AE80261808E068466B461B785B1C0370407804
S113AE9040006B46587068460078337998423FD238
S113AEA068460078C500306840190368002BE9D073
S113AEB08779BA42E6D180888142E3D16846008925
S113AEC0FFF76EF900282BD001002000F430FBF7C7
S113AED02DF9C1796A4652789143C1710098FFF700
S113AEE095FF00281CD0306845592900200068309F
S113AEF008F029FC002813D0200050308169002973
S113AF0000D0012101700078002803D120005430C2
S113AF1008F0F0FC0320E8710321280002F0F5FF9B
S113AF20F7BD38B58A4C010085208000201808F050
S113AF30E5FB8420800025182878482806D04A2874
S113AF4009D18E208000201808F0D4FC5D202870E0
S113AF50072002F049FD31BD6810002070B582B0B1
S113AF607B488421890044182178C2255D2912D1A7
S113AF7061680278D2070AD5602020700979002917
S113AF8000D00121734A200000F039F873BD0D731D
S113AF905E21217001E05E2930D1852189004018AD
S113AFA008F0CAFB06006068002806D035735D20EF
S113AFB02070072002F018FD1CE0317948250A00B2
S113AFC002D0FF2902D010E0FF2912D16946952052
S113AFD0400007F0D0FF68460078012802D1B42170
S113AFE0890102E0022804D1FE21200000F042F889
S113AFF000E0257030000C30B168884773BD80B51F
S113B0000262412202740176083008F07AF901BD27
S113B01070B50400504E75680C3801782A2007F08A
S113B020D8FE3078602806D1207828735E203070EE
S113B0300720FDF7DAFE002D01D05D20F7E7482058
S113B040307070BD80B544485F210170414A0021D1
S113B050FFF7D5FF01BD40480078482801D04A28B1
S113B06001D101207047002070470000D40D030077
S113B0703813002010B50400FA20800041432163F6
S113B0802000283008F019FC4A20207010BD38B583
S113B09004002F4DED2080002918252007F040FEE4
S113B0A0F22080002918372007F03AFE2B480EF0D2
S113B0B06DF821002800143008F020FB287C1928A2
S113B0C004D1002002F090FCC120287431BD10B5D9
S113B0D01F4C28212000103008F0C6F919202074D4
S113B0E0002060618020207002F0B2FC10BD0000DE
S113B0F05C1100201648007C192801D101207047FA
S113B10000207047D80D030010B5114C207CC228D4
S113B1100FD12000143008F00FFB010008304968FB
S113B12088476069002802D0C120207403E01920F8
S113B1300BE0C1280AD1012020216054CF4860626D
S113B1402000183008F0B0F8C320207410BD0000AF
S113B1506810002011B00000781200208BA50000B8
S113B160F0B587B0E64D280038300090002404760E
S113B1702800543008F0BEFB2E00603634702020C6
S113B18000994862BE487060B460082002F037FC41
S113B190009884600098046141200099087580201B
S113B1A0C00102F02CFC290070318420400007F01B
S113B1B0E2FE29006C31D34807F0C6FE002006E009
S113B1C0F268C0B2A0235B004343D454401C327CD9
S113B1D0C1B29142F4D374618020800302F00FFC69
S113B1E08020800028180490DA2004990870923096
S113B1F02F18FC618020C00002F001FC3C627C62DC
S113B20004994C70CA204000281808F073FBB7203A
S113B2103873BC608020800002F0F1FB7C73D62080
S113B22000990871009804608020400002F0E7FB58
S113B2309A2038753C61402002F0E1FB7C75009453
S113B24069460C7505A9FF200E3007F094FE694687
S113B2508320800007F078FE2800C0300390009817
S113B260039908626846007D7F2802DA6846017DFA
S113B27000E07F212800E4300170002106E0039AF9
S113B280126ACB00D218D4705460491C02789142DF
S113B290F5DB44702800C83008F000F94821280084
S113B2A0783008F0E1F8E620B9216854B461B5209B
S113B2B080002818019031200199087101994C717E
S113B2C0019884609F480199486202200199087599
S113B2D0FBF7A6F9AB20800029188520400007F071
S113B2E04AFEAA20800029189F3807F02DFE9C20D2
S113B2F0800028180090808FC100091A0098806B84
S113B30008F0B0F8012690496E5400F0F6FA00985F
S113B3100461102002F073FB07F0AAFD8B4908704A
S113B32000990C7506A98A20400007F024FE0099B4
S113B3300C73FEF7BCFB00990C739920800028184D
S113B34008F0D8FA912080002818029007F090FDA8
S113B35080B2C24907F089F9C048081802994861C7
S113B36002990E76C2480299C861069802998862C9
S113B37000990E70BF480099486000998C7200993A
S113B3800C818E208000281808F0B4FA4021842013
S113B3908000281808F068F8482004990874049874
S113B3A04461802002F02BFB02980670B248029997
S113B3B04860FDF728F91320039908710398046085
S113B3C0700302F01CFBAC2080002E18782030772C
S113B3D034607477C248B06040218C204000281843
S113B3E008F042F8AA20A92149006854042002F078
S113B3F006FB1421AC204000281808F035F83C6006
S113B4008E2038718020000202F0F9FAC0208000FA
S113B41028184460662101708020C00202F0EFFA0F
S113B420D020800028184460162101708020000379
S113B43002F0E5FAB42080002918AF3807F084FD43
S113B44001998B20400007F096FD019800780828A8
S113B45000D3082001990870002004E0316AC0B2CA
S113B460C2008C50401C019A1278C1B29142F5D3AB
S113B47002F0EEFF03F0E6F807B0F0BD85B400007B
S113B480D5E10000F8B507781D4C380030D1A64D41
S113B490A648288028002E3000900078002800D08C
S113B4A00120FCF79FFD0126002700980078022860
S113B4B001D1002000E001200099C8840320562116
S113B4C068546F806F6007F0D3FCA8722F82AE744B
S113B4D001F000FFFEF783FDFCF70AFDFCF752FDC7
S113B4E0FFF73EFEFCF7E6FC02F0B2FA36202070CD
S113B4F060690772002002F077FAC2202074F1BD5F
S113B500681000200602000010B50C0002F07DF85F
S113B5102178012242400A40227010BD80B50021EA
S113B5200279002A03D10174AE49C18002E0D0221D
S113B53002744174AC4941820100AC4808F0DEF861
S113B540042002E14BD90000AE0200004525002092
S113B550F8B5A74DA02080002818009008F0ECF85A
S113B56004002878C0076AD56F4E708FE188009A6E
S113B570D2691378002B05D01589A94202D1958888
S113B580A84259D01832009B1B6A9A42F1D3012079
S113B59000F074F805004FD0207969789F220A40A2
S113B5A041016020084010436870617AEF22024034
S113B5B0080110436870FF20E870708FA880E0884D
S113B5C0288100980079010005D00F2803D2401C7F
S113B5D0009908710EE02D20305C401C0121020608
S113B5E000D101202D22B05400980171B15C2620B5
S113B5F007F0EFFB2D20305C401E00010099097913
S113B6000143A972207AE87200272F73B07A401C94
S113B610B07268732C610121280000F076F89E490D
S113B6200888424A904200D10F800888401C088054
S113B630452007F0CEFB08E00420607401E0C2203E
S113B640207420001030E1688847009800680028C2
S113B65002D0042002F0C8F9F1BD00004C1D000026
S113B66062480068002801D101207047002070471B
S113B670259A0000379A000045B00000F8B5040090
S113B6805B49A72080000A18156800202E7837002F
S113B6900ED06F783F0705D4002802D00778BE4249
S113B6A000D2280018355668B542EFD3002501E0D2
S113B6B0002D05D1002811D0050000F0B8F809E0EC
S113B6C0507A002806D101205072A2208000081868
S113B6D008F0F3F82100280000F000F92800F2BD7A
S113B6E081D8000030B502009F4B18680478002C04
S113B6F005D0857AA94202D18588AA4204D018309F
S113B7005C68A042F2D3002030BD4278FD23134090
S113B7104900194301220A434270944801780029E0
S113B72000D0704780B50DE018250020FFFF000011
S113B730417804220A4342708C480178002900D0E1
S113B740704780B593210170052002F04DF901BDC9
S113B750F8B5854C25681A202072854F854E2878C7
S113B760002837D06878C10724D54109890705D155
S113B770800701D50C2006E00E2004E0800701D5E7
S113B7800B2000E00D202A00310000F033F8697826
S113B790FE220A4010436870C0070BD529690029AE
S113B7A005D00420487408001030C9688847002078
S113B7B02870F1BD687840070CD52A0039000A20AA
S113B7C000F018F86978FB220A4080001043687082
S113B7D0400705D4183560688542C0D30020207224
S113B7E0F1BD0000FCFF0000FEFF0000E812002095
S113B7F068100020F8B504000F0016000120FFF7C0
S113B80096F9050011D002F0A1F931002800B847DB
S113B81085202C5475616E60280002F027FD01001C
S113B820280002F028FA0020F2BD0120F2BD38B54C
S113B83004002169002500290AD06069002803D08A
S113B8404268944200D1456008001030C9688847B6
S113B850257031BD70B5CE4CA720800025182E6808
S113B860002068723078010009D0401E3070000654
S113B87003D13000FFF7DBFF01E0012068721836C6
S113B88068688642EED3687A002804D1A22080003A
S113B890201808F02FF870BDB87F00204368002BF3
S113B8A000D1704710B51A69002A0DD05C69844232
S113B8B00AD100200C0008D0142454741870117498
S113B8C010001030D168884710BD1479002CFBD1CA
S113B8D018615878F72404405C70F0E738B5040028
S113B8E00D00182107F0C0FD6078F7210140E80041
S113B8F0084360702720207031BD70B582B069465E
S113B9008620400007F037FBA14CA72080002118B7
S113B910913807F019FBA42080002518E8686946CF
S113B9200978182251434018286168460178182084
S113B9304143E86807F098FD00262E75202002F0A8
S113B9405EF86E75A2208000201807F0D3FF2E71D8
S113B9509048A86080204000286073BD03480178A7
S113B960481E8041C00F7047041300200C130020B0
S113B970D9BA00003BBF0000401880B2FE2800D3B3
S113B980FE20C0B2704781428041C00F7047F6B5B7
S113B99083B01569507D082800D29AE06A7801279F
S113B9A0130901211940520901231340CE18F6B29C
S113B9B0F2000832904275D300291AD0E878297928
S113B9C00906090C0843C049498F814211D107F087
S113B9D05EF904002800083007F0D0FE6A4603C26E
S113B9E0684603C802000B0003CC8B4271D182422B
S113B9F06FD1E87829790906090C0843A978FFF77B
S113BA0071FE040065D0E979E078FFF7BCFF0028F7
S113BA105FD0E879E0706878400938420FD0701E32
S113BA200006400D2818083007F0A8FE02000B009D
S113BA306879A9790906090C0843FAF71DFE00265E
S113BA4060784006800F012801D1012100E0002127
S113BA50E3780498C28A208900F09AFCE87829796E
S113BA600906090C08439849498F81421BD068781C
S113BA70000938420DD02800083007F07FFEEE7828
S113BA802A791206120C164302000B003000FAF752
S113BA90F3FD03988079022800D3471E2773200002
S113BAA0FFF746FE15E02169002903D00E740498BF
S113BAB0C08A48828448807C00280AD0002903D0A8
S113BAC008001030C968884726616078F721014072
S113BAD06170002005B0F0BDF0B583B005000F0023
S113BAE00020694608707878F72101407970F88859
S113BAF01C35A8810126AE752C68FAF715FE019055
S113BB002000FCF7A3F82078FC2101400E432670A6
S113BB10387BA0716C48408F2071000A6071A8893D
S113BB20A070000AE07061781020084360700199E9
S113BB30002915D008210143617007F0A8F82200FC
S113BB40103203C807F030FE22000832019803C8FF
S113BB5007F02AFE6846007808306946087006E057
S113BB6007F095F82200083203C807F01DFE684666
S113BB7000781030694608706A46286809784118C8
S113BB80380000F009F8684600782875F7BD000011
S113BB906810002055B80000F5B583B00C000020F3
S113BBA000276278F02111406170039A527852069E
S113BBB0920F012A00D10120BF220A4080011043C4
S113BBC04006400E6070022020700398807AA070B6
S113BBD003988088E070000A2071039800896071DE
S113BBE0000AA071072507260398C088FEF7D8FA33
S113BBF00090002826D085480190854800780028C8
S113BC000099019818D0FAF791FA06000098FEF707
S113BC1077FA7168C90C2940814203DA0098FEF76B
S113BC206FFA07E000990198FAF780FA4068C00CAF
S113BC3005402800060005E0FAF778FA4068C00CD1
S113BC4005402E0031000398C078FFF795FEE0719F
S113BC50E07821790906090C0843FAF765FD002804
S113BC600AD0617810220A4362702200083203C8A5
S113BC7007F09AFD012703E06078EF21014061702D
S113BC806178DF20084060708009C00713D46079B0
S113BC90A1790906090C0843FAF746FD00280AD0E1
S113BCA0617820220A436270F9006218083203C8DE
S113BCB007F07AFD7F1C04980078F90008314018D9
S113BCC00499087005B0F0BD18250020F8B50E00E1
S113BCD015002F69687D06283DD3BA4800780228EC
S113BCE039D001247078000920420FD0287D102813
S113BCF031D33000083007F041FD02000B003079E9
S113BD0071790906090C0843FAF7B6FC78788109B9
S113BD10214222D1C00880071DD1F878397909065B
S113BD20090C0843A849884215D278784009204272
S113BD300FD0687D0E280ED3B81D07F01FFDFC78C8
S113BD403A791206120C144302000B002000FAF791
S113BD5093FC022302E00020F2BD01233A002900F3
S113BD60300000F001F8F2BDFCB583B005000F000F
S113BD700024012B01D1012100E00021D0781379A6
S113BD801B061B0C1843914A0192002910D15289B9
S113BD9090420BD0FEF704FA00280ED00178012956
S113BDA001D0052909D14078022806D1012407E0F1
S113BDB0FF21FCF743F8040002D1A879022821DB13
S113BDC000946846037C039A3900280000F022F8A6
S113BDD0060017D001980078002809D028796979DD
S113BDE00906090C0843B378FA8A002100F0D0FA56
S113BDF0002C03D03000FFF79BFC03E0002130004F
S113BE00FFF783FC002005B0F0BD00005C110020AA
S113BE1048250020FFB581B0087EFEF7E1FA050051
S113BE206A4F3878002821D00298C08AFEF7B8F902
S113BE3004001BD0664800902100FAF777F9060049
S113BE402000FEF75DF907257168C90C294081427D
S113BE5003DA2000FEF754F907E021000098FAF70E
S113BE6065F94068C00C054028000500B9798D4289
S113BE7061D2290003984079FFF77EFD05000199FE
S113BE8008794A791206120C104303998978FFF74E
S113BE9029FC040039D10A9E3000FFF7EFFB0400AF
S113BEA049D061789F2008406946097C4901602295
S113BEB00A40024362700399C8780A791206120C88
S113BEC010432081019908794A791206120C104313
S113BED0A08003988078A07201988079401EE07257
S113BEE00198C0796073002E04D00020E070FBF745
S113BEF023FF02E0FF20E07001202073A570029868
S113BF00C08AE080200005B0F0BD6846007C6178FE
S113BF104906890F88420ED10399C8780A79120616
S113BF20120C10432189884205D12900A078FFF71B
S113BF302AFD0028E2D10020E5E770B582B00D00AB
S113BF4000216A46117004001C34A948A0812668A7
S113BF503000FBF77BFE3078FC21014001200843D0
S113BF603070A448B070FF20F070E87AB071687B3C
S113BF70F071A8883071000A7071A888FAF7D4FBB0
S113BF8000280DD0717810220A43727032000832F2
S113BF9003C807F009FC6846007808306946087051
S113BFA0684600780830694608706A4629002068A7
S113BFB06B461B78C01800F00DF8684600782075B1
S113BFC073BD000046250020F8FF0000482500202E
S113BFD05C110020F8B504000D001600012020704B
S113BFE0402261781140617003206B785B0903275C
S113BFF01F40012F01D162701CE000226270697839
S113C0004B09034206D1C90601D5102100E00821DD
S113C01061700FE02889FAF787FB00280AD061785D
S113C02020220A436270A21D03C807F0BDFB3078CA
S113C03008303070A87AA0702889E070000A207156
S113C040A87860713078801D3070F1BDF6B583B08A
S113C05004001F0000266848006800900C98694698
S113C0604870B2480B990880644801002E31019150
S113C0700125097802290CD101880B9A118003212A
S113C0806A4611703F0633D10088A4B284422FD18E
S113C09046E0380622D00A98002823D1F9B2A0B28B
S113C0A000F057F9002856D08278C1780906090CA7
S113C0B00A4369460A8109890B9A118081796A4683
S113C0C091700079420732D56A469289019B9B8917
S113C0D09A4228D1000726D4072029E0A4B2AB480D
S113C0E0844206D342480B990880082069460870A8
S113C0F07AE02000FEF754F80600CFD0B07EC007E7
S113C10003D40B980480022008E03078052802D07C
S113C11070780228C2D10B98048004206946087004
S113C1206846457060E00A206946087013E00620FE
S113C1306A4610703F0607D168460089A4B284425B
S113C14002D169464D7006E068464078884200D3C3
S113C150080069464870002E33D0684600780028ED
S113C16003D06846007806282FD1AC4F3100380040
S113C170F9F7DCFF04003000FDF7C2FF61688902B3
S113C180490F814203DA3000FDF7BAFF06E03100BF
S113C1903800F9F7CBFF40688002400F0199C97954
S113C1A06A469278914200D31100884209D2042150
S113C1B06A461170557069468870B0880B9908807A
S113C1C003E06846007800280ED00B980088694682
S113C1D08989814203D06946098A814204D153483E
S113C1E00B99088068460570009805B0F0BD000002
S113C1F0FFFF0000FCFF0000DC0D030018250020F9
S113C20070B50D00C46906008036B078401E73D046
S113C210801E05D0C01E012811D9001F0FD070BD8B
S113C220E12DFCD0002D01D1132100E00921A078DB
S113C230E2781206120C1043F9F770FF70BD6278B1
S113C240A078E1780906090C0843D107C90F00F06A
S113C25080F800282BD041797D4A002D12D1FF2986
S113C2600DD114682079C00703D560794008401CBB
S113C2706071E41D00F05CF88442F3D370BD491C86
S113C280417170BD0B000BD093790A00DA4000D1E4
S113C2900122891A4171CAB2002A02D0012200E0A7
S113C2A000220179FE230B401A43027101E0002DA4
S113C2B03AD0217962791206120C1143654A528FE1
S113C2C08A4231D0217889072ED1002802D0007902
S113C2D0C00729D4B078062826D1A178E0780006D2
S113C2E0000C0143207962791206120C10430023DA
S113C2F0328801F0ABFA70BDA178E0780006000C3A
S113C3000143207962791206120C1043002332880B
S113C31001F09CFA6278A078E1780906090C0843D8
S113C320D107C90F00F00BF870BD0000FEFF00003C
S113C330474801688088C200101A0818704780B501
S113C34000F007F8002803D00179FE220A400271A8
S113C35001BD70B505000C003D4806683079C10781
S113C3600CD5C006C20F944208D130787178090602
S113C370090C0843854201D1300070BDF61DFFF75A
S113C380D7FF8642EAD3002070BD0000F8FF00000A
S113C390FFB581B068468088FFF7DBFF814F012439
S113C3A0002808D081796A46127C914233D3B97946
S113C3B08C40447127E000253E683079C00701D4E1
S113C3C035000BE0002D03D070796979884200D2E2
S113C3D03500F61DFFF7ACFF8642EED32879012124
S113C3E001432971B87984406C71280069468988B1
S113C3F00170090A41700179E1220A406946097A0B
S113C400090111430171694689898170090AC17062
S113C4106946097C817105B0F0BD00005C11002003
S113C42080B5FFF78CFF01BD10B55E490A6800288E
S113C43001D1100000E0C01D8B88DC00E31AD31882
S113C440984203D20379DB07F5D510BD002010BD57
S113C4501013002018250020F0B58FB00400656A81
S113C460287881080F220F230B40032B06D178482C
S113C4700168080001D02000884790E02023E35C95
S113C480022BFAD3734E02960A4031788A4207D1BE
S113C490032703210140032903D1200009F056FF9B
S113C4A07DE0207802287AD1207C022877D1082BDD
S113C4B075D3A879002872D0287969790906090CFE
S113C4C00843B24988426AD22978032008400126E9
S113C4D0010004D1AE480078C00709D45FE0012808
S113C4E05DD1687830425AD1A9480078800656D583
S113C4F020002830022141560191007800902389C0
S113C5002020225C290004A800F057FC2020205C95
S113C51004A9097D884242D36878400830421DD17D
S113C520287838421AD000A9491C282006F023FD97
S113C53068464078002811D00298007E00280DD06B
S113C54008980078062801D0072828D169462E20AB
S113C55006F011FD68460078002820D004A92800C0
S113C56000F043FD00281AD06878304205D004AAB0
S113C5702900200000F018F811E0A878E9780906ED
S113C580090C08438149884204AA04D329002000E5
S113C59000F062F803E02900200000F0FBF80FB07F
S113C5A0F0BD000010130020F1B582B00C0017009C
S113C5B0AC4E307AC008C00748D5A078E1780906A7
S113C5C0090C0843FF21FBF739FC0500B868007823
S113C5D08007800F14D1002D14D1207961790906C8
S113C5E0090C0843718F814201D015222AE0A078FA
S113C5F0E1780906090C08430121FFF7A0FEF7BD05
S113C600012823D1207961790906090C0843E179CD
S113C610FAF7A8F8012801D0032817D1002D0AD071
S113C620200000F0CDFC009017233A00210002986E
S113C63000F01AF9F7BDB8680078C006400F022868
S113C64004D317222100029800F070FAF7BD00000D
S113C650907F00204B250020F0B585B007000C002A
S113C6601600A078E1780906090C0843F9F7E3FD00
S113C670002856D020788007800F01285CD02079CC
S113C68061790906090C0843E179FAF76BF80500AA
S113C690012D51D0032D4FD0B3480078022815D175
S113C6A060780009C0073DD506F0F1FA019002AAAE
S113C6B00092706807F062F8009A03C202A80CC8DE
S113C6C0019803C88B4201D182422BD0684622795B
S113C6D061790906090C0A434280E179017000205E
S113C6E0A24911E00A68C300D218D378002B09D0FC
S113C6F013886E467688B34204D192786B461B78D1
S113C7009A420FD0401CC0B24A798242EADA022D22
S113C71008D0207961790906090C08430121F9F749
S113C720F7FD30E0217960790006000C0143E279DD
S113C7303889FEF79DFB26E0207961790906090C0A
S113C74008433989884214D0207961790906090C93
S113C7500843FDF725FD00280BD04178022908D1B4
S113C7600178012901D0052903D100220021FCF719
S113C77066FE200000F024FC009016233200210005
S113C780380000F071F805B0F0BD0000F8FF0000BB
S113C79068100020F7B507000C002078800701D14D
S113C7A0152500E01425207961790906090C084350
S113C7B03989884214D0207961790906090C084323
S113C7C0FDF7EEFC00280BD04178022908D101784E
S113C7D0012901D0052903D100220021FCF72FFEF5
S113C7E0A078E1780906090C08431E494A8F904253
S113C7F020D102980068002813D006F048FA0600F9
S113C8006A4600920298006806F0B8FF6A4603C2BE
S113C810684603C802000B0003CE8B4220D182423B
S113C8201ED1002000902B00029A2100380000F055
S113C8301BF8F7BD207962791206120C1043498F58
S113C840814205D02A002100380000F06FF9F7BDBD
S113C850A078E1780906090C08430021FFF76FFD71
S113C860F7BD000018250020FCB583B006000D00BC
S113C8702878032703210140012920D16878400842
S113C880C00718D4A848007880070BD428796979A0
S113C8900906090C0843D18A884203D111462800AD
S113C8A000F066F80AA80478039A29001069FAF7D8
S113C8B05BF8044255D02020315C032004E0384268
S113C8C006D12020315C0420FEF720F9040008D1B1
S113C8D0287969790906090C0843E979FAF71AF8FD
S113C8E03FE0012001900AA8007800906846037C8C
S113C8F02A003100200000F055F92A7968790006F1
S113C900000C0243EB7931892078C008162806D13F
S113C910A879022803D320003830FEF7FFF92078E5
S113C920800703D5200000F059FA1AE07E48007809
S113C93080070CD4287969790906090C08430399FE
S113C940C98A884203D10399280000F011F8287895
S113C950384203D1200000F069F902E0200000F021
S113C960A6F905B0F0BD00004625002048110020BE
S113C970F2B586B0040000200390C4480090056816
S113C9800126287806281FD10398002800D1039592
S113C9902835009840688542F3D30398002876D060
S113C9A060780009304258D1207961790906090C70
S113C9B0084306991922895602910699097E019124
S113C9C00090002200235BE0207961790906090CBC
S113C9D00843A988884226D1687802280CD0287890
S113C9E0012809D1AA48C17B002905D00321297057
S113C9F0017804220A43027060780009304246D06C
S113CA002800083003C8002941D100283FD16C46D2
S113CA100698406806F0B2FE03C4684603C82A00BC
S113CA20083203C233E0607800093042B0D004AF6A
S113CA300698406806F0A2FE03C7280008300CC818
S113CA4004A803C88B42A3D18242A1D12079617981
S113CA500906090C0843A88019E0257960790006C5
S113CA60000C05430698406806F088FE069A1923D0
S113CA70D2560292069A127E0192009502000B0091
S113CA80039800F006F800210398FDF789F907B030
S113CA90F0BDF8B50CB482B00400002269460A70F7
S113CAA0022020707B490B00093301260A980500F7
S113CAB002D10025657004E066701D782F0000D156
S113CAC001252576A7783A253D400A272F43A770EC
S113CAD00D0038352978E170A080A888E08002A88C
S113CAE003C82700083703C72800083003C82700F5
S113CAF0103703C7D8796076A07E07210143A17659
S113CB00A283A87FFDF734FD2062694630200A56CF
S113CB100B992000FDF722FC684606706946482000
S113CB2006F057F905B0F0BD68100020F0B583B0E9
S113CB3006000D001700280000F042FA002830D04B
S113CB40A878E9780906090C0843FDF7DFFC0028FA
S113CB5003D02020315C022002E02020315C05203B
S113CB60FDF7D4FF040014D00020019001200090B0
S113CB703B002A003100200000F014F820788007E0
S113CB8003D5200000F02AF9F7BD200000F08FF84B
S113CB90F7BD287969790906090C0843E979F9F799
S113CBA0B9FEF7BDF0B583B005000C0017001E00F8
S113CBB020000830017E2972686822000832D26998
S113CBC0824207D25118884204D2B848B849088032
S113CBD006F097F82A7A20000830C169686806F0E0
S113CBE0F3FD200028300221415601910078009085
S113CBF023892A7A69682800103000F0DEF8089842
S113CC002978FE220A401043287079784908FD22C9
S113CC100240480010434007400FF1000143FB204D
S113CC2008400999890001432970F7BD38B5011DF1
S113CC300A680300543301245578254200D10224A4
S113CC401C709478D5782D062D0C2C435C801479B7
S113CC5055792D062D0C2C439C8004002634258800
S113CC60DD802525455D1D72C969D960A1781974D7
S113CC70E178597451788907CA0F1A76CF49D96176
S113CC8000215976383007F0CAFE31BD5C1100200E
S113CC90382500201825002080B574380178C9078C
S113CCA002D500F004F801BDFDF73FFF01BDF0B56A
S113CCB083B0040061688879401E88712278002658
S113CCC0D30704D5C3B2002B02D0012300E0002314
S113CCD0FE20104003432370D8076AD50127487803
S113CCE0384235D08878CA781206120C1043E325EE
S113CCF0FF21FBF7A3F80028A06900900DD000786D
S113CD00FC2101400F4300980770A06901784A098B
S113CD100D409100294301701AE001788807800FC3
S113CD20012815D107208A0807231340072B06D2B0
S113CD300D40091F1C220A402A4300990A70A16968
S113CD4009788908014203D12078FE21014021702D
S113CD502078C0072DD5207A694648716068009014
S113CD602078C0080871E08CC88000984178DF22E0
S113CD700A404270200080306946097941712100DF
S113CD801C316A4652790A75009A0A606946C98854
S113CD90018021003C318E600E71CE600E610E70F8
S113CDA04E708179FD220A408271200000F05AFE03
S113CDB0F7BD2000FDF7B9FEF7BD70B5040008000B
S113CDC016001D002100FAF781FF207D301A6075DE
S113CDD0E582049820760598607670BDF0B58BB036
S113CDE00600371D386804903500243504AC2878D3
S113CDF0207104A80CF000FB0699009100294FD083
S113CE00079900294CD03A792B781818824247DBCD
S113CE10080006F0B3FC02AA03C200980CF0FAFA68
S113CE2001900021C94388422FD06A4602A9607943
S113CE30FBF76EF9012828D00098002803D08068F9
S113CE400199884221D2607900F05DFA34003034CF
S113CE502061002824D0B04800782075079806F097
S113CE608DFC03C4083CA4613868E0613000503094
S113CE702978017039794170A84941600021817095
S113CE80300038300CF0B0FA0DE0607900F03BFA75
S113CE90002801D1162100E011216888F9F73EF934
S113CEA03000FDF742FE0BB0F0BD0000A7310000DA
S113CEB0CC7E0020F0B585B004002500583D2078D4
S113CEC0002875D12878FD2101402970E01F0078E1
S113CED0287220002838C069686000902700483F05
S113CEE03900FAF7F3FE2600343E287A3178401AE6
S113CEF07070BA48007880070CD4009908794A7990
S113CF001206120C10437188884203D1390000982C
S113CF10FFF72EFD3900009800F067F8002847D08D
S113CF20200028380CC87088F9F7A6FB2878400739
S113CF3037D500980078800712D1E01C06F01EFC5B
S113CF4002AA03C220000B300CF064FA019001AA7B
S113CF5002A9A07800F052FA2800FFF767FE2AE041
S113CF603A000099286AF9F7FFFC0600286A00785D
S113CF7004280ED0E01C06F001FC02AA03C2200023
S113CF800B300CF047FA00906A4602A9A07800F032
S113CF9035FA2878C107C90F0E40FE2101400E431F
S113CFA02E702878C00703D52800FFF780FE02E022
S113CFB02800FDF7BAFD05B0F0BD000099CC0000D3
S113CFC010B5040060784008C00703D400F072FA7A
S113CFD0002808D1AD480078022804D0A07902289E
S113CFE001D3012010BD002010BDF8B504000D00D0
S113CFF06868002815D021788907890F012903D191
S113D0002969097806290CD006F0B8FB02000B0048
S113D010207961790906090C0843F9F72DFB0028EA
S113D0202CD0AB4E286800282AD06178C90725D4B3
S113D030A178E2781206120C1143BA4A91421DD229
S113D040217962791206120C114372898A4217D02F
S113D050A178E2781206120C1143728991420FD022
S113D06006F08CFBA778E2781206120C1743020034
S113D0700B003800F9F700FB002801D10020F2BDB5
S113D080687E69464870287E0870E88AFDF788F84B
S113D09007000AD0694601200A566846017838001C
S113D0A0FDF747F93800FDF7AFF8ED8A307800282E
S113D0B029D06078C00726D4A078E1780906090C45
S113D0C00843984988421ED2207961790906090CDF
S113D0D00843FDF765F8002804D00078012812D031
S113D0E0052810D03179A079884200D20100207936
S113D0F062791206120C1043FF22531ADBB22A0083
S113D1000021FFF745F90120F2BD0348007870477C
S113D110B44800787047000063250020B5CE0000B5
S113D120F3B581B0FF20B14900910C78022C26D3CD
S113D1306846007A00F03EF9A04223D3AA4A631E4F
S113D140DBB2AB49009D6D681C265E43AD192E7899
S113D150002E01D1180015E04A268E5DB34208D096
S113D1606D78954205D26F463F7ABD4201D22A00BE
S113D17018001D006B1EDBB2002D03D0E2E7012C6A
S113D18000D10020A04201D30020FEBD019A6946CF
S113D190097A00F0C9F8FEBD80B500F00BF9934A96
S113D1A01278904207D2934908700100142005F0C8
S113D1B010FE012002BD002002BD8E4801788B487C
S113D1C0027891428041C00F70478B4800688949BA
S113D1D009781C2251434018407870476810002099
S113D1E085480068834909781C2251434018801CF3
S113D1F0704781B0AE4801886A461180408869460C
S113D2004880009801B0704701B5A948694609886B
S113D210018069464988418080200002814203D30D
S113D2200021402005F0D5FD01BD10B582B0FFF707
S113D230E0FF00906C4C68460088002803D06846E4
S113D2400088A0420ED168464088401C6946488048
S113D250012008800098FFF7D7FF00211F2005F068
S113D260B8FD07E0684669460988491C01800098B2
S113D270FFF7CAFF6846408800196946488000984D
S113D28016BD80B5FFF7B5FF02BD0000462500209E
S113D29000B583B086480021018041806946812021
S113D2A0400005F068FE00A9491C9020400005F0EC
S113D2B062FE01A99E4805F047FE6846407869462B
S113D2C0097848430101019806F0CEF807BD000033
S113D2D04825002038B5974CDC208000251829000B
S113D2E09020400005F047FEDD2080002118924880
S113D2F005F02AFEFF203F490870FFF7C9FF29788F
S113D3001C2001F0B9F980B500F054F837490B78C6
S113D310984205D249681C2250430818801C02BD5B
S113D320002002BDF8FF0000FEB507000E0011004A
S113D3301C2078430290304C2068029A8018012205
S113D3400270467010222068029BC018801C06F0F0
S113D3503BFA3000FAF7C8FE050004D1002021682A
S113D360029A8854FEBD300000F024F80400694697
S113D3708120400005F0FFFD01A96D4805F0E4FDA2
S113D38068460078019902006243120189182960F5
S113D3900199641C604300010818686068460078BD
S113D3A00101286806F060F83900142005F011FD29
S113D3B00120FEBD10B5010000200C4A00E0401C15
S113D3C0137898420BDA53681C2444431B191C78C5
S113D3D0002CF4D05B789942F1D1C0B210BDFF208B
S113D3E010BD000064250020FFFF0000D8130020BA
S113D3F01825002062250020DC1300207FB50400DE
S113D4000E0015006A46FAF783FE009800280DD135
S113D410002102AA03C26A4602A92000FAF778FE94
S113D4200098002805D003CE009A03C2286800990A
S113D430886080263606FFF7C8FEA0420BD2FFF7AD
S113D440D8FEB04204D300200090684600F043F8B0
S113D4502000FFF7A1FE2868B04203D3002140203A
S113D46005F0B7FC7FBDF1B50024AB4D11E01036DB
S113D470786886420CD200980CC803CE083E8B42D2
S113D480F5D18242F3D1002E02D00020002103C640
S113D490641C287884420ADA68681C2161434018B5
S113D4A001780029F4D0070014373E68E0E7F1BDA5
S113D4B06625002080B56946282005F05CFD684695
S113D4C00078002805D095480178002901D04078DB
S113D4D002BD002002BD10B504000BF09BFF00212B
S113D4E0C943884201D1C12010BD20786178090662
S113D4F0090C084311490880A078E2781206120C3E
S113D50010434880002010BD10B50A4C0100BE2015
S113D5104000201806F0F2F8C020400020180178DE
S113D5209A2904D145210170062000F05DFA10BD4E
S113D5301B020000681000201A020000662500206B
S113D54070B5B44ABE2040001418207945281DD176
S113D5502068B1490B78012B12D1127852070FD5EC
S113D560001DCA8902818A7A8272497AC1720021B5
S113D57001734173C149016105F0C6FE46202FE0E5
S113D580C221282281544720207101E0472828D154
S113D590200006F0D1F805002E001C363079002852
S113D5A002D00020FCF7B8FD307B00280BD1307886
S113D5B0052806D06079002803D1FCF732FDFCF77A
S113D5C06EFA0120607128002830B168884720680D
S113D5D0002804D0452020710620FBF706FC9A2081
S113D5E0207170BD80B5BA4900780A682823D054E8
S113D5F0472008710620FEF7A8F8B64800789A2854
S113D60001D1012070470020704738B58148007867
S113D61080280ED00024B04DA0002858010004D06A
S113D6208047002801D1012032BD641CE4B2132CD0
S113D630F2D3002032BD78480078022800D1704728
S113D64080B5FCF7EEFCFCF72AFA01BD72480078BD
S113D650022800D1704780B5C54806F04BF9FCF7A5
S113D66026FA01BDC748026C436C002B01D1002A85
S113D67001D0012070470020704780B511696548CA
S113D6800078C00721D5507D04281ED14878002891
S113D69002D00D2811D018E08878CA781206120C2E
S113D6A01043B94A904210D28878CA781206120CF4
S113D6B010430021FEF743FE07E08878CA7812067B
S113D6C0120C10430021F8F723FE012002BD38B5E7
S113D6D00400504D2100AC208000281806F00EF8FC
S113D6E0B320800028180178782906D12021017000
S113D6F0200000F003F8F9F76BF931BD817D0C29A6
S113D70001D11020704700899F49884201D301202C
S113D7107047022070470000D813002063250020C2
S113D720F1B582B006461C363468C84801900568D5
S113D7302000FAF78BFA287C002805D0688A20712B
S113D740000A6071287DE0712078FC2101400120ED
S113D750084320702889A070000AE07010276078C0
S113D7601021014361702889874988421AD2F8F749
S113D770DBFF0090002815D0607808210143617018
S113D78005F085FA2200103203C806F00DF82200D5
S113D7900832009803C806F007F820001830182152
S113D7A031750DE06078F7210140617005F06FFA82
S113D7B02200083203C805F0F7FF20001030377547
S113D7C003210170A97D417069898170090AC170C2
S113D7D0A889B081E889029980228852A8896A4977
S113D7E0884211D2FCF7DCFC0121B175002804D079
S113D7F0807EC00701D40520B075307D001D3075D2
S113D800212001990877F7BDE079F9F79FF80228FC
S113D810F3D1F7BD681000204625002038B50C0070
S113D8208A4D280005F088FF01004C7515304968C1
S113D83088472868002806D020212977FFF75EFF53
S113D840F9F7C6F831BD7820287731BD70B5BE4CE4
S113D850AF25AD0065196E7C002E0DD1AB73288009
S113D8606980EA80AA800020287201206874AD20B3
S113D87080002018FFF72BFF70BD0000E5D50000E5
S113D8800020B9490870704710B5AF4C0100B720AB
S113D8908000201805F032FFB6208000201801789F
S113D8A0312904D1A3210170012000F09DF810BD9D
S113D8B080B534498A8F428209880183A42101708A
S113D8C04178491C4170083005F021FD01BD00007C
S113D8D0E4110020E8110020E00D030010B59A487F
S113D8E0B621890044182178A32917D16168002240
S113D8F00A730378DB0701D4C2230B730B79002B63
S113D90001D0C1230B73097B002904D1627020006C
S113D910FFF7CEFF10BDA521217001E0A52913D189
S113D920B7218900401805F007FF01000C30896811
S113D93088476068002805D0A3202070012000F0EB
S113D94053F810BD3120207010BD80B50100874808
S113D95042680978E12905D14378042B02D2FFF704
S113D960A7FF01BD1173A52101700120FDF7EDFE94
S113D9706C1100207D480078312801D101207047C6
S113D9800020704718250020F8FF000038B5040077
S113D9902278E07C002805D02000083003C8FBF77B
S113D9A075FD31BD022A03D12089FCF7F9FB06E09D
S113D9B0032A17D12000083003C8FCF70BFC05002C
S113D9C010D012202256217C2800FCF7B2FC28003B
S113D9D0FCF71AFC2900B848F8F7A8FB8179402223
S113D9E00A43827131BD704780B557494A680123A3
S113D9F0834013434B600820F8F782FB01BDAF4915
S113DA004A6882434A60704770B54F4C207A0121BE
S113DA10227A521CD2B2182A00DB00222272227A05
S113DA2065682E00D6400E4007D091406940616081
S113DA30A34891004058804701E09042E8D16068D3
S113DA40002802D00820F8F75BFB70BD18130020F3
S113DA5080B59C480021002206C080204000FFF7CA
S113DA60CEFF01BD80B50100974814E2F8B5364CED
S113DA702000403005F060FE050034D000F066F868
S113DA802F0082379148F97809014018416808004D
S113DA9001D0280088472E003036307875281DD2F2
S113DAA0CF2069460870280000F062F8012810D1E0
S113DAB0F878112805D102203870B078012101438B
S113DAC0B170280000F0D2FB0100280000F0D3F868
S113DAD014E0002812D16846017800E0E52128000E
S113DAE000F016F80AE02000443005F025FE22304C
S113DAF0E8214170C17B017000F0FAF9206C002824
S113DB0002D1606C002802D00320FFF76DFFF1BD45
S113DB10F8B506000F006D4C8520305C000120181C
S113DB20057B3000FEF76CFB8520305C000120187B
S113DB308268100002D0390030009047002D02D0D6
S113DB403000FDF717F8F1BD6810002018300221ED
S113DB5001734173CA49898F0181CA490182002135
S113DB608176C949016070473513002040130020B5
S113DB70F3B587B007461C373E6800200024079998
S113DB80823104910125B989BE4A914241D1317A49
S113DB908907890F012900D10120717833797279BD
S113DBA01206120C13436A46D382B378F278120633
S113DBB0120C13436A469382079A54320392049ACE
S113DBC052780292079A283201920090CB07DB0F19
S113DBD00398828D6846C18A808AFEF737FA0090DE
S113DBE004986946032205F0EFFD049800780028A4
S113DBF014D0401E35D0401E35D0401E042837D9DD
S113DC00401F012808D9C22008990870200009B0D3
S113DC10F0BD0920049908700124F7E730788009E1
S113DC201FD006200499087002247078284201D07D
S113DC30012000E0022003990870B078F178090609
S113DC40090C084303994880B07903990871039833
S113DC5045718E480399886007985030FDF75EFC43
S113DC60D4E7D120D0E7B87D05210143B975D3E7C6
S113DC70B87D0121F9E710B5040085304278FE2310
S113DC8013401943417000213F23E1544222A15221
S113DC900E4900780001081821003E3102780A700C
S113DCA000212000383000F06AF9E8220100200049
S113DCB000F02EF810BD00005C1100206810002058
S113DCC02C0E03006C100020A81000208C0E030002
S113DCD070B504000220FCF72AFF05000FD088224B
S113DCE0210005F085FD2E00663E20001C30027DDB
S113DCF00168300005F068FDEE61280070BD002069
S113DD0070BD383000E0080041690029FBD170473C
S113DD10F4B582B0040027001C370126002969D01D
S113DD2002293FD003293ED0042945D13868009008
S113DD304078304236D100998878CA781206120C9D
S113DD401043A64988422DD12000FFF7DAFF0500D1
S113DD5018E02000FFF7BCFF002813D00100383181
S113DD60F96201002831220038324A6200220A6234
S113DD70EA6892880A8005228A7200F092F8287A6A
S113DD80401C28722879002870D1009801794279C2
S113DD901206120C1143E868FCF780F9E8600028C9
S113DDA0D7D12E71F7BD386800902000FFF7A9FF86
S113DDB005000098407830423FD100998878CA78AD
S113DDC01206120C10438549884236D1287900285E
S113DDD013D10098017942791206120C1143E868B4
S113DDE0FCF75CF9E860002807D08088B88105203A
S113DDF0B875200000F055F8F7BD2E71386B002877
S113DE000DD0F96A0161F86A002801D0396B4161CB
S113DE102000FCF7AFFE287A401E287200E06E71E5
S113DE20287A002822D1687900281FD028001538C4
S113DE300078694608722C00383CE0694078400854
S113DE4030420ED02000863001788A0709D5FE22A0
S113DE500A400270210008312000503000F084FA9A
S113DE60F7BD6846017A2000FFF752FEF7BD008C2B
S113DE700349898F884201D00020704701207047F0
S113DE8018250020FEFF0000F1DE00001BDF00006B
S113DE9080B50100524805F031FC0320FFF7A4FDD2
S113DEA001BD10B504008620205CC00712D5E069CE
S113DEB040784008C00706D52100083120005030C2
S113DEC000F052FA10BD210008312000503000F05B
S113DED0F1F910BD2000FFF7CAFF002803D120008C
S113DEE0FFF7D6FF10BD2000083005F013FA10BD6F
S113DEF010B50400611C163000F041F8627801008E
S113DF00223C2000FFF704FF10BD80B50200153A43
S113DF1012783838FFF7FCFE01BD38B5040025003F
S113DF20603D2078002825D120004438026811790A
S113DF3053791B061B0C194363888B420CD08381D5
S113DF40817D01220A438275280000F08FF90100C7
S113DF502800FFF790FE31BD9178D0780006000CC0
S113DF600143107953791B061B0C18430023228CA0
S113DF70FFF76CFC21782800FFF7CAFD31BDF8B526
S113DF80070000206A461070F879401CF8713800C8
S113DF9000F028F80400022801D004281CD101262E
S113DFA068460078F979884215D3788904F086FEAA
S113DFB040097881AB4D39002800683005F09EFB9C
S113DFC05020285C002807D150202E5428005430BB
S113DFD005F073FC00E001242000F2BDFFFF000007
S113DFE0AC100020F6B583B004000025657203264A
S113DFF0012002279C4909780229A17900D1B8E0BF
S113E0000E292BD801A2525C52009744BBBB070EC9
S113E0100E1A1A343434828282E1BB0004990870E7
S113E02004F026FF0005000D23E0E179012900D169
S113E030ABE0A179032911D10420049908709C480C
S113E04017E0A179062902D1E179022906D20399C0
S113E050002967D00978002901D1E571B8E0049856
S113E060067004F005FF0005000D6081402801D210
S113E07040206081ABE04820205AFCF791F80090E2
S113E080A079092801D107204BE0082802D103997F
S113E0900D7007E00398002804D00078002801D10F
S113E0A00820A0716069002817D104980770E079EE
S113E0B0032812DAA079082816D12000FCF775FE8F
S113E0C00190684600799349097888420CD20198F6
S113E0D0FCF79CFE002802D0E671032078E0E0798A
S113E0E0022801D1B84811E0009800280AD04078ED
S113E0F0022807D100980078012801D0052801D111
S113E100658104E004F0B4FE4005400D6081042004
S113E1105EE04820205AFCF743F8A1790C2902D18B
S113E1200A20A07131E0E179012911D1002809D038
S113E1304178022906D10078012801D0052801D1AF
S113E140658112E004F094FE4005400D60810CE00E
S113E1509D486081A0790B28039801D1057004E0E3
S113E1600078002801D10B20A071022004990870C6
S113E1702EE0012906D9C91F022903D9491F01D05C
S113E180891E25D10399002901D1002020E00978B6
S113E19000291DD0A179012902D1049806700EE04E
S113E1A00E29049901D10F7000E0087003980078DB
S113E1B0E12804D104980078401C0499087004F004
S113E1C057FE7902E2799140491E014061810220A3
S113E1D005B0F0BDF8B5234C20005030009085699F
S113E1E0002707706889010008D00121009A117086
S113E1F0401E6881002D0FD02D680DE02E0001D047
S113E200356800E0002531002000683005F09BFAF5
S113E210717A3000FFF779FE002DE3D10098007881
S113E220002803D12000543005F064FBF1BD38B55B
S113E230B14804788020C00004F040FDCF4909783B
S113E24045186946332004F096FE6C43009840005C
S113E250201832BD0348806E002801D10120704788
S113E26000207047681000204625002010B582B0B9
S113E270C06941788907CC0F01216A461170417841
S113E280FD220A4042706946282004F074FE684664
S113E2900078002803D0FEF790FF002801D1002069
S113E2A016BDC1480078002800D0200016BD00002B
S113E2B0021F0000F1B58AB00F0014373C68054610
S113E2C00835FEF782FF6875FEF78AFF286001268D
S113E2D0AE75FEF7AAFF2861B34800786876AE767B
S113E2E004F0D5FC68603868A860387D28766946F3
S113E2F02000F9F7EBFC6846007DE875CF48E8603C
S113E30060780221014361700A980BF065F80BB044
S113E310F0BD00003C13002038B505005038416CB6
S113E3200160297901752C006C3C287801000DD11D
S113E3302000FFF79CFD002803D12000FFF7A8FD73
S113E34031BD643D280004F0E5FF31BD801E04D0DA
S113E350401E012803D8CE2102E0CC2100E0C321D5
S113E3602000FFF7D5FB31BD30B591B005000C009E
S113E370FEF736FFA8608C480078287304F087FC09
S113E38028612000143001686961017D697606A95D
S113E3900068F9F79BFC06A8007D28766869009060
S113E3A06C46287E207168460BF026F86079FEF7EB
S113E3B0AAFFA860A248E8610020A87628000BF014
S113E3C013F811B030BD0000093D000010B5020083
S113E3D0543AD179936C1360C31F1B781375126878
S113E3E05378FD241C405470027813000DD0921E03
S113E3F007D0521E012A06D8CE217038FFF788FBB9
S113E40010BDCC21F9E7C321F7E70A00F5D1827DDD
S113E410D207F2D5010068392038FFF74BFF10BD51
S113E42010B5C44C0100DF208000201805F066F907
S113E430DE20800020180178002904D10121017018
S113E4401620FFF7D1FA10BD80B500F001F801BD28
S113E45038B5B84CDE20800025180020287068608C
S113E4608020C003FFF7CBFAE0208000201805F0DD
S113E47041FA01202875BF48A861FFF7D8FE400083
S113E480FA2149004018286131BD38B5A94DDE2074
S113E49080002C1861682078012816D12878C006DD
S113E4A00ED508790F2809DA4879FE22104205D1E1
S113E4B0022020701220F8F78BFA31BDC12200E04F
S113E4C0C222200000F0A8F831BD052812D10800AE
S113E4D00C3089688847DF208000281805F02CF963
S113E4E06068002805D0012020701620FFF77CFA10
S113E4F031BD207031BD00004C250020F8B5C8495D
S113E50000914F6806001C3634682000F9F79EFB22
S113E51001252078FC210140012008432070A571C9
S113E520C0480088A070000AE070607810210143A0
S113E530617004F0ACFB2200103203C805F034F91A
S113E5406078082101436170A078E1780906090C1C
S113E5500843F8F7E9F82200083203C805F024F963
S113E5600B2020763879607678790540A5761B20D3
S113E5703075032000990870F1BD0000EA240020E2
S113E58080B50A006B49DE2080000818130006D10C
S113E59004220270E02080000818FBF7A8FA416802
S113E5A000F03AF801BD000063250020F8B50C0026
S113E5B0604DDE2080002F18786800901669387846
S113E5C0042827D10098002804D197489749088047
S113E5D004F097FBA079012801D00120F2BDE020CE
S113E5E08000281805F086F9387804280DD1707851
S113E5F000280AD1B07801210122024040080140DC
S113E6004800101880B2F9F7FFFC727800993800BE
S113E61000F002F80020F2BD80B5052303700A74EF
S113E62016203BE480B54348FE22DF21890041588F
S113E630DE239B00C018FFF7EFFF01BD19E30000C4
S113E640CDE3000038B53B4CE520800025180020C0
S113E650002103C5083D2900FF20303004F08BFC65
S113E660E62080002118724804F06EFC802000042B
S113E670FFF7C5F9297818204143686804F0F4FECF
S113E68031BDF2B582B0160037698879012801D00E
S113E6900120FEBD274C207800071BD5706805F0CB
S113E6A06DF8FBF797FD050014D02878012811D1E7
S113E6B0E5208000201841680022047801E0183128
S113E6C0521CD3B2A34205D20B78002BF7D1009190
S113E6D0002901D10020FEBD787801240F2802DB37
S113E6E0C120487009E0FBF743FF28622800FBF7CC
S113E6F08BFDB87801210140A983029908794A79F0
S113E7001206120C104300994880706805F036F820
S113E710009A083203C2787800990874B878012105
S113E720014000984174009804701320F8F750F9E0
S113E730D0E70000681000201CB53E49486800225C
S113E7400C7801E01830521CD3B2A34211D20378E2
S113E750032BF7D1694642880A80027C8A70427C86
S113E760CA70827C0A71182104F07EFE68460AF0A1
S113E770D8FF13BD25E60000F8B50600301D8469F6
S113E7802C494868002500220F7801E01830521CFB
S113E790D3B2BB4203D20378012BF7D1050020008A
S113E7A0F9F754FA01202178FC220A40012111438F
S113E7B02170A0716888A070000AE0706078102150
S113E7C00143617004F063FA2200103203C804F0BC
S113E7D0EBFF6078082101436170220008322800B1
S113E7E0083003C804F0E0FF0C20207668786076D7
S113E7F00C485421435A0321FD221A405B085B0054
S113E80013430B40A37675601B223023F25402227B
S113E8102A705422805AA874A07E0140A176F1BDCA
S113E820E01300201825002005350000CC7E0020D0
S113E83023020000FC13002080B54068032202700C
S113E84041701720FFF72AFBEFF31081016072B6C5
S113E8507047006880F310887047F8B40168421864
S113E86043685908511800918168DB0701D54B466C
S113E870C918009B9A4202D10C30F2BC704713783D
S113E880521C032403261E4002D11678F61C521C87
S113E8901D090F2D07D115780F35521C03E0177889
S113E8A0521C0F70491C761EF9D1002DE1D0167848
S113E8B0521C9B081C40032C01D11478521C2302C7
S113E8C0F3185C420B19AD1CD3D01C785B1C0C7084
S113E8D0491C6D1ECDD0F8E710B5030003E00C7899
S113E8E01C70491C5B1C1400621E2404F7D110BD6B
S113E8F010B582B004006846FFF7A6FF834801887C
S113E9000C4304806846FFF7A4FF13BD0078012878
S113E91001D0052801D10120704700207047010073
S113E9207B4800880140080000D00120C0B2704735
S113E93080B5012141710100764804F0DFFE042016
S113E94002F0E2F838B5BD4D2C680AE0802020744E
S113E9502100280004F0F7FE200010306169884788
S113E9602468002C15D06079012802D00328EFD048
S113E970F6E780204001FFF7D2FF0028E6D000F040
S113E98005FA0028E2D002216171210000F002F8AA
S113E990E6E731BDF0B583B004000F00A848882134
S113E9A04900605026009D36200054300025B97976
S113E9B0022902D0032914D025E001210180B9796C
S113E9C081702000583039000831082204F0FCFE20
S113E9D020009B3039890170090A417035707570C7
S113E9E011E0058002218170964981803800083049
S113E9F069460CC80CC122009B32684603C804F067
S113EA00D3FEB571F571200003F0CEFB607A387146
S113EA10F7BD80B53F490968002908D08A4A825C5D
S113EA200B799A42F7D1C27A0A7403224A7100F030
S113EA30DFF9042002F068F838B5804C256806E058
S113EA400520287428001030696988472D68002D36
S113EA50F6D1042003F038F90020206031BDD0B590
S113EA6082B004006946282004F085FA68460078DC
S113EA70002836D003CC083CBF4AC0A6C0CEB94259
S113EA8003D1B04201D11000D6BD0226F6430027BF
S113EA90FF43B94203D1B04201D1901CD6BD032635
S113EAA0F6430027FF43B94203D1B04201D1101D00
S113EAB0D6BD0426F6430027FF43B94203D1B04232
S113EAC001D1901DD6BD09F057FE0088C749884280
S113EAD007D2200009F040FE002802D009F04CFEC5
S113EAE0D6BD2000F7F7FBFDD6BD10B50400BF4826
S113EAF0844207D209F040FE0088A04202D109F006
S113EB0039FE10BD2000F7F70FFE10BD181E0020BF
S113EB100010002004100020F1B58EB0C08B212815
S113EB2001D1012500E000250E980079022804D1C6
S113EB300E98C088AD4988427DD200F027F90600BE
S113EB4079D0002D01D0022000E00420694688809D
S113EB500E9802900020039001A91E2004F039F9B8
S113EB60039837009B37002855D10E98406A401C03
S113EB70009004F003FE04AA03C204AC0098007AD7
S113EB8020720099487A8A7A1206120C1043608126
S113EB900098C07A2073A32020216054207B012890
S113EBA007D10099087B4A7B1206120C104320827D
S113EBB009E00098007D207600980C3004F0DEFD1A
S113EBC004AA103203C2002D04A802D004F022FFCC
S113EBD001E004F060FF2020205C00280AD0822895
S113EBE019D0A42810D0A62812D0AA2812D0AE2852
S113EBF00CD020E03870002D009802D00AF08FFD70
S113EC000AE00AF08DFD07E0882004E08C2002E091
S113EC10802000E08420387031000C310E9800F020
S113EC2093F84020305CFB210140402031543000F7
S113EC300C3005F0EFFE0FB0F0BD00000410002012
S113EC4013EA0000FDFF0000F5FEFFFFF1B586B0FA
S113EC5000270026009600F099F80190002871D052
S113EC609C3002900698406A401C04900298C51C8F
S113EC7001983A3003908079C00701D44C240CE009
S113EC8038240AE00098008A2873000A6873ED1F8C
S113EC900E3CE4B21535761C7F1C009805F0FCF898
S113ECA00090002832D004990978F8B28842F3D34E
S113ECB0F6B2052EF0D20098007B032802D1152C61
S113ECC004DAE9E70128E7D10E2CE5DB2A000098F5
S113ECD003C804F069FD0098007A287200984089FE
S113ECE06872000AA8720098007BE8720098007BA2
S113ECF00328C7D12A000C320098103003C804F04E
S113ED0053FD0098007E2875153CC2E702980770F1
S113ED10029886700498007802994870002001993E
S113ED209B22885401990C31069800F00DF8039841
S113ED30008840190299401A0399088001980C3000
S113ED4005F068FE07B0F0BD30B5426A1C314B696E
S113ED5002240C70058A4D80C08BA5030543CD8128
S113ED604C82087EFE24044020202043087610783C
S113ED7018708348086230BDCA210020FFFFFFFFDE
S113ED80FFFFFFFF80B500F033F801BD30B583B05D
S113ED900024019469460C8001A9BB4804F0D4F80E
S113EDA000A9491CFF202C3004F0E5F800E0641CA5
S113EDB068464078844211DAE0256D006543019885
S113EDC04019DC21490041180A78002AEFD10122B8
S113EDD00A7000F02AF8019840193EBD01206946E6
S113EDE00870462003F0F5FF00203EBDF8FF000048
S113EDF07CB505000024009469460C71A24804F017
S113EE00A3F801A9FF202C3004F0B5F8E026760021
S113EE100098281A310003F028FCC0B2704300990E
S113EE200818DC214900445473BD38B50400482156
S113EE300C3004F019FB25009A356E21280004F0EB
S113EE4011FBE56331BD10B50400A08B002813D17C
S113EE50E08B2100020409D58C4A904206D0282078
S113EE6003F0B7FF200003F02BFB10BD272003F0B5
S113EE70B0FF200000F001F810BDF8B50400E08BED
S113EE80132803D1200000F05FFAF1BD0726804F5C
S113EE9039783140022905D01F2803D1200003F01E
S113EEA0E4F8F1BD1F2803DA200000F0F7F8F1BD03
S113EEB0212801D0222803D12000FFF72DFEF1BD27
S113EEC0332803D12000FFF7C1FEF1BD0100303922
S113EED0082948D2FFF75AFF050050D06D4A29008F
S113EEE0200000F04FF8E08B312837D0322804D0CE
S113EEF034282ED0362805D0F1BD2900200001F099
S113EF00B0FAF1BD022068873878304213D0064049
S113EF10012E10D0022E0AD1FF20BA30285C00281E
S113EF2005D08020E96B4870280003F035F92800EB
S113EF30FFF75EFFF1BDCA2040002818616A4978D6
S113EF40017055494160C82040002818FBF7E9FFCB
S113EF50F1BD2900200001F0D5F9F1BD2900200000
S113EF6001F037F9F1BD03D1200000F011FFF1BD2C
S113EF704649884203D1606A401C0AF06DFBF1BD2A
S113EF8085ED0000F2B582B004001700606A0090BD
S113EF90029D28356E69200003F017FB0299FF22B9
S113EFA0BA32885402202870208A6880E08B80213D
S113EFB009020143E9812F62287EFE2101402420B9
S113EFC00843287600980078307000207070F7BDF0
S113EFD080B5FFF70DFF01BD38B5040025003A35B3
S113EFE00320698B00292FD001292FD0022937D083
S113EFF0032935D0042930D0052931D0062931D050
S113F00010292DD011292BD0132904D0142926D04E
S113F01015291DD031BD0C20288020009D3004F01E
S113F020ADFBC6A20CCA99422DD190422BD101202E
S113F030E87121009B3108784A781206120C1043BB
S113F04028810020A87231BD0B2009E0052007E0CB
S113F050A979BF220A40AA7102E0042000E014202A
S113F060288031BD9F20205C4006000E2100C23163
S113F0700A785206120E8318DB1D2B80521C2018AE
S113F080A03009F0EDFD31BD2202000038800000FF
S113F09004250020D1EF00004F050100FEB5050056
S113F0A00724FFF773FE0090002856D0A24A0146B9
S113F0B02800FFF767FF00983C300190A14E042719
S113F0C0E88B00281AD001281ED0022846D0032835
S113F0D06ED0042800D1ADE0052800D1EAE006286E
S113F0E000D11FE1102800D1AAE0112800D1BAE014
S113F0F0142800D1D8E015280CD019E100990C315E
S113F100280000F09CF912E100990C31280000F06D
S113F11024FA0CE1686A401C01990968891C027888
S113F12043781B061B0C1A4333891A4201D102F09F
S113F130E3FF009A5787027843781B061B0C1A4397
S113F140308910400870000A487000240198006853
S113F150447000980C3005F05DFCF7BD686A411CF2
S113F16001980068841C01980079FE2202400198ED
S113F170027108784A781206120C10432070000AB3
S113F180607008784A781206120C104300F053FCA1
S113F1900500112000994887280005D1A01C3100E2
S113F1A00D2204F011FB01E0009847872C00BFE01A
S113F1B0686A411C01980068841C01980079FE2249
S113F1C002400198027108784A781206120C104322
S113F1D02070000A607008784A781206120C1043F6
S113F1E000F029FC694608720620009948876846A1
S113F1F0007A002819D1A51C0F20F0212B780B4090
S113F200727B02401A432A700240737B0B40134303
S113F2102B706B780B40B27B02401A436A7010402B
S113F220B27B11400143697001E00098478768464A
S113F230047A7DE000990C31280000F025FA76E08C
S113F240019804680079FE21014001980171F6F7E4
S113F25078FFA070000AE07000202071052000995A
S113F2604887842472E7686A401C01990968891CEC
S113F270019A1279FE231340019A1371327812090C
S113F280D2070FD51522009B5A87027843781B06B4
S113F2901B0C1A430A70120A4A70891C392003F0A5
S113F2A06AFE52E70220DAE700990C31280000F0E8
S113F2B087FB3CE0686A411C01980068871C0026B3
S113F2C001980079FE22024001980271BD1C2E7043
S113F2D00520009A508708784A781206120C1043C9
S113F2E03870000A787008784A781206120C1043B5
S113F2F000F0A1FB040009D0892C19D1812417E066
S113F300411C2970B16809783818C170300006F0C2
S113F310ABFE06002878F3D10099498F08180099AC
S113F320488705E000990C31280000F03CFA0400FD
S113F330072C97D1FBE60000D1EF0000FFFFFFFF91
S113F340FFFFFFFF04250020F0B585B00600746AB6
S113F350671C308A0390B81C04F010FA6A4603C292
S113F3602100292003F035FD01250398318B8842C3
S113F37018D0684603C8FAF72DFF040012D0FFF72F
S113F380C5FA002808D0607802280BD10022002199
S113F3902000FAF754F805E0B87A4008284201D072
S113F3A0022020700B2003F042FD00280DD0684697
S113F3B003C8FAF70FFF002807D0FFF7A7FA0028C1
S113F3C003D069460B2003F004FD02A91A2003F0C0
S113F3D0D2FD387879780906090C084369460CC9C6
S113F3E0F7F74AF900281CD06846007A022818D09A
S113F3F000210020FAF76AFE002812D0B87A4008EB
S113F400284212D0308B039988420AD1387879780F
S113F4100906090C084300226946FBF719F8FAF7B4
S113F42051FDB87A4008284207D13878797809061E
S113F430090C08430021FCF7F3FF05B0F0BDF2B559
S113F44082B0416A491C0091029D303529688C1CA8
S113F45003F0BBF806002879FE21014029710098C9
S113F46004F08CF9220004F09FF9F6F76AFE20728A
S113F470000A60720C200299C88503F008FC07009A
S113F480009804F07BF902000B0003CF8B4201D1FA
S113F49082421CD0009804F071F9FAF79BFE002810
S113F4A006D00178012903D180887349884207D3A3
S113F4B072482072FF206072002E12D08120FEBD9F
S113F4C00099097A01290ED02072000A607200980E
S113F4D0007A012807D000283DD0002E01D08020DA
S113F4E0FEBD0720FEBDFAF78CFF050003F0CFFB3D
S113F4F0220003C804F058F90298C08D801C0299B8
S113F500C8850020A0720099497AE17219E02A683E
S113F51028234343D2181378012B10D1E37A98425D
S113F5200DDB4900611892880A73120A4A73A17AA2
S113F530491CA1720299C98D891C029AD185401C6B
S113F540C0B2297B884206DA0299C98D142902D2F5
S113F550A17A0A29DBD30020FEBDF2B5416A4F1C13
S113F560009C303421688E1C03F02FF805002079AC
S113F570FE2101402171387879780906090C084385
S113F5803072000A707203F082FB320003C804F088
S113F5900BF90C200099C885B878012805D00028FB
S113F5A003D0002D25D08020F2BDF6F7CAFD3978AE
S113F5B07A781206120C1143814222D03878797875
S113F5C00906090C0843FAF7EBFD002808D0017876
S113F5D0012905D1083003C800290CD100280AD11B
S113F5E0320027A003C804F0DFF8002D01D08120E9
S113F5F0F2BD0720F2BDBA78012A05D0320004F02A
S113F600D3F8B878012835D1FAF7FBFE0400F6F7F1
S113F61098FD3072000A70720098C08D801C0099A9
S113F620C8850020B072F978F17219E022682823A5
S113F6304343D2181378012B10D1F37A98420DDB8F
S113F6404900711892880A73120A4A73B17A491CE4
S113F650B1720099C98D891C009AD185401CC0B231
S113F660217B884206DA0099C98D142902D2B17A25
S113F6700A29DBD30020F2BDF8FF0000FFFF0000E1
S113F680FFFFFFFFFFFFFFFFF2B582B0406A471C98
S113F6900C4630342068861C387879780906090CC1
S113F6A0084300F0C8F905002079FE2101402171CA
S113F6B005200299C885387879780906090C084329
S113F6C03070000A70700024B470280069D12000E2
S113F6D006F0CAFC04005CD0A0680078BA789042B6
S113F6E0F5D1F070A16848788A781206120C10439C
S113F6F03071000A7071A168C8780A791206120C78
S113F7001043B071000AF0710F20A16849790140DB
S113F710327AF023134019433172A26852791209E4
S113F7200840110101433172B078801DB07030007F
S113F730A168897941720A300090A06881794F00EC
S113F740FFB2C01D09F066FE01003A000098FFF701
S113F750C3F80098C019B1787F1CC919B170A168A9
S113F760C97A0170471CA068C17A4C000C3009F0BA
S113F77051FEE2B201003800FFF7AEF8B078641C25
S113F7800019B0700298C08DB17840180299C885EC
S113F79007E0B878010003D0FF2801D0832500E0FA
S113F7A082252800FEBDF3B589B0406A401C009054
S113F7B00A98303001688D1C0099091D01910026BA
S113F7C006A9AC4A98CA98C1099907910179FE2201
S113F7D00A40027106A91E2003F0FBFA08980028CB
S113F7E05AD10198007803900198401C0590039920
S113F7F04900401801780491401C0190AE70052026
S113F8000A99C885009908784A781206120C1043A0
S113F810B6498842009908784A7838D21206120C00
S113F82010432870000A6870F8F710FC02280BD106
S113F830F6F787FC009A117853781B061B0C1943C2
S113F840814248D080241AE0009908784A78120648
S113F850120C1043FAF7A4FC002805D0FFF756F861
S113F860002801D08920A9E0F6F76BFC009A1178F2
S113F87053781B061B0C194381422CD08124099810
S113F88002F0A3FE002800D10724200096E012060F
S113F890120C1043B649884200D086E0F6F751FCBA
S113F8A02870000A687016E07F1CB068C27AF9B24A
S113F8B0914242D20C3009F0ADFDFFB27900405ABA
S113F8C0694649898842EFD1A878411CA970B1687A
S113F8D009782818C170300006F0C6FB06003AD03B
S113F8E000988178C2781206120C1143300006F099
S113F8F005FB0028EFD0002400E0641C0398844238
S113F90019DA022205986100411802A8FEF7E4FF03
S113F910002700E07F1CB0688279F9B29142ECD2F2
S113F920C01D09F077FDFFB27900405A6946098984
S113F9308842EFD1C8E7002400E0641C04988442A4
S113F940C9DA022201986100411802A8801CFEF75E
S113F950C3FF0027A9E7002010E00199CA78FFB28D
S113F960E919CB78934202D2019CE370CA707F1CE0
S113F970AA78F9B29142F0D3401CC0B2A978884267
S113F98003DA070029180191F2E700290FD1009941
S113F99008784A781206120C10435449884204D25B
S113F9A0099802F012FE002801D1072006E00A9807
S113F9B0C08DA97840180A99C88500200BB0F0BD05
S113F9C030B58BB0406A441C0A0030321068801C89
S113F9D01379FE251D401571A74A12781209D20722
S113F9E024D50422CA85217862781206120C1143A8
S113F9F00170090A4170A078112802DB1020A07060
S113FA0008E0102806DA20221021091A2018C01C48
S113FA1003F0FAFCA11C392003F0D4FA94206946BF
S113FA200870684609F018FE002002E00220C8852C
S113FA3084200BB030BD10B50400F6F782FB84427D
S113FA4016D02A48844211D2F8F700FB022801D1CB
S113FA50802010BD2000FAF7A3FB002804D0007812
S113FA60012801D1892010BD812010BD072010BDBF
S113FA70002010BD24160300F8B5AE4CAC20800065
S113FA80271800253D8003F059FA75216554256532
S113FA9026007836B571356069461A2003F06BFA92
S113FAA0B560F5602000C430857069460978022984
S113FAB001D1857105710121018000F058FD09F023
S113FAC050FC07F0AFFE09F0B9FEA9483880FFF7F3
S113FAD05DF9A849D82252008150002804D0C821D9
S113FAE04900401801F032FBF1BD0000F8FF0000AE
S113FAF010B5040080208001FEF7FAFE2000FFF715
S113FB0077F910BD1CB59C4802F083F8002822D078
S113FB10884C594800784007400F022814D16946A0
S113FB20162003F028FABF20800021182F2003F0AC
S113FB3022FA0120694609788840019001A92F2002
S113FB4003F040FA00F0F3FF01F0B8FB8B48E060EB
S113FB50200007F0A0FE13BD80B58020C0008849B6
S113FB6008800021002003F034F901F088FE01BD73
S113FB70FDFF000010B5040002F054F88048002C8A
S113FB8006D1804901800021052003F022F910BD2F
S113FB90774901800021012000F001F810BDF8B57B
S113FBA007000C00784800F0C7F800282FD0200088
S113FBB0694601D03E2000E03F2003F0DCF95D4DB2
S113FBC028007D30047029007C316A4613780B705C
S113FBD0012141700026284800784007400F022880
S113FBE002D1002700F0A3FF2A0008325673002038
S113FBF0002103C2083A2800123069460B780370CA
S113FC00D7721473B94810612800F9F772FCF1BD7A
S113FC1010B5C84C0078002802D1200007F0EEFF90
S113FC200020A0702078C109607800F001F810BDB0
S113FC3038B50C003F4D29007D3108700220487012
S113FC400D4800784007400F022801D100F06FFFF3
S113FC5001F034FB002C01D102F021F8C648E86021
S113FC60280007F018FE31BD80B50078C349002292
S113FC708A710968884701BD04250020F0B583B066
S113FC8000F044FD02F0B0FCFEF7D6FE2948010066
S113FC9078310091AC2189004718009840790028F8
S113FCA020D0B74801F0B5FF00281BD00724374EF9
S113FCB0307820408025ED00012801D0022806D1AB
S113FCC03D800021002003F084F801F0D8FD307855
S113FCD0204217D13D800021042003F07AF801F07E
S113FCE04BFE0FE001A93F2003F045F96846007977
S113FCF0C00901D101F07CFA1D483880002104209C
S113FD0003F067F80020009A907100990860F7BD2D
S113FD1080B51B49002804D11A4808800021052019
S113FD2003E0134808800021042003F052F801F096
S113FD3079FF01BD500D0020C7498A6F002A01D008
S113FD400020704788670120704710B5C34CA07924
S113FD50002801D0002010BDFFF718F8206010BD66
S113FD6080B5BE4900228A710A60FFF741F801BDDF
S113FD7083040000F1FA000075FB000059FB000049
S113FD8000100020FE1F00007DFC00000425002060
S113FD90F0B583B00400656A01A92F2003F0EBF8E5
S113FDA06879BA4E012706283DDAA879002877D069
S113FDB0200002F00AFC002834D0FFF7C6FF05003B
S113FDC030D0B348DA2149006850C561606A0090B8
S113FDD08079010000D101203070009800787070A3
S113FDE00098401C09F016FBDA21490069582031BB
S113FDF00860009840790871A648DA2149006958DA
S113FE008862E07B56216854280058302100103164
S113FE10082203F0D9FC0420B070C8204000281840
S113FE20F7F7B6FAF7BDFE281ED1681C09F0F2FAFE
S113FE300090681C09F0EEFA0099401E8143080006
S113FE4000F00EF900282BD0A879F8F739F900282A
S113FE5042D0681C09F0DEFA0199084388423BD17C
S113FE60200000F045F8F7BDFF2819D1681C09F0FF
S113FE70D1FA0400681C09F0CDFA401E8443200026
S113FE8000F0EEF8002827D0E879297A0906090C51
S113FE900843F8F7EFF8681C09F0BCFA0190F7BDC5
S113FEA0200002F092FB002816D0FFF74EFF0090CE
S113FEB0002811D0E07B00995622885400985830CD
S113FEC021001031082203F07FFCB770287870708D
S113FED08021009800F074F8F7BD80B505219D4A93
S113FEE011700178C06900F06BF801BD11FC0000CD
S113FEF070B50500FFF729FF040019D06E6A54227B
S113FF0031009A3003F060FC934D30782870CC2097
S113FF1040002618F8F7A8F83060012030718F48A7
S113FF20B06002206870C8204000201803F0C5FCAF
S113FF3070BD0000CC0D002070B5484C2568280029
S113FF409B3009F067FACC214900691800220A7233
S113FF5001E05B1C0B720B7A0600DE40F607F8D555
S113FF600A707F4808610320A071C8204000281847
S113FF7003F0C7F970BD000069FC0000C80D002043
S113FF8011FD000070B505002878002814D17548CB
S113FF9004689A342E000C3E3100162003F012F847
S113FFA03078F8F759F8A079F8F767F805F0F0FE1B
S113FFB00021062002F00DFF2800FFF7D1FE70BDDE
S113FFC070B5040068485422A0526848BC32A0505E
S113FFD025009B3529705F480078012802D0052848
S113FFE003D01FE0002068721CE0DA2040002618CD
S113FFF0326821009C31106A5268904309F026FC53
S2140100003068007A212800D320206872687A102888
S21401001000D3102068726A7A316809312000A53051
S21401002003F0D2FB200002F0BFF870BD80B54D4949
S2140100300A688B79052B0CD10B795B1E0B711B069D
S21401004007D004208871C82040001018F7F7A0F9DF
S21401005001BDFFF785FE01BD500D002008100020F0
S21401006010B582B0040069462F2002F084FF009884
S21401007020433F490A0002438A4203D0090C084341
S214010080884201D1012016BD002016BD0C100020AB
S214010090A07C0020DBFE000070B5040025009A3528
S2140100A026003A36708B313801284FD9C01E08D049
S2140100B0801E0AD0801E0AD080210902401A1CD058
S2140100C070BD200000F056F870BD03203FE0072009
S2140100D030806879FF2801D109203080B179FB2072
S2140100E00840B071317F022932D1F18BBD4A91426D
S2140100F02EDA04210143B17170BDF7F7CBFF210061
S214010100A0310870000A4870F7F7CAFF2100A23133
S2140101100870000A4870F7F7C6FF0B203080687831
S214010120002803D1A87A0B30308006E021009C31EC
S214010130002009F08BFB0020A8720A4801680029FC
S21401014006D08C4204D14079287070BD02203080E0
S21401015070BD00000E1000200D10002039FF0000B9
S21401016085FF000008100020388000002D000100E7
S21401017000F8FF0730B583B004003A300A21018049
S214010180007F032824D125009B3508222900200062
S214010190583009F065FB002803D10821280003F038
S2140101A061F92000583069460CC80CC1684603C87E
S2140101B0002901D1002803D008222100583103E08C
S2140101C002F065FD0822010020002A3003F0FCFA47
S2140101D037BDF2B584B0406A441CC86B801C0190E0
S2140101E0FAF70FF90090002500262078019948704B
S2140101F002956AE007462820474300980068C01920
S214010200017805295DDA019A5278F1B2914257D305
S214010210022D55D2019916226A438C18E21C103021
S21401022003C803F0C1FA22000B3200980068C01917
S214010230083003C803F0B8FA00980068C01980882F
S214010240E074000A207500980068C01942780321FE
S214010250637DFC2018400323134003436375009815
S2140102600068C019807EC207F3201840520F02436F
S214010270627500980068C35D8F2010401B017022D4
S2140102801A40024362755006400E60750098006879
S214010290C019807E8207D00FA27DFC23134018432D
S2140102A0A0750140A17500980068C019007EE07530
S2140102B000980068C019FAF7A6F820766D1CEDB212
S2140102C0761C0298401CC0B2029002980099097BE5
S2140102D088428FDB0198067001998D701620454380
S2140102E06D1D049845870498FF21BA31405C0028AB
S2140102F0049803D00C3004F08DFB01E0FEF778FD86
S21401030005B0F0BDF0B585B004000D00606A461C6E
S214010310E86B029008223100684603F055FA6846F9
S214010320CC21490069180CC80CC1FF20A43028183C
S214010330317A4906CA0F0270317AC9094170A94853
S214010340D42149006850A84F072638783040022843
S21401035018D1E07B022804D1F5F7F3FE218A814209
S21401036008D1E07B03280DD12000103002F091FC6B
S214010370002807D1208AF9F713FF00282DD000782E
S21401038000282AD1684602F084FC002822D168465B
S21401039003C8002901D100281CD0684603C8F9F714
S2140103A019FF002807D00178012901D0052902D1BB
S2140103B04078022802D0C820029948708B4829004C
S2140103C03C31C8600220688728000C3004F022FB0C
S2140103D005B0F0BD38783042F0D12800FEF708FDB0
S2140103E0F6E70000F7FF000070B582B00400103891
S2140103F00668A6204000251803CD083D002901D136
S214010400002813D0280002F044FC00280ED1707892
S214010410002821D1AB2040002018BF490A7802707D
S214010420A22040002018F9F764F873BD2000223896
S2140104300088FEF75AFB02F02CFC002804D169461E
S21401044008703F2002F0BEFD297BE87AFFF7A7FB84
S2140104504C3C2000FEF7CCFC73BD80B5FEF7C8FC13
S21401046001BDF0B583B00F005F4909784907490F10
S21401047001D0012954D1406A401C0190F86B801CC0
S214010480009000250020002401990978009A5170F7
S2140104900099CE1C37E0019A1278E1B2914231D32D
S2140104A0EDB2072D2ED2017842781206120C1143B6
S2140104B03170090A7170B178F8220A40B270F721DA
S2140104C0114002799207D30FDA000A43B270EF2186
S2140104D0114002795207D30F1A010A43B270DF2185
S2140104E011400279D20852010A439106890EB17071
S2140104F08178C2781206120C1143F170090A317123
S214010500761D6D1C641CFBF78FFF0028C3D1009875
S214010510047000988570EDB2A8004019401D7887D8
S214010520314800784007400F022803D1788784209D
S214010530F96B4870FF20BA30385C002804D03800C8
S2140105400C3004F067FAF7BD380001F0D6FD80B52F
S214010550417F002908D00178704A8258517070494D
S214010560401804F057FA01BDFEF742FC01BD10B574
S214010570BE4C2100002002F0D3FB2100042002F033
S214010580CFFB2100052002F0CBFB2100062002F064
S214010590C7FB21001431022002F0C2FB21001431F6
S2140105A0032002F0BDFB21001431072002F0B8FB46
S2140105B021002831012002F0B3FB21002831082058
S2140105C002F0AEFB21002831092002F0A9FB210030
S2140105D028310C2002F0A4FB21003C31402002F01F
S2140105E09FFB10BD5B04010004250020E903010008
S2140105F010B58CB06C46002806D004281BD0052800
S2140106001BD006281BD014E090202070F7F70AFDB7
S2140106106070000AA070F5F794FDE080F7F719FD09
S2140106206071F7F702FDE070000A2071684609F074
S21401063013F80CB010BD9120E7E78F20E5E78E2078
S214010640E3E710B58CB00C00022804D0032818D0BC
S214010650072820D013E0A01C03F090F80122F9F738
S214010660D9FE00280BD19220694608706846401CC6
S21401067021000B2203F0A8F8684608F0EDFF0CB045
S21401068010BDA01C03F07AF80022F9F7C3FE00287B
S214010690F5D09320E8E708F095F80028EFD0502031
S2140106A0E2E700B58BB06A46012806D008280BD0D1
S2140106B009280FD00C2814D004E06020107068467A
S2140106C008F0CAFF0BB000BD952010705170090AE2
S2140106D09170F4E753201070521C03C903F064F8BC
S2140106E0EDE75120F7E780B509F0D5F901BD80B5F2
S2140106F008F048F8012808D1B048B1490161B1496C
S21401070081600121017303F0D8F801BDAE4801787C
S214010710C0220A400270704730160300A0FEFFFF99
S21401072070FEFFFFF0B58BB005000126012401A87D
S21401073029880180821C2800083003C803F034F899
S214010740287C01A988726946282002F014FC01AFB2
S21401075068460078002802D1390002202CE000F01B
S21401076037FF002803D1FCF728FD002826D0687C37
S214010770022804D022D3042806D021D31EE0287CE8
S2140107808009304200D00524A87C002803D0280028
S214010790083000F02FFF2800083003C804AA0832EA
S2140107A003C204A829884182047400F061F8687CB9
S2140107B0022803D13900392002F00BFB0BB0F0BD43
S2140107C0A87C297C8909314205D0002801D107245B
S2140107D0E1E70424DBE7002801D10324DBE700245A
S2140107E0D5E710B58AB004004020FEF798F8002837
S2140107F03AD003CC083C00290CD100280AD1247A2F
S2140108007248FFF799FA00282ED000212000FFF742
S2140108100FFA29E0F9F7DEFC00280ED0007801284F
S2140108200BD106A87E490180821C03CC083C02F04D
S214010830BBFF06A9032002F0CCFAFCF73BFE00281A
S21401084012D0207A00280FD103CC083C6A46083221
S21401085003C22000F5F743FF69460088488202205C
S2140108600874684600F004F80AB010BD7C1F00202A
S214010870F0B583B004006946292002F07CFB684687
S21401088003C868A20CCA994201D1904203D007F06E
S21401089099FF00280CD002F0FAF903C803C4083CFB
S2140108A02000F5F71CFF0100200009F013F9F7BD41
S2140108B05E4DFF209A302F183878C10625D41021B6
S2140108C001433970B42040002E185948306107F0B2
S2140108D051FF03C803C6083E2000083003C8320093
S2140108E0083203C2608AB082207CB07507F042FFEE
S2140108F000F0A6F8002804D02800F83007F09AFE89
S214010900F7BD3878202101433970F7BD70B582B044
S21401091005004020FEF703F800284ED02A4E307816
S214010920F024F0210140AA78092A0CD00F2A37D0EA
S214010930102A25D0112A39D0132A2FD0152A32D0C1
S214010940162A36D073BD0F25401C28400843307048
S2140109506946FF20283002F00EFB0021312002F00C
S21401096038FA30780540694609788D4225D16946BE
S2140109700978FF2921D004403470FFF7C3F873BD0E
S214010980FEF704FA04000021062002F022FA002CE9
S21401099013D03F49200000F01FF873BD317073BDBE
S2140109A00021062007E02988082004E02988332052
S2140109B001E02988362002F00CFA73BD507E002033
S2140109C0E7060100B80B0000E90E00207DFC0000E0
S2140109D080B5FEF70DFA01BD10B504008820400071
S2140109E021502000543013210180022181702949B1
S2140109F0818002F04CF922009D3203C802F0D4FE39
S214010A0025488078A5216054F5F79BFB21009B3192
S214010A100870000A4870200001F0C6FB10BD0000F7
S214010A20FEFF0000FFFFFFFFFFFFFFFF500D00204E
S214010A30350A0100A3480178EF220A400270704788
S214010A4070B50500F5F74BFE00281DD1FEF79EF99F
S214010A50040017D09C48882149006050200054307B
S214010A6000260680022181700A49818022009B327D
S214010A7003CD02F099FE2000A330067046702000D8
S214010A8001F092FB002070BD012070BD0000000047
S214010A90D1090100FDFF00000425002070B5040007
S214010AA0FEF7A6F9A24DFF209A302E18E07A00280C
S214010AB01CD120000C3002F061FE02000B00A08A5F
S214010AC0F5F7DAFD9B480078072107220240012A44
S214010AD001D008420ED1307881060BD5DF210140C6
S214010AE031702800F83007F0A5FD70BD3078CF21B1
S214010AF00140317070BD90490A68002A00D07047E5
S214010B0080B5FFE70860022001F0D3F801BD80B58B
S214010B108A48C178002902D10178002901D08020B5
S214010B2002BD0121C17000F03AFA002002BD80B575
S214010B307F480100C9314A78002A01D1802002BDD0
S214010B4000224A700A70AC3002F0D4FE002002BDCA
S214010B5070B582B000A9491C1A2002F00CFA744E36
S214010B603400C63468464078022802D1E07800286E
S214010B7013D1350080352868002809D069461A2027
S214010B8002F0F9F92078002808D0802000F05DF9FD
S214010B906868002801D000F062F973BD00F04AF8D9
S214010BA0002814D1042000F050F968460078022885
S214010BB0F3D160780028F0D108F0BEFF0028ECD011
S214010BC000F08EF90028E8D000F09AF973BD09F01C
S214010BD040F800282AD0B5480088002826D1684663
S214010BE0007802281DD1607800281AD108F0A4FFE9
S214010BF000280FD000F074F90125454020792843DC
S214010C0004D100F07DF9E07800280FD1280000F02B
S214010C1037F803E03000AC3002F06CFE00F090F8DC
S214010C2073BDB649002000F042F873BD042000F001
S214010C300CF973BD58B500248020FDF770FE00281E
S214010C4015D0B94E08F078FF0028306807D000E0CC
S214010C500068002806D0017A0429F9D001E00028AE
S214010C6000D00124012060406946087001E0684612
S214010C7004706946252002F0ACF86846007852BD3B
S214010C8010B5040009F092F8002C06D0284800217F
S214010C90CA228154AC3002F02DFE10BD10B50400FE
S214010CA009F04EF8002C01D000F02AF910BD80B5ED
S214010CB01F4A13009033186059601000883002F004
S214010CC01AFB01BDE90E00209D0A010080B50078DF
S214010CD0010007D1FCF7BAFC0120FFF7D1FF00F0B5
S214010CE02FF801BD00F0B1F801BD10B582B00400C7
S214010CF069461A2002F03FF92078002817D1684685
S214010D000078022805D0FCF7ADFC002801D0FCF7DE
S214010D1092FC07480021C6228154842140580028AD
S214010D2003D0002000F0C4F813BD08F0F7FC13BD93
S214010D30500D002004250020D00D0020170E0020A5
S214010D40F0B587B005A91A2002F015F90024802015
S214010D500001FDF7E4FD00280AD06846007D022860
S214010D6002A901D1342000E0352002F004F900E0A8
S214010D700294012602AD2E7108F0DEFE00281FD077
S214010D800298002828D000F09DF8070002988742B4
S214010D9001D3012031E0C01B009069462E2002F0ED
S214010DA018F80098002827D00298C01B00998142A5
S214010DB002D22C71009802E0884200D90800029005
S214010DC0002000F042F89A480670BA48049002A83B
S214010DD008F0FAFF07B0F0BD0027FF43019701A90D
S214010DE02E2001F0F6FF0198002805D0B84200D168
S214010DF0002002902C71E3E70020FFF74FFF04204C
S214010E0000F023F8E6E738B5040069461A2002F038
S214010E10B2F868460078022812D1854D6878002815
S214010E200ED108F089FE002803D02000FFF736FF18
S214010E3001E000F0B4F80020287008F06FFC31BD26
S214010E409D49C048FFF733FF31BD80B5BE490A68EA
S214010E5010700020086010005168884701BD10B569
S214010E6082B069461A2002F086F8714C2078002874
S214010E7018D06846007802280FD1607800280CD177
S214010E8008F05AFE002803D00020FFF707FF01E014
S214010E9000F085F80020207005E08749A948FFF793
S214010EA006FF13BD802000F003F813BD181E0020B6
S214010EB080B5AB490A6810700020086010005168C0
S214010EC0884720E680B502F0C4FBA6490968884237
S214010ED001D3401A02BD0022D243511A081802BD9E
S214010EE080B511480068002800D0012069460870C6
S214010EF0382001F06EFF6846007802BDCD0C010077
S214010F0080B50120B84908706946332002F033F8ED
S214010F10FFF7D8FF0099884202D200F007F801BD1A
S214010F2000F03DF801BD0000F00E002070B582B063
S214010F30AE4C2500B435A87D00282FD06946332055
S214010F4002F019F808F0F8FD00281AD0FFF7BAFFEA
S214010F5000260099884204D2FFF7B4FF0099081AC8
S214010F6000E000200099814201D20E460AE0FFF718
S214010F70A9FF0099884205D2FFF7A4FF00990E1A2F
S214010F8000E0009E2E6001202871C348A860AC34A2
S214010F90200002F0AFFC200002F08FFC73BDFEB50E
S214010FA002A9332001F0E7FF6946222001F0E3FFA2
S214010FB00098C0B2F9F7DCFAFA218900484300909C
S214010FC0029881000098884202D301F04EFB00E0AF
S214010FD00A20009085480100C9310191097800294D
S214010FE024D101994978002920D00700A037B98C6F
S214010FF0BB4C226801250026CB0702D4009B9342F6
S2140110000DD3521C22603E70B64979609C30FCF7C5
S2140110103BFC0198057002F01CFB3862F7BD88079F
S21401102004D50198057000F015FE2660F7BD000096
S214011030160E0020F0B585B06C4C2600C83600258B
S2140110407570C07A002803D13570FFF7A8FF2FE02E
S21401105069469320400001F08EFF3078401C6946B7
S2140110600978FF290ED101A99F4A98CA98C102960C
S214011070307001A91E2001F0ACFE0398002807D0AD
S214011080357012E0307069460978C0B2884202D2E3
S214011090FFF74CFF09E080202058002802D00420EA
S2140110A0FFF7D3FE3570FEF72DFD022000F001FE9E
S2140110B005B0F0BD070E0100EB0C0100F0B585B0E0
S2140110C04A4E3400C834002565700078010003D10B
S2140110D02570FFF764FF30E0EB2801D125701FE093
S2140110E069469320400001F046FF2078401C69467F
S2140110F00978FF290ED101A9A74AC8CAC8C1029416
S214011100207001A91E2001F064FE0398002807D074
S214011110257012E0207069460978C0B2884202D272
S214011120FFF704FF09E080203058002802D0042091
S214011130FFF78BFE2570FEF7E5FC022000F0B9FDF7
S21401114005B0F0BDFFFFFF00D00D002080B50021E7
S214011150924A11809249416106F075FB01BD00007B
S214011160D40D0020100E002030B585B0040008F024
S2140111702FFE08F067FB8B488849088000F08FFD3A
S21401118000A9491C282001F0F6FE68464078002890
S2140111901DD007F0F7FA050069462E2001F0EBFE98
S2140111A068460078002807D0012D05D0022D0ED103
S2140111B0F6F74CFF01280AD101A9202001F0DBFE39
S2140111C0002101A8FBF7ACFF0020FBF7E5FF05F0C7
S2140111D091FC05F0B3FC20782071201DA16888479A
S2140111E000F006F805B030BD1A0E0020500D0020A4
S2140111F07CB501F0F9F9FFF789FAB948007840079C
S214011200400F022801D1FFF792FC00F057F8FDF7D6
S21401121013FC00F03DFE0024009469460C71B148B1
S21401122001F092FE01A9FF202C3001F0A4FE009EE1
S214011230E0256D0005E0C8204000301802F05AFB9A
S2140112407619009869460979694340188642F2D3AF
S214011250684601796943009802F006F9B14884713D
S2140112600460047173BD10B5AF4C2078082802D015
S214011270092807D010BD002000F010F801202070CA
S214011280082005E0002000F009F800202070092061
S21401129000F000FC10BD00009F0F01009049097886
S2140112A04907490F022900D0704780B5002802D0AF
S2140112B0FFF72DFC01BDFFF73AFC01BD70B507F045
S2140112C061FA9A4C002525710126012805D00228CD
S2140112D004D1F6F7BBFE002800D12671256070BD4B
S2140112E0847F0020BD1001003416030070B582B063
S2140112F000F06EF904000120FFF7D0FF69462820B0
S21401130001F039FE68460078002801D1082018E06F
S214011310B74D5420285CAB2189006E18012807D0F0
S214011320032801D0042805D1FBF747FF002801D088
S21401133008200DE000F04CF9002805D0012803D064
S2140113400E2000F0A7FB73BD3078002805D00920D9
S2140113503070002000F0ADFC73BD002C07D0022CCD
S21401136003D004D3032C02D003E0022000E00320C4
S2140113703070E6204000281801210170B94941600B
S214011380E420400029182B2001F0F5FDE020400064
S214011390281802F092FA73BD4016030000100020D0
S2140113A06911010083040000F0B585B0040000F067
S2140113B00FF906008E4DAB2080002F183878A17AE1
S2140113C0032904D0012804D0032807D085E001288A
S2140113D004D1200007F0FDF90028F7D0A07A0128F3
S2140113E004D0032857D004286AD076E0387803283A
S2140113F03ED12000113009F0B1FB002835D0002E77
S2140114006BD001A8C5494CC94CC0029401A91E2045
S21401141001F0DFFC039800285FD1217C2000113009
S214011420FBF77EFE207CFBF7B7FE3220205E00280D
S2140114300DD43420205C400709D56846210032319E
S2140114400A8802804A884280009805F0B4F9200094
S21401145007F0D0F808203870002000F02AFCE020C1
S2140114604000281802F046FA37E0002EDDD034E0BE
S2140114702000113009F072FB00282ED007F082F907
S214011480022802D1200007F0B5F8217C2000113097
S214011490FBF746FE21E0210020312000183005F040
S2140114A081F820001830FFF7CBFA200007F091F9F9
S2140114B0002812D001212000183005F05BF90CE05D
S2140114C0208907F0AFF8200005F0D8F82100103188
S2140114D0200005F067F80120387005B0F0BD000067
S2140114E0042500202202000010B582B004000E4838
S2140114F00078012801D0002812D1200007F069F9F0
S21401150000280DD0FBF7BDFE80210906884204D3D2
S214011510002000906846FBF7DEFF207AFBF73CFED2
S21401152013BD000008100020FC0F0020F80F00205B
S21401153070B504002E4DAB2080002E18307801289F
S21401154039D1200007F045F900283FD020000830A7
S21401155001F09FFB002808D00021342001F039FC5F
S21401156000210020FEF71BFB70BD2000083003C8D9
S214011570F8F730FE002829D00178012914D12A0075
S21401158008322000083003C803C2083A2800123087
S214011590B1490B78037000209081D072C548106164
S2140115A02800F7F7A6FF70BD05290FD100220121FB
S2140115B0F7F745FF70BD2000083001F06AFB0028F0
S2140115C004D009203070002000F073FB70BD704716
S2140115D080B569462E2001F0CEFC6846007802BD33
S2140115E080B50920B44908700020FFF78DFA000085
S2140115F0500D00203EB5050003CD083DF8F7EAFD85
S214011600040013D02800F8F79BFF00280ED0684688
S214011610A1880180821C2000083003C802F0C4F8AB
S214011620A07869468872022001F0D3FB37BD38B531
S214011630A24CA120800025180420287307F09AF8F0
S214011640A221890061180CC80CC19D4828600E2093
S214011650AB2189006054F4204000201807F0D2F82E
S21401166031BD0000E1150100F0B583B0040007F0BC
S21401167081F804F030FF0190032607F083F8022872
S21401168001D1267205E00125019800B2002805D592
S21401169025722000083061688847F7BD874F300201
S2140116A03918412001F03CFBAB208000381800902F
S2140116B00D20009908709C208000381861684163ED
S2140116C021684161067000994863BA2080003C1881
S2140116D02570019804F085FF00998863A54838189D
S2140116E06060BD48E060B4208000381807F06CFEEA
S2140116F0F7BD38B50400704D607A01280AD1200084
S21401170007F067F8002805D028780E2802D12000B7
S21401171004F090FF0120287031BD00004C16030034
S21401172072B583B0654CAB2080002518080613D02F
S2140117306846C3494CC94CC0019069461E2001F059
S21401174048FB28780E2807D10298002804D1A22049
S2140117508000201804F06EFF012028707FBD80B540
S2140117600100B84801F0CAFF00F078F801BDF0B5F5
S21401177085B0524C266D0725C54F7520205C012883
S21401178002D00B2835D064E0FDF7C9F800282ED02A
S21401179000F098F88020C000AC2189006052FFF765
S2140117A08DFD38782840022801D000F04FFBF8F76D
S2140117B031FF3878284212D00540012D12D16946F2
S2140117C0232001F0D8FB6846007800280CD0BDA085
S2140117D003C802AA03C202A9292001F0F3FB00F004
S2140117E0CBF836E0022D34D100F02EF931E080201E
S2140117F0B076F6F72EFC3072F4F7A3FC7081F6F79C
S21401180014FCB081F6F71AFC3200103203C2F6F768
S21401181009FC30832000503001F08EFF3000083084
S214011820316A884738780540022D10D1B07E0028ED
S2140118300DD1FCF709FEAC4C00206071C648A060D3
S214011840211D222001F097FB2000FCF7E9FD00F0A6
S214011850E9F905B0F0BD00005816030010B5174CA5
S214011860206D002808D0BD4800F0D3F9002805D027
S214011870012075216054C8E17521605410BD10B572
S2140118800E4C210074313A2001F075FB05207521BC
S2140118906054200054300321017001218170417091
S2140118A07B4A12785207520F022A00D1017100F0CA
S2140118B0CBF810BDCF150100FC0F0020500D002005
S2140118C088130000F0B585B0B64E31003D2001F01A
S2140118D052FB00F029FA3078002837D101247470C1
S2140118E034710025F6F7AAFB002901D1002802D0A1
S2140118F0758034702AE0052765480078400703D1D3
S214011900B470F570377021E06946232001F033FB8F
S2140119105F4800784007400F012803D168460078E9
S214011920002810D102A9322001F025FB02A803C825
S214011930002905D1002803D1F4F706FC002801D0C0
S214011940032700E002273770B470F470504800781F
S2140119504007400F012801D0022803D1B5493A209B
S21401196001F009FB4A488078BF2101404848817050
S21401197005B0F0BD9102000070B582B069462F2017
S21401198001F0F9FAB14C032075216054200038307B
S21401199021005431052201F017FF26004036009839
S2140119A030603B4DE87B707328784007400F012874
S2140119B009D121004531232001F0DDFA210046310D
S2140119C00D2001F0D8FAA87844216054C248B060CE
S2140119D02000F5F78BFD73BD2F16010080B500784A
S2140119E0010002D100F072F801BD00F0F0F801BD6F
S2140119F080B500F029F801BD70B50600934C2500AE
S214011A006C35F07A002804D106206872FFF76EFC68
S214011A1070BD287A00280DD0210068313B2001F0E6
S214011A20AAFA01202870BD4868602000603001F0E5
S214011A3044FF70BD00F033F9F07A00F0C8F870BDCD
S214011A405C160300A00D002010B582B069462F2059
S214011A5001F091FA7D4C2000743004214170017828
S214011A60491E017020000C3021005431052201F07E
S214011A70ABFEF6F7E3FA03C4083C0098206304487B
S214011A80C17B3422A15480782076A548F8E0000076
S214011A900425002010B50400082C0DD16C480078F0
S214011AA04007400F022802D100F04CF810BD012873
S214011AB007D100F00BF810BD00F0F1F8200000F09F
S214011AC086F810BDFFFFFFFFFFFFFFFF80B55F48F1
S214011AD0082175228154011D334A127C0A70914AED
S214011AE04A60F9F71EFA01BD647E002010B5007841
S214011AF001001AD12C4800780721084202D100F0D3
S214011B0021F810BD0840012811D1504C75202154F0
S214011B1020001C3021005431052201F055FEC94831
S214011B2060622000FBF7F0FC10BD00F050F810BD1D
S214011B3080B50078010002D100F004F801BD00F084
S214011B4046F801BD80B54148092175228154BE4938
S214011B50816005F094FE01BD391C0100ED1B0100FA
S214011B6080B50078010019D10021372001F031F944
S214011B7036488821C900AC22920081525721405C28
S214011B80002807D0FDF702F9002803D0BF49FEF769
S214011B9023FF01BD002000F009F801BD00F017F891
S214011BA001BD0000A40D00200425002080B50028FA
S214011BB001D0FDF71DF9264800784007400F02289E
S214011BC001D1FEF7A4FF002000F001F801BD10B519
S214011BD00400B84900204876200009688847002C90
S214011BE003D100210E2001F0F4F810BD10B51749FD
S214011BF00A6D030001D1B04B00E0B04BAC24A40049
S214011C000B5390760B2075228854032000F051F870
S214011C1010BD0E49CA6D002A01D000207047C86564
S214011C200120704780B50020C349C865FFF716FE3E
S214011C3001BD0000C40D00200079002800D07047C7
S214011C4080B5F6F7E7F9BD49088001BD500D0020C3
S214011C500425002010B582B069462F2001F08BF9CB
S214011C60B54C06202073F6F7E9F903C4083C009842
S214011C702063B348C17B3422A15480782076B148D2
S214011C8060612000F6F752FE13BD80B5802000018A
S214011C90FCF745FEC107C90F0120484002BD00B54B
S214011CA083B0002000216A4603C26846F6F7CAF9E7
S214011CB007BD80B5A4490A780123834013430B70FE
S214011CC01020FCF715FE01BD9F490A7801238340C9
S214011CD09A430A7070470000DD19010010B59A4C4E
S214011CE0607821786278521CD2B2062A00DB002284
S214011CF06270627801239340194206D04B402370EC
S214011D00B94891004058804701E09042EAD12078D6
S214011D10002802D01020FCF7EBFD10BDF1190100E0
S214011D20F9190100ED1A0100F0B583B0F6F78EF946
S214011D300400012569460D7001A98720400001F0C5
S214011D401AF900A9891C372001F015F900A9491CC8
S214011D50382001F010F96946362001F00CF978496F
S214011D6068468088C870000A08710A78F02010401A
S214011D706207520F6B469B78DE00164306430E70D1
S214011D800020087340224A700F231E406F467F785A
S214011D903F0137430F7059264E713D26CE804E8146
S214011DA008818E7B1E40C02737438F736E46367878
S214011DB0002E01D0C12600E0C4268E736E46377809
S214011DC001267E40702737434F73022C00D0012036
S214011DD08F78FD263E404000304388700E787607A7
S214011DE002D10126064301E0FE2606408E70887861
S214011DF08E7B3340012B02D10423034301E0FB23F6
S214011E0003408B70022C01D16846057888788723B9
S214011E100340E80018438870002C03D14006400EAA
S214011E20887002E0802303438B70A8208001002C79
S214011E3001D102431000088168460078A94908705C
S214011E40F7BD0000311B0100611B010030B583B0F6
S214011E50A54C200007F09FFF05006946322001F0DF
S214011E608AF8684603C8002901D100280DD09F488A
S214011E7029198160012101739D4A02619D4CA1715E
S214011E8001F01BFD0020A080206037BDAD1B0100C6
S214011E9070B5964C200001F02DFD0026BD4DAE71AB
S214011EA0AE802868002801D0FCF7A2FF2E602661CC
S214011EB070BD0000AC0D0020FE1F00008304000072
S214011EC01F4800784007400F022800D1704710B520
S214011ED0884C206800280BD12179002908D1617926
S214011EE0002905D1FCF752FF2060002806D110BD5D
S214011EF061790029F9D1FFF7CBFF10BD0100A84891
S214011F0000F001F810BD10B50C00882149006050A2
S214011F10200054301F21018002218170A149818057
S214011F20012120009B3000F061F8002801D0FEF767
S214011F3072FDFFF7ADFF10BD500D0020140E0020FE
S214011F400425002035100100E4210020F1B5F8F742
S214011F5058FA07000098C07A00282ED1002426E0FF
S214011F606D1CEDB2387B85421FDA3868282169433B
S214011F70461830780128F3D170780228F0D10098FD
S214011F80E10040180D3001F0F9FB02000B003000B3
S214011F90083003C88B42E3D18242E1D10020B96800
S214011FA0EA0088503000F8F7F0F9641CE4B20098B3
S214011FB0007B844201DA0025D4E74E4840790028A8
S214011FC00ED04A4C484D280007F0E5FE4019A060A7
S214011FD00120207346482061200001F06EFCF1BD0F
S214011FE0FFF756FFF1BD000068160300F2B50400C6
S214011FF0F8F707FA0600002020703E4D2F790BE017
S214012000C90061184A1C083003C801F0CDFB2078CE
S214012010401C20707F1CFFB2307B87421BDA306881
S21401202028217943401801780129F3D14178022902
S214012030F0D1B168FA00891889796A461278002ABF
S21401204001D04A0601D54906E4D521780A29D7DB0D
S2140120502F7101206871307B874204DB234801F031
S21401206049FC002068712078F2BDF1B582B0F4F722
S21401207068F80700F4F758FB01901B4C200007F0A6
S2140120808AFE0500FCF782FE00901A488079002837
S2140120900CD0164E300001F02DFC2819B06001203E
S2140120A0307313483061300001F007FC00980028B7
S2140120B016D00298C07B022803D10299098AB94238
S2140120C009D0032808D1082201990298103007F098
S2140120D0C7FB002800D10FE00099029800F010F825
S2140120E0F7BD0000170E002010270000787E0020A4
S2140120F0C11E0100107F00200098FCF779FEF7BD95
S214012100F8B504000E00F8F77CF905009A4A31008C
S2140121102000FCF737FF606A401C0090F06B841CBF
S21401212000202070002720E0401C297B88421BDA13
S21401213029682822424389180A78012AF4D14A7864
S214012140022AF1D1AA68C300D21892795206EBD5B9
S2140121502078C0002018421C0800083003C801F08F
S21401216023FB2078401C20707F1C00990978F8B268
S214012170884201D20020D8E72078C000C01C7087B2
S2140121802078002801D0300006E03000FCF730FE51
S214012190F1BD0000107F00200C3002F03BFCF1BDC9
S2140121A04D1F0100FCFF0000F1B582B08C48478A44
S2140121B0380005D1F5F758FF0400FCF738F8271862
S2140121C0884CD02040002018009006680025ED437A
S2140121D001F03FFA02994F60D2214900611801913E
S2140121E00024B64B00990979002907D13A0018E076
S2140121F0002171608D4200D90D003668002E0CD08A
S21401220071680029F9D0029A9642F6D0009AD268EF
S214012210821A8A42ECD2891AEBE7BD4200D93D0008
S2140122202A000121019801F021F9019801F02BF90A
S214012230029804720098007F411C009A1177029957
S21401224048720299009801F059FA0120FFF731FD12
S214012250F7BDF8B5634ED0204000301800900468F2
S214012260072710E0482120000C3001F0FDF8B348A4
S214012270A064200000F0B8F8002818D020000C3028
S21401228002F0C8FB2468002C75D0207A882149000A
S2140122906518010005D0411F01290ED9891E18D0E5
S2140122A0F0E78020C000FCF73AFB0028DAD127725D
S2140122B0EF730120FFF7FDFCE4E7052801D10420B8
S2140122C000E0022020728A204000201829688847F2
S2140122D0D8E72100009801F036FAE87B00280ED1F5
S2140122E05420215ACC302018012901D0002906D1CA
S2140122F001F044FA02000B00288BF4F7BDF95420D4
S214012300205A042825D100276A7E500020189521DE
S21401231049004018112A00DB11226A76C6225200B3
S214012320A218C31C9A4211D30778112F00DB11277C
S214012330111A491E49088F4200D30F00FFB27A00D6
S214012340411CFF204E30201806F08AFCA6204000D3
S21401235027548A204000201829688847009800687A
S214012360002803D00120FFF7A4FCF1BDD2204000D5
S214012370301801F093F8F1BDD1EF000038B5040034
S2140123802100C4312078C873200044380722052371
S2140123900578022D06D0032D14D0062D14D0092D54
S2140123A017D031BD217800290CD1042101704C3C95
S2140123B021009C4801F0DBF9002802D00120FFF73C
S2140123C078FC31BD0270F2E721780029FAD103705A
S2140123D0EDE7CB732000C83009688847E7E70000BF
S2140123E004250020500D0020F8B507003C002834D5
S2140123F0A08D4004400C00900020FF21203178542D
S2140124005620385C207038002A30390058310822AE
S21401241001F0DAF9207E4021014321763D009A350C
S214012420022600981F2803DA3800FCF7D5FD22E0C3
S214012430A08D1F2804D16878C000801C60821AE035
S2140124400098212801D022280BD116206082287BF3
S214012450012801D10F2060820846FB210140217628
S21401246009E0332801D1668205E03038092802D216
S2140124703800FDF711FEA08DE081132807D038281B
S21401248005D06949884202D01839884200D103260E
S214012490380008300670618A002901D10020F2BD9B
S2140124A0217EFE220A40202111432176A18D0904B6
S2140124B001D44078287065610120F2BD41250100F4
S2140124C070B504005748056800E02D68002D34D02B
S2140124D0606A0078697A8842F7D1287A022805D19D
S2140124E05420285A06280AD0032008E00428ECD1F4
S2140124F05420285A062801D1052000E0072028721A
S214012500E07B8A2149006854881C28182100103174
S214012510082201F059F98F2040002E186E21300054
S21401252000F0A0FF616A228C6E2A00D96E2230006C
S21401253001F04AF90120FFF7BCFB70BD7D230100C5
S214012540F8B50027FF433C00384DD020400028183E
S2140125500090066803E08C4200D90C003668002E15
S21401256020D0307A022803D0032801D0042804D1D1
S2140125707168009A1269891A716071680029EAD136
S2140125800428EBD15420305A062801D10D2000E052
S2140125900220FF2120317054072030720120FFF7FE
S2140125A088FBDBE7D22040002D18BC4209D0204B27
S2140125B022000121280000F059FF280000F063FFE7
S2140125C0F1BD280000F06AFFF1BD0179032901D1B0
S2140125D001207047022901D000207047C0881549A4
S2140125E088428041C00F704738B51048D021490055
S2140125F044182568091D401800F050FF0120FFF718
S21401260063FB0AE08820400029180520C8738A2049
S21401261040002818096888472D68002DF2D100204F
S214012620206031BDF00E002038800000500D0020E3
S21401263041250100F8FF0000F446002804D4494271
S21401264000F013F8404260474042002905D45FD0AD
S21401265000F00BF8404249426047494200F005F855
S2140126604942604703460B43E6D40022030A8B42E5
S2140126700BD203098B4219D243088B422ED2411A40
S21401268000D20146524110467047FF2209023FD050
S21401269012068B4205D3121209028B4201D3121283
S2140126A0090203098B4219D300E0090AC3098B42C8
S2140126B001D3CB01C01A524183098B4201D38B014E
S2140126C0C01A524143098B4201D34B01C01A5241F1
S2140126D003098B4201D30B01C01A5241C3088B4236
S2140126E001D3CB00C01A524183088B4201D38B0021
S2140126F0C01A524143088B4201D34B00C01A5241C3
S214012700884200D3401A5241CFD201461046704744
S21401271008B508F03FFA08BD10B5040000F0F7F957
S2140127206043F021890048432831FFF79EFF10BD22
S214012730F8B5924C270022370B20B87525003C359A
S2140127408F48286021004031042000F014FC04204A
S214012750285600F077FA21004031042000F032FCC0
S2140127600026AE7100F038FA288100F050FA810098
S2140127700818A87200F04BFAE87236202060A6808E
S2140127800120A071A660267300F072FB6073002022
S214012790C04301462200103203C2050C258300F017
S2140127A067FBA0760520E07604202077032060777B
S2140127B0A0772584202038707E70BE70BD80FE8193
S2140127C000F016FAF1BD000070B582B000246D4A23
S2140127D06D4D6E490678403E31D0761E40D0761E4D
S2140127E0022E32D9F61E3ED0761E3FD0761E012E20
S2140127F02BD9B61E3FD0761E40D0761E41D0761E0F
S21401280042D0761E21D0761E41D0761E44D0761E4A
S21401281048D0761E19D0761E47D0761E48D0761E32
S21401282013D0761E47D0761E57D0761E60D0761E01
S2140128300BD0761E54D0761E57D0761E022E00D8A8
S21401284096E0143E44D0B61E0D2E00D892E00F3E00
S21401285056D0761EF3D0B61E36D0761E4BD052E03A
S214012860007A687087E08068686084E0017A75297C
S2140128705FD229727FE0007A68727CE0083003C874
S21401288029E00089108176E0007A907273E0017A7F
S21401289006296BDA11736EE0D17A057AA94265D3FF
S2140128A0957368E00089108265E0007AD07462E072
S2140128B00089D0825FE00089FFF72EFF009069460D
S2140128C0082000F07FFB56E001000831082037E0C1
S2140128D0083003C8183203C24DE0007A28704AE077
S2140128E0017A082942DA517345E0007A907442E091
S2140128F0007AD0723FE0027A102A37DA8A703AE01C
S214012900007A087037E0914A0578072D32D801A67B
S214012910765DB744065A14303A5A5A5A1268057AFE
S214012920EA40D20722D5CD711DE00821415620315B
S21401293040291BD20821405600F084F9A5490420FD
S21401294000F040FB17E0017A03290FD8517112E01D
S214012950017A022905D9491F03D00F3901D0891EF2
S21401296004D1007A907100F043F904E0E82402E013
S214012970FB2400E0F424200076BD0000B8240020EB
S21401298000F8FF07C8240020BC240020E92400200A
S21401299070B582B0040000210025A94A1000283035
S2140129A0130022332678403E00D183E0761E3DD0C8
S2140129B0761E022E30D9F61E3AD0761E3AD0B61EB4
S2140129C008D0761E38D0761E38D0761E39D0761EC0
S2140129D039D0761E76D0761E37D0761E37D0761E44
S2140129E037D0761E6ED0761E35D0761E35D0B61E02
S2140129F035D0761E56D0761E5FD0761E62D0761EF5
S214012A0052D0761E52D0761E5DD0761E012E4FD93C
S214012A10133E42D0B61E0D2E54D90F3E55D0761E0B
S214012A2055D0B61E33D0761E4AD053E0507945E0D5
S214012A30906840E0107B41E0507B3FE01000103092
S214012A402BE0108B21E0907E38E0107F36E0907FFF
S214012A5034E0108C19E0587830E0988815E0694623
S214012A60082000F088FA0098002802D1FA204000D9
S214012A700BE000F04CF8F021890048432831FFF7BD
S214012A80F4FD81B20098FFF7F0FD20811BE02100E4
S214012A900831082000F06FFA15E003C8220008325A
S214012AA003C210E0107909E0507F07E0187805E0CE
S214012AB0217208E01068A06005E0D07E207202E076
S214012AC0C07A2072F425280076BD407AF6E700F039
S214012AD071F8F0E721780729F4D801A252569744F5
S214012AE006120A0EE2161C26007CE7E7007EE5E7E2
S214012AF0407EE3E74069DEE700F06EF8C5E700F0E8
S214012B0086F881000818D9E700F081F8D6E710B5F5
S214012B10002065498C7A002C08D0022C0DD0052C9B
S214012B200ED0142C0ED0162C0ED010BD0878010035
S214012B3008D00B2804DA192010BD0878002803D025
S214012B40102010BD322010BD282010BDF424002016
S214012B50F8B5002200243A48817FC37E0093077FA0
S214012B60581AB84201DA5D1A00E03D00002D00D186
S214012B700125022605E08818431E022098402418E5
S214012B80521C681ED2B29042F5D200F025F8009988
S214012B90491E8E40761E791B4E43A11914225143BD
S214012BA00C18FFF7B4FF44432000FA218900FFF711
S214012BB05CFDF2BD80B5FFF7AAFF3C4909784143A9
S214012BC0F020800041430800FA218900FFF74DFDFF
S214012BD002BD0000F824002010B500F018F88100AE
S214012BE00C18E4B200F013F8C001201880B210BD32
S214012BF010B5FFF7F1FF0400FFF789FF6043FA21E4
S214012C008900FFF732FD401C2949087010BD10B538
S214012C10002025498C7A002C08D0022C0DD0052CDA
S214012C200BD0142C07D0162C07D010BD0878010045
S214012C3001D00B2801DA082010BD022010BD0000CB
S214012C40B8240020042801DB04201DE00422D2431E
S214012C50904201D1032016E00622D243904201D1D0
S214012C60052010E00822D243904201D107200AE055
S214012C7002000E32052A01D20B2004E00D22D243B7
S214012C80904201DA1020C0430A49087070470A488A
S214012C90704709490CC903C88B4203D1824201D14E
S214012CA00120704700207047F0240020DA2400201D
S214012CB0EA240020F8240020E024002010B50400B7
S214012CC0FFF7A5FF0100200048430400FFF71FFFA0
S214012CD0010020004843FA218900FFF7C6FC10BD19
S214012CE0010001D00D49886070470C48022101801F
S214012CF08188418081680A0000D1704780B5884785
S214012D0001BD0648032101808188418081680A004F
S214012D1000D1704780B5884701BD0000C87E0020FD
S214012D20F8B505000E006F090124E806C00E8440C0
S214012D30532D04D349484A490880FFF7E2FF310082
S214012D40280000F076F8002818D1464D31002800FA
S214012D5000F00DFD002808D1301D002100220023BF
S214012D600EC03100280000F0C9FCB80031184A68CE
S214012D7022434A60281841680C434460F1BDF8B507
S214012D8004000E0067090125E006C00E8540532C9D
S214012D9004D3324832490880FFF7B3FF31002000E0
S214012DA000F047F8002813D0B8003218E9435368FA
S214012DB00B4053602B4A136804E01C1864682C40CF
S214012DC006D11B68002BF8D11018426811404160EB
S214012DD0F1BDF2B582B00400600900900127E0065B
S214012DE0C00E87401E4E532C03D31F483080FFF77A
S214012DF088FF1C480099890041184968394015D058
S214012E00056811E0009880002818406838400AD00C
S214012E102869002803D115483080FFF772FF029910
S214012E2020002A6990472D68002DEBD1F7BD0D498A
S214012E3000E000BF4209920089184968C006C00E2A
S214012E40C140C807C00F704700200021054A8B000B
S214012E50D2185060491C0329F8D37047038000003C
S214012E60CC7E00209C7E00200480000005800000AF
S214012E70F8B52F4E300007F08EFE0090301D07F09B
S214012E808AFE04003000083007F085FE0500300099
S214012E900C3007F080FE2749274A009B1B78002B41
S214012EA036D1236853435B18236053435B18236072
S214012EB053435B18236053435B18236053435B18EB
S214012EC0236053435B18236053435B1823605343CB
S214012ED05B18236003000826276857437F1827607E
S214012EE01F60276857437F1827605F60276857432E
S214012EF07F1827609F60276857437F182760DF6029
S214012F001033761EE8D1C36F2B600123009E337009
S214012F1023685343591821602978C906490E401879
S214012F200168296021680160286880008008F2BD78
S214012F30C82000205FF36E3C0D66190080B507F0CF
S214012F402BFE07F0FDFE01BD30B583B005000C0079
S214012F502900684600F058F8FF200002284080212A
S214012F608900884204D03E483E490880FFF7C9FEE2
S214012F700098206037BD80B500F001F801BD7CB532
S214012F8005000C002900684600F03EF8354E002C7E
S214012F9004D1C020C0013080FFF7B3FEFF2000023D
S214012FA0284003D080214900884206D1684682889D
S214012FB00099200000F008FC73BD2B483080FFF715
S214012FC0A0FE73BD80B500F001F801BD7CB505001B
S214012FD00C002900684600F017F8224E002C03D199
S214012FE022483080FFF78DFEFF200002054203D005
S214012FF01F483080FFF785FE6846828821000098CA
S21401300000F0E2FB73BD00001CB504000A0000BF1F
S2140130101CA003C86B4603C31006400DFF2109021E
S214013020114007D080225200914206D052009142B0
S21401303006D00CE008220F4904E008220E4901E000
S21401304008220E490918684600F0BEFB04E00C4849
S21401305004490880FFF755FE684603C803C413BD3C
S21401306006600000CC7E00200160000004600000C5
S214013070056000008000030028030300B804030075
S2140130800A600000000000000000000010B582B0D9
S21401309004006846FBF7D8FBB24801880C4304805D
S2140130A06846FBF7D6FB13BDB4490A79104308718D
S2140130B00878002800D0704780B50420FFF7E6FFA7
S2140130C001BDB4490A7882430A70704738B50100D9
S2140130D0002400250879401E0F2846D801A2125C5C
S2140130E0974400BF101A24242E56424C8638606A34
S2140130F074A6B0B808001C308969884737E0080014
S2140131001030C968884732E008001030C96888471F
S2140131102DE0080008308969884728E0080010304B
S214013120C968884723E008002030C96988471EE03F
S21401313008002030C969884731BD08001430096984
S214013140884714E008001830496988470FE00800EE
S2140131501C30896988470AE02A20085C400700D5A8
S214013160012508001A3009698847002D0CD19C48B2
S2140131700100C8310C700979002902D1C069002804
S21401318002D00420FFF782FF31BD08001030C96865
S2140131908847ECE70120FFF794FFE8E70220FAE70B
S2140131A0F8B58F480700C83739780A0001D00329D7
S2140131B05BD139790A000ED0C80707D50F203870C1
S2140131C007F0DAFEF12107F0B3FFF1BD10203870E9
S2140131D008F016F9F1BD83490978002945D0041D88
S2140131E0A569002D41D01C3000F0A6FA2879387068
S2140131F00026002025602979491E0D292CD801A218
S214013200525C97444E4842423C24302A52361E189D
S214013210120C08F03FFA1FE008F052FA1CE008F022
S214013220FCFB19E008F004FE16E008F021FF13E0AD
S21401323009F04FF910E009F011F90DE009F0D0FBA3
S2140132400AE009F0F2FB07E00AF05AF804E00AF097
S214013250B3F801E00AF0C9F8002806D13E70A0696B
S214013260002802D00420FFF711FFF1BD10B55C4C19
S214013270010020001C3000F041FAC820205C002824
S21401328002D10420FFF702FF10BD80B5072101E03F
S21401329080B508210171FFF7E9FF01BD80B50B215B
S2140132A0F8E780B50221F5E738B50400207A002852
S2140132B01BD0032020714A4D2900C8310870002018
S2140132C0E861087148492520FFF72AFD21002800FA
S2140132D01C3000F013FA0AF01CF92800083000F040
S2140132E009FB0420FFF7D2FE31BD04202071200027
S2140132F0FFF7BCFF31BD80B50A21CBE780B50521BC
S214013300C8E780B50121C5E780B50621C2E780B5CB
S2140133100C21BFE780B50D21BCE7184909780329C0
S21401332000D1704780B5F5F7E5F801BD1349097876
S214013330032900D1704780B5F9F78EF801BD0F4912
S2140133400978032900D1704780B5F3F715FE01BD52
S2140133500A490978032900D1704780B5FAF743FB7B
S21401336001BD0000181E002004490978032900D178
S214013370704780B5F7F782F901BD00001875002087
S2140133801A490978032900D1704780B5FAF7FEFA81
S21401339001BD00001C75002080B50120FFF784FEEA
S2140133A001BD80B50220FFF77FFE01BD0F490A78F7
S2140133B0002A00D0704780B511220A7008F0D8FCA8
S2140133C001BD80B50A480078002801D0012002BD61
S2140133D007F09BFEC107C90F0120484002BD00004F
S2140133E050740020E62100207C2000201875002063
S2140133F01C75002010B50C00FFF7E3FF21780122B1
S21401340042400A40227010BD1206130A1A43130CDA
S2140134101A4300BF094205D083070BD00270401C37
S214013420491EF9D1704700001206130A1A43130CFD
S2140134301A4300BF130030B414001500103902D32C
S21401344010393CC0FCD2490700D30CC000D504C0DB
S214013450890002D30280801C002900D5027030BC8E
S214013460704700000022D5E70022E3E7F8B5040024
S2140134700F0015001E0000F011F8002020702774C0
S214013480E5606661F1BD0178002900D0704780B51E
S21401349001210170001D00F010FA01BD017801291B
S2140134A000D0704780B500210170001D00F022FA9F
S2140134B001BD0268531C03601170704710B582B0DD
S2140134C004006846FBF7C0F9704801880122A24053
S2140134D00A4302806846FBF7BCF96846FBF7B4F975
S2140134E06B48018802220A4302806846FBF7B1F95D
S2140134F013BD80B568494A68101848600020FFF778
S214013500DDFF01BD38B56846FBF79EF9624C65786C
S214013510002060706846FBF79CF90A204543606806
S21401352040196060A84202D22078401C207031BD4C
S21401353010B582B00AF0FEF8040069464220FFF793
S2140135401AFD68460088A04204D3544854490880AE
S214013550FFF7D7FB53484178102203780B401340FE
S2140135600AD042708178C909FCD14B484178491C80
S21401357041700020FFF7A2FF13BD80B54A480168DD
S214013580C20C0A43026049484949088049480188F3
S214013590494A0A400280C17BC909FCD10188474AD1
S2140135A00A40202111430180C17BC909FCD1018851
S2140135B0434A0A40C021890011430180C17BC909E1
S2140135C0FCD101883F4A0A4080214901114301800C
S2140135D0C17BC909FCD1017904220A430271C17B6E
S2140135E0C909FCD1017901220A430271C17BC909CB
S2140135F0FCD10182C17BC909FCD133490183C17B5E
S214013600C909FCD1018802220A430280C17BC9098B
S214013610FCD110214173C17BC909FCD18020C002B5
S2140136202A4908602A492E20FFF77AFB01BD80202F
S214013630C002284908601F4810210173C17BC909CF
S214013640FCD10188244A0A400280C17BC909FCD109
S214013650704780B5FFF756FF0F48406802BD10B5AA
S2140136600C490A880B899B1A984204D20B889B1A2C
S214013670834208D2FAE7C01A0B889A42FCD30B8819
S21401368084B2A342F8D310BD00000000D22100206E
S214013690181E0020102C0042407F00201920000038
S2140136A0CC7E00200D2C0042200400401B4300006D
S2140136B0020C0040002C0042F3FF00009FFF0000B8
S2140136C0FFF80000FFCF00001027000000E100E037
S2140136D09C20002080E100E0FDFF000010B50C00FA
S2140136E000F0A0F821680022022905D3884204D2FE
S2140136F0022801D3206010BD226010BD38B5050038
S2140137000C0000F034F8002807D080200002094998
S2140137100880FFF7EAFA002032BD206028680028FA
S21401372002D12C6004E0080001680029FBD1046086
S214013730012032BDCC7E002001000868002801D09F
S21401374002680A60704700290FD002688A4203D1D6
S2140137501168016007E00200002A06D0106888425E
S214013760F9D100681060012070470020704700689A
S214013770002802D08842FAD101207047C3798279A5
S2140137801B021A434379120401791B021943C378B9
S214013790114382781B021A434378120400781B02F5
S2140137A01A431043704700001070030A53701B0A37
S2140137B093701B0AD37011710B0A53711B0A937114
S2140137C01B0AD37170470000124207D08B0706D040
S2140137D00B78491C0370401C521EF7D870478307AC
S2140137E006D00B78491C0370401C521EF9D1704755
S2140137F070B4103A03D378C9103A78C0FBD2530795
S21401380001D318C918C001D508C908C0D20704D306
S2140138100B880380891C801C002A01D50B78037055
S21401382070BC704770B50025ED43FFF712FF04002A
S2140138305448006800280CD086684268002500239A
S2140138400021B01859418D4203D801D3844200D2D9
S214013850051B280070BDF8B54B4F4A4E16E02200F6
S2140138600021300009F09EFF207B002805D165600D
S2140138702A002100300009F067FF2069002803D1E3
S21401388042483880FFF73DFA2069804730680028B3
S21401389008D0FFF7DEFE050034686068281AA168C4
S2140138A08842DCD2F1BD37490968002903D081423C
S2140138B0FAD1012070470020704710B5040002D1EC
S2140138C00020C04310BDFFF7EEFF002806D0802081
S2140138D080012D490880FFF708FA09E0FFF7B9FED5
S2140138E000212160606002002100264809F02CFFBB
S2140138F0002010BD38B505000020002D09D0214C50
S2140139002168A94208D02900200009F05CFF0028A0
S21401391002D10020C04332BD2A000100200009F078
S21401392041FF002032BD80B5FFF793FE18490978A4
S21401393004BDF8B505000F00FFF78BFE0400002656
S214013940F6433E60002D04D02800FFF7ACFF0028A8
S21401395001D13000F2BD0B48006800280FD0AE68D8
S2140139606A68002500230021B01859418D4205D808
S21401397001D3844202D2001B386000E03B60002085
S214013980F2BD0000887F0020CC7E002005200000CC
S214013990407F002010B5030003E00C781C70491C22
S2140139A05B1C1400621E2404F7D110BD10B582B052
S2140139B004006846FAF748FFB24801880C430480C1
S2140139C06846FAF746FF13BD38B5AF4CAA2040004B
S2140139D025180020A8746873E88128822881686009
S2140139E0A8722860E82120002030FFF73DFD4C2119
S2140139F0842040002018FFF737FDE87A297B4143F1
S214013A000918A069FFF72EFDA02040002018C82144
S214013A10605031BD38B50500012100F0C4F800281A
S214013A2020D0A4240021280000F0B2F900280DD1EE
S214013A30002D03D02020285C002804D0A348B449D8
S214013A400880FFF75EF90022B2490DE0A6212800A2
S214013A5000F09EF9002805D02021445400211020B2
S214013A60FFF7B7F931BD521C087882420FDA486871
S214013A7028235343C0182023C35CA82BF3D120214D
S214013A8044540028EED0290000F0C6F9E6E7AE203F
S214013A902021685431BD10B50400002100F083F8E0
S214013AA000280BD0A421200000F072F9002805D0D0
S214013AB000F00EF900211020FFF78BF910BD38B584
S214013AC005000C00002D01D0002C04D1924890492D
S214013AD00880FFF716F90020A861A06021002800E1
S214013AE000F007F8050002D0200003F053F9280083
S214013AF032BDF2B582B00700A826FFF7C8F80090DD
S214013B0002988468002F04D0002802D0009800286C
S214013B1007D19D487E490880FFF7E7F8A820FEBD3B
S214013B20A9263D001835009B2A7D698A200000F0F1
S214013B30F5F8040035D02868002817D1207B032823
S214013B4014D120001030FAF78AFF00280ED1032086
S214013B50B8722000103039000C310CC80CC1AD48C9
S214013B602860381DFAF7E4FE0020FEBD0298846046
S214013B70207B03280ED120001030FAF770FF0028B2
S214013B80CED0217EA9730088E8800299380001F022
S214013B9071FDFEBD208AE8800299380002F01EFB06
S214013BA0FEBD3000FEBDF8B504000D0000200090FB
S214013BB0002C4CD0AA2020216054FFF768F80200A0
S214013BC003CC083C0CCA994241D190423FD1822095
S214013BD020216054207A010039D0002D2CD002F02B
S214013BE04FFA0090002832D0002500260AE0F81D82
S214013BF005F010FC6189F6B27200805A814200D14C
S214013C000125761C00988768B979F0B28842EED310
S214013C1000260BE038000C3005F0FCFB6189F6B29B
S214013C207200805A814200D10125761CF97AF0B2E1
S214013C308842EFD3002D0AD0207AFF2807D0207BB8
S214013C40032813D1207E010001D0FF2801D10020D6
S214013C50F2BD2000103003C800290DD100280BD179
S214013C608A482B490880FFF740F8F0E7012803D07F
S214013C70A62020216054EAE700202021605401207C
S214013C80F2BD0000181E0020B06F002010B5214CB8
S214013C90211D7F48FFF758F92100FF201830FFF754
S214013CA06AF9606821780A0004D0002802D1954894
S214013CB004F051FB282251434118A822202301E099
S214013CC0C25428308842FBD310BD000020440000B7
S214013CD038B504000E4D09D00E4841688C4205D314
S214013CE00078282358430818844203D3864828803E
S214013CF0FFF707F82020205CA42805D0AA2803D0C7
S214013D0082482880FEF7FDFFA8202021605431BD9F
S214013D10CC7E0020087F002013440000F7B5040085
S214013D201F005C4845680078282148432818009001
S214013D30164E002C11D0AC4203D275483080FEF7E7
S214013D40E0FF2834601B2821FEF78FFC002907D0EE
S214013D5099483080FEF7D5FF02E02C00F2E72834C0
S214013D60009884420ED23B006846027A8188200081
S214013D7000F074F80028F2D02020205CA428EED1B0
S214013D802000FEBD0020FEBD14440000CC7E0020B5
S214013D90F8B505000E003F484468007828214843DE
S214013DA0201800908A4F2020285C002806D08948D9
S214013DB018E0288A218A884225D02834009884422F
S214013DC023D22B002A7A6989200000F047F80028C0
S214013DD0F3D0287B227B9042EFD10128E9D003283B
S214013DE004D07D483880FEF780FF10E0287E217ED3
S214013DF08842E2D10822210010312800103005F057
S214013E002FFD0028D9D12000F2BD20202E540020FD
S214013E10F2BD0000CD59010038B504000D006C4814
S214013E2005D0002C03D02021695C002903D06B4902
S214013E30018003F021FD2021615CA42905D0AA2977
S214013E4003D09B490180FEF75CFF28222900200051
S214013E50FFF7CEFCA4202021605431BD10B52024EC
S214013E60045DA42C01D0AA2C0BD1047AA24208D15D
S214013E704289914205D103C80CCB994201D19042A7
S214013E8001D0002010BD012010BD0000104400002C
S214013E9012020000087F002010B5B549002801D1A4
S214013EA0486800E028304A680B7828246343D21813
S214013EB0904206D22022825CA42A03D0AA2AF1D1FB
S214013EC010BD002010BD10B504007021FFF7CCFA1C
S214013ED020005C300121017000214170817010BD0D
S214013EE010B5040004D1A34839490880FEF709FF3C
S214013EF00020A0652100C048FFF700FC032000F069
S214013F0097FD0000294400002144000022440000DF
S214013F1023440000F8B5984F38002C30FFF70CFC0E
S214013F200400250058352A4E002C02D0287A002895
S214013F3003D1B2483080FEF7E4FEE868FAF78FFD59
S214013F40002814D0261D008830800120E871AC4876
S214013F50F060287A30720121200000F055FA317A9B
S214013F600818307220000830F6F777FE1DE0286842
S214013F7000280FD103204A2160540822E968200056
S214013F804C30FFF721FC9F48286020004430FAF7A8
S214013F90CFFC0AE06869002803D1C4483080FEF7E8
S214013FA0B0FEEC2120006A699047F86A002802D02A
S214013FB0032003F0A7FEF1BD2444000080B5543869
S214013FC001008D48FFF79AFB032001F0C2FA0000BA
S214013FD0CC7E002025440000264400002744000033
S214013FE0F8B504002668B24D50304068002807D066
S214013FF0200050308068002802D0206D002803D1B0
S214014000AC482880FEF77DFE37009037002E02D0A0
S2140140103868002803D1A8482880FEF772FE0021E0
S2140140202000143800F0F0F9396808183860A34801
S214014030606020001438210050314968884769467D
S2140140402820FEF798FF27004937684600780028A1
S21401405025D09B4D38782818807C602108421ED0D8
S214014060226D03CA083A002901D1002817D0100092
S214014070FEF70FFE002812D1206D03C8B8A20CCAA5
S21401408099420CD801D3904209D238782818807CFE
S214014090C1092000143800F00DF8002806D1F87880
S2140140A0B12170542000143861688847F1BD0000C2
S2140140B028440000F0B583B004000E0027006437E2
S2140140C0386802F008FA0190250014352868009037
S2140140D0019800B200280FD5B868002804D17348AB
S2140140E073490880FEF70DFE02212000BA6890474A
S2140140F00098F6F7EDFD38E027003E370199F87F86
S21401410000F06AF9002831D02868902140580090C4
S2140141102E72002E01D00020FEBD26005E363078BD
S2140141203870019802F05DFA6861019802F077FC38
S2140141306862F8F7EAFFF87070783871FEF7A7FD45
S214014140A861009803F0DAF97870B078B870009832
S214014150E861BB4828620098007820210143009856
S21401416001702000203005F037F90120FEBD000067
S214014170087F002060450000707B0020F8B5040031
S2140141802500303DA8680090494E20003C3803D1F8
S214014190AC483080FEF7B5FD271D207800281BD1DE
S2140141A028783978884203D2A7483080FEF7A9FDDF
S2140141B038780099B1228854686A0099902288500C
S2140141C0E868002803D1A1483080FEF79AFD3C3C00
S2140141D02000E9688847F1BDF86A002803D15F48E6
S2140141E03080FEF78EFD02213C3C2000FA6A9047A3
S2140141F00098F6F76DFDF1BD9C7B0020614500003F
S214014200E13F0100BD3F0100F8B504006069009080
S214014210274F01D0002803D1A3483880FEF771FD4F
S214014220009DB035009E90363068002802D0687830
S214014230002803D19D483880FEF763FDB748B0607B
S21401424002202870A088B08374605C20205C6871AE
S214014250012028710021A970227FAA71E8712972B4
S2140142600098F2F7F7FBF1BD70B5040065686E695A
S214014270002D04D0E86E002801D0002E04D1A848F5
S2140142800B490880FEF73DFD287F002805D0002158
S2140142902800FFF70FFF002806D1617B2800EA6E91
S2140142A090473000F6F714FD70BD00006D45000024
S2140142B0CC7E0020634500006445000009420100F1
S2140142C07025002038B505000C000120287000F08C
S2140142D0B1F86870AC7031BD80B513000A000021DA
S2140142E000F001F802BD7CB584B005000C00002D7D
S2140142F004D1B248B2490880FEF703FD28002430F5
S2140143000178032926D340688678002E22D0112E04
S21401431020DA052E06D0002C04D1288CFAF7E5FB0E
S214014320040017D004A80CC83100200000F01CF8C7
S21401433000280FD0A348B100465830000AD0019596
S21401434000946846083004A90622FFF73DFA68463D
S214014350B04700E0012006B070BD00006D450000CA
S214014360FAFFFFFFFFFFFFFF1CB584B0964A541803
S2140143706946097CAF291CD1002816D00822010005
S21401438002A8FFF721FA02A802F0A5F8009000980B
S21401439000B2002809D4009802F098FB0028A07CFF
S2140143A001D0810715E0410713E0A17CC807C00FC3
S2140143B010E0684604A9891C0A8802804A8842805F
S2140143C0009802F083FB0028A07C01D0010700E0E2
S2140143D0C106C80F06B010BD13B50400019800B29F
S2140143E0002804D5794876490880FEF78AFC764885
S2140143F00419019802F06AFB0028A07C01D081060E
S21401440000E04106C80F16BD10B5020000205D325F
S2140144106D4B14781B199B7C6024234208D000291D
S21401442001D0092000E005209178002900D008304D
S214014430C0B210BD66490878421C0A707047000079
S2140144407D410100654500006645000067450000A6
S21401445038B55F4D6878401E68705E4CA07A0328B8
S2140144601DD0022804D05C4855490880FEF749FC57
S214014470207D010013D00121A172534927228A5CB5
S214014480521E0A235A43EB6AD21849784A432260DD
S214014490401E20750121002001F05AFD31BD00208B
S2140144A0A072206031BD000068450000694500002B
S2140144B0F8B505684949C22252008C1820600020D0
S2140144C06072A072404E7078A073C6204000091832
S2140144D06438FEF750FD280001F000FD002804D0E6
S2140144E0207A3E2801D33D202072ED8D2800217AC6
S2140144F0FEF7B8F807002800217AFEF7B3F800297E
S21401450000D07F1C2773FF202721715C8840FE2185
S2140145108143E172FFF78EFF6073F1BD69420100CE
S2140145206A450000F1B52D480100C831A0225200AD
S21401453082180A600300E83302241C70158B8D83F1
S2140145400B255D7000255D8001261E715E719D71D3
S214014550B94F8F60DE711D7282211170E0314118F2
S214014560CE785670A12676008619578B37703F0A8B
S2140145707770A22676008619978B37703F0A777078
S2140145808E7896710E79D67114720C7854724C78B6
S21401459094724C79FF260A36845555616C46247808
S2140145A094774979AF2904D00B21203002F091FF8E
S2140145B0F1BD383000F0C7FBF1BD00006B450000CF
S2140145C0CC7E002074130300702500206C4500008B
S2140145D0007C00200471002052440000B06F0020CF
S2140145E0F3B583B0203080680090039820300079BE
S2140145F00A38694608720098477AA849AA204000F6
S2140146000C18E07A020000D10CE118310191A44E99
S2140146100125A449A27A002A06D0022A01D03AD35B
S214014620032A00D1F8E0F9E00099097A012946D178
S214014630B8423EDB217B6B461B7A994200D2F1E001
S2140146404143091801980068FEF70CFF6846007C94
S214014650E074A57267730398008CA0800098407878
S214014660207400998878CA781206120C1043E080EC
S214014670009908794A791206120C10432081009895
S214014680807960740098C079A074707820750020D5
S2140146900027A07307E00098007A8007800F0228A1
S2140146A001D0002F0BD10098007A800807D1607BDB
S2140146B0B84200DAB6E0A0880399098C884200D097
S2140146C0B0E0207C00994978884276D100998878B4
S2140146D0CA781206120C1043E18881426DD1009906
S2140146E008794A791206120C10432189814264D155
S2140146F0607C0099897988425FD1A07C0099C9794C
S21401470088425AD12720315CA07B4018874254DA70
S2140147103800FDF7A7FFC9B20091A07B874208DAEF
S214014720781AA0732720305C01218140491EC843B6
S214014730E0736846027A0398203081680A3101984E
S2140147400068237B7B43C018FFF724F96846007A8C
S21401475001994968C855A07BB8420CD1607BC11B42
S2140147602720305CCBB2984200D20100012088405D
S214014770401EC143E173E07B009A01219140014351
S214014780E173607BC9B2FF290AD1A27B821A272373
S214014790F35C9A4200DD1A00A37B9A18571EFFB2FB
S2140147A0401E87420AD1FF2904D10320FFF7BAFE33
S2140147B0012038E00220FFF7B5FE33E02720305C09
S2140147C0A27B1218521E974201D0FF2916D1022051
S2140147D0FFF7A8FEE07BFF2824D12720305CA17BD1
S2140147E00918A173617BC91B491ECBB2984200D23E
S2140147F001008D406D1EE843E07313E0401E0A2160
S21401480048439B49C96A4218707842432260012195
S214014810002001F09DFB05E0964800E096480880E0
S214014820FEF76FFA002005B0F0BD80B59348016829
S214014830086800F01FFF01BD5144010001002E3140
S2140148408B7900200122134208D0DB0813420CD0DA
S21401485008883E288041C043C00F7047DB081342DA
S21401486003D00988522900DB0120704738B500249F
S2140148707F4D002803D0FEF7FBFA28706C70EC61C0
S2140148802C626C627E480A2101607E4981600121AA
S2140148900171FFF799F801F07BFA31BDB06F002086
S2140148A070250020CC7E0020F8B5714D764F08E0CB
S2140148B028001C30FEF740FF0022A321200000F054
S2140148C05BF9EC69002CF3D1686A00906F4C002804
S2140148D02ED0014628002430FEF735FF0098A16847
S2140148E0401AE821FDF7C1FEC6B22078864203DBF6
S2140148F0A0483880FEF705FAA068E8214E438119E2
S2140149000868D822895C490803D00229DCD007D37D
S21401491009E0009A08320099497B00F02DF9D3E7A7
S2140149200022A721F9E7A4483880FEF7EAF9CBE789
S21401493000250BE0A068E82169434018D821415CB6
S214014940C90701D502F026FA6D1CEDB22078854222
S214014950F0DBF1BDF8B50025ED4300264B4F444C86
S21401496004E0954200D31500761CF6B238788642EC
S2140149702DDAB868E821714340180100D8310A7869
S214014980D307F1D54B781B071B0F022BECD152082E
S214014990012A01D0032AE7D1226943689A1A4260A4
S2140149A0DFD14878F022024004201043487008788E
S2140149B04008032807D1FF20804909788840C14371
S2140149C0FF2090303954012003F09CF9CCE7AA204F
S2140149D040003818016800290AD02269891A016046
S2140149E003D10220FFF79EFD02E08D4200D30D00A9
S2140149F00020C043854209D0714B2A000121201DA9
S214014A00FEF734FD201DFEF73EFDF1BD201DFEF72D
S214014A1045FDF1BD10B5040021006A4803E010B55C
S214014A20040021006848FEF769FE0020A06101200D
S214014A3003F068F910BD80B50D4A5178491E5170D2
S214014A4001001000243000F081FD38B50400250077
S214014A503835002028712868002804D15B480A49A7
S214014A600880FEF74EF920003C302968884731BDA2
S214014A70007C0020404400005344000034710020B4
S214014A80287100202B480100CC7E0020B06F00204A
S214014A90B9B582B00024FFF7D1FE002803D0AE4896
S214014AA00068002812D0029D1C3501270298FFF7E6
S214014AB0C5FE002803D0287E8008384206D0687ECE
S214014AC0002805D0287E8008384201D0AA2442E07A
S214014AD0688A532805DB287EC008384201D1A02405
S214014AE039E0287C010003D001F0CAFA002831D051
S214014AF0287E80080740287807D0022803D16A88D4
S214014B00964B9A4226D2012824D0022801D00328A7
S214014B1006D1A97AF22903D0F12901DBFF2919D19F
S214014B20002810D1002F0ED0287C69468870E889AD
S214014B300880FEF7ACF8070020460FD1884889495F
S214014B400880FEF7D2F8687E002804D0688B834977
S214014B50884200D3A624200004B0B0BD3B006946BD
S214014B608A780988FFF7DAF80028ECD0017B01295A
S214014B70F4D1EFE74244000038B504001BD03C30C6
S214014B8001710025002A01D0116800E00021816032
S214014B900168080002D1744802F06CFE2000403023
S214014BA088472000FFF74AFE002804D06F480560BA
S214014BB0012003F0A7F831BD4344000097250020EB
S214014BC0554901001C7C0020207C00204444000044
S214014BD0F1B582B0856A28788007800F022804D054
S214014BE0C54860490880FEF78CF8C44A946800E01E
S214014BF0E83490681178E82359434018844200D37A
S214014C00A0E02000D830012103780B42F0D0437891
S214014C101B071B0F022BEBD1A823E358029E368CF1
S214014C202768FF8BBE42E3D1EE79DF79BE42DFD142
S214014C302E796F793F063F0C3E436F463E801E79C4
S214014C405F793F063F0C3E436F463F88B742CFD160
S214014C50AE78EF783F063F0C3E436F463E809E7827
S214014C60DF783F063F0C3E436F463F88B742BFD1D1
S214014C706E789F79BE42BBD1AE795B789E42B7D142
S214014C8003785B08012B06D14178F0220A40032104
S214014C901143417030E0032BAAD1C2235B00D21826
S214014CA06B7A967AB3424DD1954BAE7AB4462726A7
S214014CB09E5D0127B7407E1EF74366463743AF72B7
S214014CC04778F0263E4003273743477027201E5C6F
S214014CD03000AD7AFF2D21D1117B957A4F1B87428B
S214014CE000DD0700E819401E5072C0B2491E884216
S214014CF008D12000FFF7DCFB00220021200000F095
S214014D00DBFDF7BDA819907258789073907A5072AF
S214014D10FF20B040FE218143D1720FE0EC43002515
S214014D2000E06D1C854208DA0123AB40E6B21E4264
S214014D30F7D09C43907A40195072D4721168086873
S214014D4000F098FCF7BD80B5BC494A78521C4A7001
S214014D50F1F780FE01BD000038710020F8FF000069
S214014D6012440000CC7E0020544400003471002020
S214014D70F2B584B0040000250026A06A02900090D7
S214014D8000788109C90700D4B3E08007800F0128A5
S214014D9000D007200190002000E0401C5749097808
S214014DA0884219DA55498968E82242438918D82287
S214014DB08A5CD307F1D55208022AEED1A831228C9B
S214014DC08B8B9A42E9D1029A019BD25C0968C95C35
S214014DD08A42E2D100208DE0022001F055FF002832
S214014DE000D186E00600A83631680A00383A6B46DC
S214014DF01B7C537054600200C83202231370278C48
S214014E00B7839570D57001271771577195718C4FBF
S214014E10B7600126D67115720E78FC273740022638
S214014E203E430E7093273740BC46009E37780C26CB
S214014E303E4067463E430E707606760EB446009EAA
S214014E40377880263740664637430F70009E36789F
S214014E50B607B60F012E09D1A46A019D645D4C7098
S214014E600C78102525430D70537036E008235370D7
S214014E700B78EF261E400E70009B9B794B70009EB0
S214014E80B378F7783F063F0C3B438B701B0ACB7019
S214014E90009E337977793F063F0C3B430B711B0A23
S214014EA04B71009B5B788B71A36A019C1B5DCB7178
S214014EB0009B1B78DB0910D0009B1B7A9B0704D153
S214014EC00D725178491C517007E05378DB1C537002
S214014ED0009B1B7A9B079B0F0B726946097CAF29C7
S214014EE003D0517802F0F5FA02E01830FFF72BFFF5
S214014EF00126300005B0F0BD45440000B06F00202B
S214014F007025002076B50500AE6A0124B078401FF2
S214014F100C2810D230788009204206D068460178E5
S214014F202800FFF725FF002805D07178288C01F0AE
S214014F30DFFF002801D0012076BD684603C80A00BD
S214014F4001002800FFF7C8F9010004D0317889096B
S214014F50214200D0002076BDF2B582B007000025C0
S214014F600024B86A009040780326FF2816D0010076
S214014F7014D001F085F8040000980AD0017942792E
S214014F801206120C1143200000F0B8FF002805D1CC
S214014F903AE04078010001D0FF2835D1009800782A
S214014FA0C10903D00099097A31422DD1AE4982094F
S214014FB0D20715D580083040022816D0388C884292
S214014FC022D2002C02D0207900281DD16846017A11
S214014FD03800FFF7CDFEC107C90F01204840FEBDCE
S214014FE001258008304002280ED1F88B88420BD369
S214014FF0F1F7A7F8398C814206D0C3490888401CCE
S21401500008804420FDF7E5FE00980078C00909D025
S2140150100098007A304205D06846017A3800FFF7DA
S214015020DFFA0500002D06D06846017A380000F048
S21401503009F80020FEBD0120FEBD0000007C002016
S214015040374A0100F3B591B000200190119E1C363D
S214015050F568E979B08801F04BFF002800D0BAE086
S2140150606878FF280DD001000BD001F009F80190F7
S2140150706878FF2805D0002803D00198002800D1C1
S214015080A9E00220012704AC3178012901D127715A
S21401509000E020717188E1806978A173E073B088BF
S2140150A02082F0882083A879A07628796979090674
S2140150B0090C0843A083A878E9780906090C084377
S2140150C0E083307A0A3820840020282160540320A7
S2140150D02978C90902D1218C891C04E0297A014268
S2140150E002D1218C491C2184F168327A238CD21A90
S2140150F08918616212A909782922A154317E2A22CF
S214015100A154317C2B22A1547169E162717C302259
S214015110A1542978C9092FD0297A084002282BD111
S2140151207A4801001831009149680A782284097882
S2140151300291B02149004018039016E00099496891
S214015140CA5D0399097879434118029BC018FEF796
S2140151503BFB00984068C019218C0278891821848D
S21401516002990078081802907F1C039840788742BD
S21401517000980068E2DB60620198002804D004A869
S2140151800199C968884726E03078012803D104A828
S21401519000F082FF1FE06878FF2819D1002528005B
S2140151A000F062FF050016D0A86800780028F6D047
S2140151B028790028F3D1A18B280000F09FFE002853
S2140151C0EDD0A8680078A07304A8E9688847E6E7E8
S2140151D004A8F9F738FE1198FFF737FC13B0F0BDB5
S2140151E080B52830016809782322114208D1007B56
S2140151F0002805D1F8F75EF9002801D0012002BD8C
S214015200002002BDF7B50400A56A287803218308AB
S21401521003221A40012A0FD001268709374206D0F9
S2140152200140022908D0022A06D0032A04D0200011
S214015230FFF7D6FF002801D00120FEBD28784009DF
S214015240304208D02100B748FEF758FA022002F093
S21401525059FD0020FEBD01A803C80A000100200078
S21401526000F004F8FEBD0000F8FF000007B5816AF3
S214015270027F012A02D0022A03D016E06946097984
S2140152800EE00978032203230B4003D0022B0ED035
S21401529010D30AE089080A40032A6946097902D030
S2140152A0FFF75AFE0EBD00F02FFF01200EBDFFF7DF
S2140152B08FFCFAE701A90CC911001A00FFF722FEBC
S2140152C00EBD70B50600A836974D104C30682169A2
S2140152D0884203D295482880FDF713FD306821697E
S2140152E0401A4C21FDF7C1F906006178C0B2884228
S2140152F003D38F482880FDF704FD2069F6B24C21C0
S2140153004E43801970BD00007C7F0020B06F0020E6
S214015310FEB58848408D029088214900884222D1F6
S214015320F7BD20784008022813D10098FFF7C9FF7F
S214015330040065786068002804D17F487A490880AF
S214015340FDF7DFFC787B002803D129006068FFF7B2
S21401535079FE3A000832A32100980068FFF70CFC9A
S214015360380001F017FD7548FEF7E6F9070000D191
S214015370D6E0B7488468381BE821FDF776F9B44AC9
S2140153801278C1B2914205D36D4867490880FDF78E
S214015390ACFCF7BDC0B2E821484320180090044693
S2140153A0D8340298C221C9008842BAD00298A021F6
S2140153B0C9008842B5D0A74D02262078400806D0FD
S2140153C0022800D18EE008D303284AD0A2E00022AA
S2140153D0797B009800F070FAC5E760780007000F47
S2140153E00128C0D1009800680190387B00F046FD86
S2140153F001216A7863781B09D21A91404843797B68
S2140154000A0018D0CE290AD0F02908D0D02906D013
S214015410D12910D1019A3423D25CD2090BD03A009B
S21401542008320198FFF7A8FB380001F0B3FC012011
S21401543002F068FCF7BD00994860FDF719FD009978
S2140154404968C005C00D0818009948606078F021C9
S21401545001400E43667000984268002100F078FD16
S21401546081E760780007000F0128F9D17A4801909A
S214015470407A0199097B491E884218D0002000E035
S214015480401C2721695C884211DA01218140019A7A
S214015490D27A0A42F4D08A430199CA720199897A6A
S2140154A00818019948726D48FEF707FA5BE7387BE2
S2140154B000F0E4FC01216A7863781B09D21A914056
S2140154C048430400FDF7D4FCC005C00D221801981E
S2140154D0006842600100D9310B78F0241C40264355
S2140154E00E70BAE70098FFF7ECFE04006578606876
S2140154F0002804D15A480C490880FDF702FC29000F
S2140155006068FFF79FFD380001F044FC012002F0BF
S214015510F9FB28E7534804490880FDF7F2FB22E728
S214015520F7BD0000647B0020CC7E002047440000CD
S21401553048440000707B00204A440000247C002080
S2140155404944000080B5143801004748FEF7D6F8F4
S214015550012002F0D7FB01BDF0B585B043480068D5
S214015560009001263CE0684680884149884207D081
S214015570386900780540012D02D0787F002824D0B4
S21401558038690078800930420CD03148C0783049FB
S214015590097941182E4A1278914216DA2C4949782F
S2140155A0884212D202A8801CBF490A8802804A8813
S2140155B04280AF206946087202A803C80A000100AB
S2140155C02000FFF71FFE002802D02000FFF73DFA5B
S2140155D0387D69460870787D48703B20FDF7F9FBF9
S2140155E02148FEF7A9F804002FD0B048408D69463F
S2140155F0888027001837032538680028B3D1386912
S214015600027803211140012900D000219306DA0F08
S214015610002902D08078052806D1002AA3D02000D0
S214015620FFF7DEFD00289ED13889F9F75EFA0028DB
S21401563099D120000A3002210170398941809C48A5
S2140156403860201DF9F774F9CAE705B0F0BD00000F
S214015650B06F0020702500203471002020710020DA
S2140156604D4400004E440000207C00205C130300E3
S2140156703F040000F3B585B000260846A830029026
S2140156808C4802998860069CC834022020700598D0
S2140156901E3001900088029988830598303000906A
S2140156A0407AA070E67000980079C0090121414057
S2140156B0217101206071A071009800798009C007EE
S2140156C006D401980088BD4988428041C00F00E099
S2140156D00120E0710098407920720098C0880299F4
S2140156E0C8830098007A6072B54F0598FFF7A6F850
S2140156F0002834D03879039079793A7A521E91424B
S21401570005D1019A128A4843101AC0B20390039D2C
S2140157104235059800F0E2FB002803D03A263E2DDC
S21401572008D302E02C26302D04D3A648A6490880CB
S214015730FDF7E7FA039A0098006839797B795943AF
S214015740411838688019FEF73FF803980A306070F0
S214015750386880190A3802990860039E08E00198A3
S214015760008A08306070009800680838029908605E
S214015770029805682978EC2008402870F321019AE0
S21401578012888E4B9A4202D2014029700AE00140EB
S214015790082008432870A6494888401C48804420B1
S2140157A0FDF717FB2978DF20084028700099097952
S2140157B08908C90703D4BF210140297019E0402197
S2140157C001432970607CF021014001200843607488
S2140157D00598FFF733F80028607C03D00007000F18
S2140157E0B97A03E00007000FAF4949780901014380
S2140157F061740598FFF722F80028287813D08021D5
S21401580001432970297AFC2008407979002904D1BE
S214015810012101432972387A03E0022101432972EA
S2140158207879687202E04006400E28700198007A86
S214015830687001988089A870000AE870019840890C
S2140158402871000A68710198807BA8710598FEF797
S214015850F5FF002801D0787A01E0FEF7EBFDE8714C
S21401586000984079002802D00098007AE8710698DE
S214015870006800F033FB002806980FD00068FEF79A
S214015880DDFF0028607801D0811B02E00199098ABA
S214015890411AC9B2069801F01CFE02E01830FFF763
S2140158A052FA002007B0F0BD70130300707B002091
S2140158B045550100374A0100F2B50400160020687C
S2140158C00500002C01D0002804D178483E49088004
S2140158D0FDF717FA30003BD168460078CE280AD08B
S2140158E0F02808D0D02806D0D12806D128001830B4
S2140158F0007FC00901D0032621E00226280000F01F
S214015900EDFA00281BD0012728001830007F400937
S214015910384214D1F7F7FCFB002805D028001830D0
S214015920007F400838420AD12800FEF787FF00288A
S21401593005D1280018300079012800D00126BC20A6
S2140159402058290040314860684600784021685454
S214015950012E04D022D3032E13D007D3F1BD21008C
S2140159600C31A048FDF7CAFE022015E02068007F32
S214015970002806D1A86121002800FEF7BAF8A82859
S2140159800CD12A0044324020295C2068FFF7F4F845
S214015990200001F0FFF9012002F0B4F9F1BD80B555
S2140159A0010014380978002902D101008E48CDE59E
S2140159B00022A921FFF7E0F801BD0000F8FF000072
S2140159C03871002051440000CC7E0020F8B5874D88
S2140159D0A9680024143807002A7800E0641CE0B2A5
S2140159E090421AD2E4B2E82060430E18D820305C08
S2140159F0C007F3D53068B842F0D131003800FEF761
S214015A0078F8010009D000223800FFF7B5F8300019
S214015A1001F0C0F9012002F075F92878E4B2844259
S214015A2004D3734873490880FDF76BF9F1BD000094
S214015A307C7F002030B583B004000025A0690028D3
S214015A4030D1082221001E316846FDF7BDFE207FB9
S214015A5003280DD16846F9F702F8002808D1012578
S214015A60082221001E3120000C30FDF7ADFE12E0A9
S214015A70207F022816D1200000F030FA002811D02D
S214015A80E08BA54988420DD2F9F72FF8002809D1F5
S214015A900125E08BA081207FA072B748A061201D60
S214015AA0F8F746FF28003EBD702500204F44000051
S214015AB0F0B583B099480078800711D408E0290032
S214015AC04948FDF740FE0022A3212800FFF754F8BD
S214015AD0AA48C569002DF2D1F7BD4348FDF72CFE53
S214015AE0A648C569002D17D0002400272800FFF717
S214015AF0A1FF0028F1D1A248006800280DD0280097
S214015B00FEF79CFE002808D02800FEF797FE002826
S214015B1003D02D68002DF7D1F7BD2800FEF7B8FF9A
S214015B20060018D1287F002805D0022848D036D391
S214015B30032836D054E0934F2800FEF77FFE002856
S214015B4044D13420285C8008C00726D5012001F006
S214015B509BF80400E0D029002348FDF7F4FD30004F
S214015B6013D1380004D1884822490880FDF7C9F8C6
S214015B7025602800FEF762FE002802D02000FEF70E
S214015B8097FC21002800B84706003000A8D0002264
S214015B9031002800FEF7F0FFA2E70020D7E7BE4F4E
S214015BA0FBE7082229001E316846FDF70DFE684610
S214015BB0F8F755FF00280BD00088E88302202877E5
S214015BC0B64F2800FEF73AFE002803D00320BEE7B2
S214015BD0A926C0E73420285C8008C007B6D4DCE7D5
S214015BE0A626B8E7687B00201C7C0020B06F00204A
S214015BF015440000CC7E0020F8B5A948408DA94D7B
S214015C000024A021C900884203D0C221C9008842CD
S214015C1022D1287884427DDAE8266643A86880196E
S214015C200100D8310A78D30713D55208012A10D1BA
S214015C3049780907090F042901D0022909D1002250
S214015C40A3210068FEF798FFA8688019B43001F018
S214015C50A1F8641CE4B2DCE7BC4988425AD1C220F0
S214015C6040002818009005E0A7213800FFF724FE21
S214015C70641CE4B2287884424CDAA868E8216143BF
S214015C8047183800D8300278D107F1D541780B078C
S214015C901B0F042BECD15208012A01D0032AE7D1AD
S214015CA00A09E1D03E000836F0220A4001211143DC
S214015CB04170103941700078400801280AD130003F
S214015CC01030FFF740F8361F32680021380000F028
S214015CD03FF915E0032813D10098C07AFE21014050
S214015CE00098C1720098807A009948720098807B6B
S214015CF0401E00998873009801680868FFF7BAFC8F
S214015D006748008D401C66490885C2494320FDF757
S214015D1060F8ADE7F1BD0000F8FF00009A7B0020B7
S214015D2038B5FFF7F5FAFFF717FCFFF7C1FEFFF7E7
S214015D3063FF5B4D688DA021C90088421AD10F48C8
S214015D404078002816D1AC6B2079C52804D0B2481B
S214015D500E490880FCF7D5FF2189C14808402081FB
S214015D6008D1FEF783FDC220C0006885002120000F
S214015D7001F0A0FE31BD00009F590100007C00200B
S214015D8034710020BF3A010050440000CC7E002050
S214015D90F0B587B0B3480478FF26083603A9C91CB6
S214015DA03000FDF7E8F804A93320FDF7E4F804987D
S214015DB0844205D34000049004A93320FDF702F97C
S214015DC02B34AD4FBC626846C07B4443600000196B
S214015DD004994018F86200240025012069460873DA
S214015DE003A9491C3000FDF7C6F803A92720FDF7D3
S214015DF0C2F86846407B4000FF2803D26846407BD5
S214015E00400000E0FF20C0B200F038F86946097B88
S214015E1000296B4630D099494218AD1840006A46B1
S214015E20127B521E1A736A46127B002AF3D129404E
S214015E30080000D00120690AC0B20D18FF2D00D35A
S214015E40FF2505946846847303A9891CFF20123038
S214015E50FDF791F805A982208000FDF775F80294F8
S214015E6001200190EDB2009543026846827B0599B8
S214015E703800303007F0B0FC07B0F0BD10B582B086
S214015E80040069463320FDF776F87B48806A604354
S214015E900099401816BD0000DD610100755601002D
S214015EA0707B0020B06F002010B5040018000BD1E5
S214015EB02000C9300270A822A150012101712000E2
S214015EC01830FEF740FF10BD002219002068FEF7CB
S214015ED053FE200000F05EFFFEF7A9FD10B582B06C
S214015EE0040069462820FDF746F868460078002831
S214015EF003D03420215CC807C00F16BDF0B585B0AD
S214015F0083685A789C782406240C224302AB7C4C86
S214015F10E0CCE0C36B4603937A4CA14204D18023C4
S214015F201B029A4204DA01E08A4201D101200AE00A
S214015F3000906846818002A91E20FCF74AFF04985B
S214015F40401E8041C00F05B0F0BD00003F040000B8
S214015F50F7B582B00025ED43FDF77BFB0090464C7C
S214015F602079002802D19A4B049A4AE000200022A8
S214015F7005E0586059688D4200D30D00521C9549C2
S214015F8009788A4223DA93498968E8235343CB1870
S214015F901E00D8363178CF07F0D576783607360F1B
S214015FA0022EEBD14908012901D00329E6D15E680A
S214015FB0002EE3D002998B42E0D0E168009F7F1A61
S214015FC0B742D6D2009FF61B71185960D2E76946D0
S214015FD0097B00290FD1804A1368002B0BD0E1689A
S214015FE0009E761A9E4202D20098181A4018106037
S214015FF0854200D305000498854200D90500744BFC
S2140160002A000121201DFDF731FA201DFDF73BFA7C
S21401601005B0F0BD987B00206D44000038B5040043
S2140160201CD0A6202074A068002817D00078F2287B
S21401603003D0020012D0F12810DA00F021F800286F
S2140160400CD10025E068002801D1012000E00020E5
S21401605020712100B148FDF751FB257431BD0000C8
S214016060FDFF0000EA240020002802D1AF48006BA3
S2140160707047006870470000007C0020FF010000A8
S21401608010B504000020FFF7EFFF002803D0826858
S21401609012789442F7D110BDF8B504000025A44F3C
S2140160A0002C06D1A3483880FCF72BFE01E0200027
S2140160B088472800FFF7D8FF05001FD02879002859
S2140160C0F7D1A868002803D19B483880FCF719FE51
S2140160D0A18B2800FFF712FF0028EAD0A8680678EF
S2140160E03100E088F1F7AAFE0028E2D0A673E9683D
S2140160F00800DCD191483880FCF7F7FDF1BD0000BF
S214016100B8130300FFFF000070B58EB00C00050049
S2140161102035AE68317A288800F0EAFE002837D1AB
S2140161202879092834D36846012101717178B2783B
S2140161301206120C1143C1800221C1732988018203
S21401614069880183F17981767179B2791206120C28
S21401615011438183F17832791206120C1143C183FF
S214016160297909390184A968093141620021282267
S214016170815429214454297D2A228154297B2B22AA
S21401618081542969C162697B30228154FFF784FFFB
S21401619001200EB070BD38B5040025000C3D2968FD
S2140161A048788A781206120C1043FF21F1F746FE52
S2140161B0002808D06248A8600020E0769C3C2000B9
S2140161C0F3F78DFE31BD2000FEF735FC31BD000032
S2140161D055490100B06F002004710020F0B583B06E
S2140161E0050008001830009001A91320FCF7C3FE33
S2140161F02C00303428001E30012569460979002913
S214016200009F2DD03900B0310D703A0090320388CE
S2140162109383038A08334B702368083B13606379C2
S2140162200B72E388D383237A4B721668FF21717051
S2140162308189B170090AF17041893171090A717158
S214016240807BB0716079002801D0207A01E0FEF7EA
S214016250F1F8F0710221380000F062F838482FE0BA
S2140162603900B03102220A703A009032354B9383DE
S214016270038A09334B702368093B136063790B72F9
S214016280E388D383237A4B72166801887170090AF2
S214016290B1708189F170090A317141897171090AF8
S2140162A0B171807BF0716079002801D0207A01E01D
S2140162B0FEF7C0F830720321380000F031F82248AA
S2140162C0009998228850607A0099B22288543B48F7
S2140162D000780099B32288542079C00901214140F1
S2140162E00098B42281540099B5228D540099B622A3
S2140162F08D540098B721455460790099B822885486
S214016300E0880099AE228852207A0099B9228854F2
S2140163100098FEF718FD0020FEBD0000A07B0020BF
S2140163208907090F9022805801707047707B002002
S214016330CC7E00203044000031440000324400008E
S214016340374A0100FDFF00009761010010B58CB0CF
S214016350030005D1AE4842490880FCF7C6FC2BE095
S2140163601878032828D16A46588810801800083003
S21401637003C86C46083403C4187C1074588A5082CB
S2140163801800183003C86C46183403C418002830A7
S21401639001782C24115580782D2150545A6A2020DA
S2140163A0195C684600F00CF8002805D09948016889
S2140163B0080001D0684688470CB010BD7025002043
S2140163C0F7B506000F00144607250095072F2EDBAC
S2140163D02078E3210140032929D16078002826D1BD
S2140163E001A91B20FCF7C7FD2078800805406846F8
S2140163F0007985421BD1A078F3210140032916D1EB
S214016400350010350007800F032812D101202870AF
S21401641009200090092F0ADBE07821790906090C8A
S21401642008432881FF21F1F709FD002803D1002048
S214016430FEBD029CA41E6079A1790906090C0843D9
S2140164406882E079217A0906090C084328820098B7
S214016450381A2875029800994018A8610120FEBDD7
S214016460CC7E002080B50D230D220021002000F0F7
S2140164700AF8009002BD81B06A46108068468170B5
S214016480009801B07047F5B581B0DCB28DB2B84F57
S21401649000E06D1C7888854216DA786830216943F9
S2140164A04018867A6946097A3140A142F1D10199AC
S2140164B0002906D00CC8084603C88B42E9D182429F
S2140164C0E7D1310028B202E000210320C043FFF7E4
S2140164D0D2FF0090FEBDD0B582B0A549496800291B
S2140164E001D1052003E0002805D100210420C04386
S2140164F0FFF7C1FF25E00324E4430CC8083805264E
S214016500F6430027FF43BB420CD801D3B24209D25F
S214016510012301220021FFF7B6FF0090009800B288
S214016520A04206D1FFF79EFF0090009800B2A0425D
S21401653001D00098D6BD0523052200210020FFF7D3
S214016540A2FF0090D6BD1CB50C0000D142E000F0C1
S214016550E3F90090009800B200280AD4009800F0F1
S2140165600AF810222100FDF72FF969461520FCF7DD
S21401657030FC009816BD01B47D48416800290ED054
S214016580009A12B2002A0AD4009B1BB29BB2408822
S214016590834204DA3020424388180B3000E00020A2
S2140165A001B070471CB50C0000D113E000F0B4F93F
S2140165B00090009800B200280AD4009800F011F864
S2140165C010222100FDF700F969461520FCF701FCB1
S2140165D0009816BD00210420C043FFF74CFF019030
S2140165E016BD01B46248416800290ED0009A12B265
S2140165F0002A0AD4009B1BB29BB24088834204DA6D
S2140166003020424388181B3000E0002001B070475C
S21401661045450000807F002080B503E080B5FFF788
S214016620AAFF02BDFFF78FFF009002BD80B5FFF7FE
S214016630A2FF02BD10B582B000F06EF9009000987E
S21401664000B2002819D40098FFF7F0FF0400009864
S214016650FFF7C7FF10222100FDF7B6F8444840684F
S214016660009909B230224A438018817ADF220A4013
S214016670827269461520FCF7ACFB13BD10B582B0DB
S21401668000F04AF90090009800B200280ED4009855
S214016690FFF7A7FF04000098FFF7C8FF10222100AC
S2140166A0FDF792F869461520FCF793FB13BDF8B584
S2140166B007000E00002500242D484068002801D060
S2140166C0002F10D10020F2BD2949496830225043DD
S2140166D0081800218172009C24B2641C01256946B9
S2140166E01520FCF776FB01230122A1B23800FFF743
S2140166F0CAFE0090009800B20321C9438842E3D144
S214016700354203D039000920FCF763FB2800F2BDAF
S214016710000001B582B016484068002802D1002169
S21401672005201DE0029800B2002803D4029909B2A0
S214016730491C00E0002102A88078400701D5052306
S21401674000E001231A4689B20020FFF79CFE019063
S214016750019800B20321C943884206D100210120D5
S214016760C043FFF788FE00900EBD01980EBD0000E5
S2140167705C1F002010B582B00C00FFF7ACFE009045
S21401678068468178490715D40021405E002811D457
S21401679060494968302250430818817A002C02D09B
S2140167A002220A4301E0FD220A4082726946152050
S2140167B0FCF70FFB13BD31B582B0029800B200287A
S2140167C025D4544C6568302148432818807A400700
S2140167D01DD5FFF747FE0090009800B20321C9437C
S2140167E0884206D0302148432818817AF7220A4089
S2140167F082726068029909B230224A438018817A0F
S21401680008220A43827202A91520FCF7E2FA37BD74
S2140168101CB5040000D1DDE61D231D220021002049
S214016820FFF731FE0090009800B200280FD43949D6
S2140168304968302250430A1803CC03C2083A907ABA
S214016840F3210140917269461520FCF7C2FA0098BF
S21401685016BD80B5FFF73FFE0090009800B20028F5
S21401686008D42C494968302250430818807A810799
S214016870C80F02BD002002BD10B5264CA11C9220F7
S2140168804000FCF778FB608880210902884204DB1F
S2140168908B488C490880FCF734FA211D8A48FCF79E
S2140168A053FB21000831A348FCF74EFB60883021DA
S2140168B041436068FCF7D8FD6088C100A068FCF71A
S2140168C0D3FD10BD10B5002000216F4A06E05368C5
S2140168D089B230244C431B191881491C54888BB249
S2140168E0A342F4D310BD01B46748416800290DD016
S2140168F0009A12B2002A09D4009B1BB29BB24088B0
S214016900834203DA30204243881800E0002001B0B9
S214016910704700005C1F0020F0B583B006005A4C9B
S2140169206068002802D0A068002804D18248654922
S2140169300880FCF7E6F903CE083EAEA20CCA9942DF
S21401694004D301D8904201D305250FE02078012514
S21401695005430123012200213000FFF794FD00903A
S214016960009800B20321C943884206D100230122C0
S21401697000210020FFF787FD0090009F3FB2032013
S214016980C043874206D100210220C043FFF773FDB2
S2140169900190FEBD0821A068FA008018FCF762FD90
S2140169A0302047436068C21903CE03C2083A957285
S2140169B000206168C91908810098FEBD11B581B033
S2140169C0314CA068002807D0019800B2002803D4F3
S2140169D080B26188884204DBA7483A490880FCF700
S2140169E090F9019800B26946A268C300D25A0A809B
S2140169F06168302250430818008941E013B50198B8
S214016A0000B29E496A4612888B68C4001A534968C8
S214016A1030225043081869464988018113BD11B5D3
S214016A2081B0FFF7CBFF009068464088944C6946DA
S214016A300988002903D069460988A1420DD1401C66
S214016A40694648800120088001990098FFF7D6FF23
S214016A5001A92020FCF7BDF90FE0002804D18948E0
S214016A6018490880FCF74DF9684669460988491CAB
S214016A70018001990098FFF7C1FF68464088001918
S214016A8069464880009816BD5C1F002011B581B08C
S214016A907A4CA068002807D0019800B2002803D4D9
S214016AA080B26188884204DBB64806490880FCF754
S214016AB028F9A068019909B2C9004018406816BDB6
S214016AC027450000CC7E00201E02000001B500987C
S214016AD000B2002804D480B268494988884204DBA1
S214016AE0A948AA490880FCF70CF96846807841074E
S214016AF0C80F02BD00B589B0012301220021002084
S214016B00FFF7C1FC0290029800B20321C9438842F4
S214016B100DD10020C04301466A4603C204A89C4921
S214016B201022FCF765FE04A96846FFF73BFD09B095
S214016B3000BD00001F0200002245000000B589B01C
S214016B400123012200210020FFF79DFC02900298FC
S214016B5000B20321C94388420CD10020C04301463C
S214016B606A4603C204A92C20FCF705FA04A9684664
S214016B70FFF718FD09B000BD10B586B0FFF7ABFCF6
S214016B800090009800B2002832D40098FFF74EFD1E
S214016B900100102201A8FCF717FE0098FFF721FD5F
S214016BA004000098FFF742FD10222100FCF70CFEBE
S214016BB00098FFF716FD102201A9FCF705FE2F48E5
S214016BC04168009A12B230235343C9188A7AF323D4
S214016BD013408B724068009909B230224A438018EC
S214016BE0817A22220A43827269461520FCF7F1F85F
S214016BF006B010BDFAFFFFFFFFFFFFFF01B46846B6
S214016C0080788106C80F01B07047D0B582B0040005
S214016C101A484068002803D100210520C04317E028
S214016C200422D243002C11D003CC083C0526F6439F
S214016C300027FF43B94209D801D3B04206D2012347
S214016C40012200212000FFF71EFC03E000211000B6
S214016C50FFF711FC0090D6BD01B4009800B20028E1
S214016C6007D4064A5268302358431018827A1143D3
S214016C70817201B070470000204500005C1F0020B3
S214016C80FFFF000028450000F1B582B000216A46EA
S214016C9011710025B34A012300E06D1C107885426E
S214016CA05CDAE820684300909068009C00190400B4
S214016CB0D83427781F42F0D1A82541516D462D7A48
S214016CC0002D04D0022D2CD001D3032D4ED11579E1
S214016CD09778BD4242D26D1C1571416060780007FD
S214016CE0000F60709468009D6419E02561559068F6
S214016CF0009C0019D8304478F0252540457004786A
S214016D000125254305709068009A80180200D83244
S214016D10147823406C46247A64001C431470016086
S214016D20FEBDD5785678B54218D2002500E06D1C18
S214016D30167BB5420FDA16694C276F43F61937787A
S214016D40002FF4D1D7787F1CD770337037003837CF
S214016D50A82687512372107BA842C8D168460371C2
S214016D6001A94620FCF735F80020FEBD68460371F0
S214016D7001A94620FCF72DF89F48B2490880FBF789
S214016D80C0FFF1E72145000026450000CC7E00202B
S214016D9060130300F8B5734DAC68AA4EA04201D249
S214016DA0A94832E0001BE821FBF75FFCC0B2297856
S214016DB0884201DBA54828E0E82148432418D8206A
S214016DC0205C400804D0022808D001D3032826D12D
S214016DD02879010023D0401E287120E0E8780100C0
S214016DE001D0401EE8702F69A8202058C01B4C21F6
S214016DF0FBF73BFCC0B2A8216158B94201D2AD48AD
S214016E0003E06978884202DBBD4801F061FB4C2152
S214016E10484338180178002901D000210170D82094
S214016E20205CFE210140D8202154F1BD70B54D4CA7
S214016E3021000C3188204000FCF79DF8210010311C
S214016E40B048FCF781F80025002004E022694C23B5
S214016E504343D554401C217B8842F7DB2100FF20A9
S214016E601030FCF788F821000831A748FCF76CF8C9
S214016E7000200AE0A168E82242438918D8310A783E
S214016E80FE2313400B70401CC0B221788842F1DB10
S214016E90207B6070A170E5702571C6204000211826
S214016EA06438FCF768F8B020400021183738FCF742
S214016EB062F8FF20603021184738FCF75CF8AF20F5
S214016EC040002618707800280AD021001831A04802
S214016ED0FCF73AF8C420400021188830FCF734F853
S214016EE0A0697178B27851434018E061357070BD81
S214016EF080B50A000100B84806F096FC401E8041A5
S214016F00C00F02BD10B5040002D18B2001F022FA99
S214016F10FCF7D9FF20005D300721017021006431A4
S214016F20220070320A600B22C270AC484860AC483E
S214016F3000F089FE38B50400606990214558002CA0
S214016F4001D0002D04D1A7483E490880FBF7D9FEA1
S214016F5007212800FDF7B6F9EA1CA06FE16FFCF7E0
S214016F6023FC31BDB06F002070B504000D00260073
S214016F707836002C02D0F068002804D1B048B94910
S214016F800880FBF7BEFE28000CD103CE083EF3F7BF
S214016F9021F9002803D000220021F2F750FA300030
S214016FA0EFF706FB357220008030F168884770BD28
S214016FB01FB5040005D06068002802D020680028AC
S214016FC004D1A948A7490880FBF79BFE60682430D6
S214016FD001780B290DD1406821686A4618C918C284
S214016FE0C01CFCF7CBFB6A46083203C26846FAF7B8
S214016FF09FFA012004B010BD8144000010B50400C2
S21401700002D19A4801F0A7F9201DFCF75CFF210088
S214017010613108200870200068302200803202604A
S2140170208822A25C022A01D0042A01D10C2200E0A7
S2140170300422CA708E4941608E498160201D00F08D
S21401704004FE0000CC7E0020824400008344000041
S21401705070B50400606990214558002C01D0002DC0
S21401706004D185487F490880FBF74BFE082128009C
S214017070FDF728F926007036307DE870307D02284D
S21401708005D1082221008C31281DFCF79DFB052027
S2140170903060002030717071784D686B002802D125
S2140170A02800FCF70AFC211F28003430FCF726FBD9
S2140170B070BD00008444000070B5052402007032E3
S2140170C001235371061F1079002801D000240FE018
S2140170D01068002811D10424684D3100280034308E
S2140170E0FCF731FB686B002802D12800FCF702FC94
S2140170F02100300000F0A6F870BD0029ECD170BD6B
S214017100854400000E0200000D02000038B55B4CFD
S214017110656B0CE04079002808D029002000343047
S214017120FCF711FB0421280000F08CF82D68002DD7
S21401713007D02800743001680029EBD0491E016091
S214017140F4E7606B002802D02000FCF7B6FB31BDE7
S2140171500F020000F8B50600484F7C6B1AE0B07AC3
S214017160042816D103CE083E2A0018320CCA8B42D8
S2140171700FD182420DD10120287021003800343011
S214017180FCF7E1FA6878002803D00021200000F01F
S21401719059F82468002C18D025007835287C012859
S2140171A004D0022808D00428D9D0F2E7B07A012802
S2140171B0D8D00528EDD1D5E7B07A022801D003282A
S2140171C0E7D13000183003C8CEE7786B002802D12B
S2140171D03800FCF78FFBF1BD307C0020356F0100D5
S2140171E0696F01008145000070B586B004006068D3
S2140171F02421455C002C04D0002802D020680028F9
S21401720004D1B94817490880FBF77BFD6068816A9D
S2140172106846CA78027222686B4650CA50C3027A20
S214017220022A06D10C2D07D10822091D1030FCF7C1
S214017230CBFA684606F04CFB012006B070BD000094
S2140172408245000010B5040098342170606800285B
S21401725004D1A64803490880FBF753FD2000616866
S214017260884710BDCC7E002083450000F045000015
S21401727051700100B9700100F1450000707B0020DB
S214017280FEB59B4C20003C3002900078002823D1AC
S2140172902500183501260298806800281DD0200098
S2140172A04430FCF749FA0700029806702F6238004E
S2140172B02430002101918F490091230008333A8C34
S2140172C00178406800F0F0F9012805D00020029905
S2140172D008703800FDF7B9FBF7BD0298C0680028B2
S2140172E015D020004830FCF727FA0C38286202999E
S2140172F00E700500A83501967F49009123000833DA
S214017300AA8BC921415C286800F0CEF9F7BD029826
S2140173100069002863D020004C30FCF70DFA070006
S2140173200C3F3800A830808BF7F7DFFB01900299FD
S2140173300E702F62F5F7E9FE68743800C930417C9B
S214017340E973A8217958296002782A74C07D00283B
S21401735010D138683421405C40080640300000D027
S2140173600120A8733800103000903868405CC006D1
S214017370C30F20E0A820385837380078AB3809D03A
S214017380401E05D0C01E08D0801E012802D909E083
S214017390AE730CE00020A87309E000233800FEF766
S2140173A083FD04E0B448BD490880FBF7AAFC380019
S2140173B0103000900023BA4A01992000083000F0EE
S2140173C026F801280BD00022029B1A70022800D151
S2140173D0AD2003002A7C29683800FEF765FDF7BD5D
S2140173E070B506000024424D3C202C54022000F0CB
S2140173F089FC3078002801D1002300E00223280010
S2140174001830027C0168006AFEF74EFD70BDFFB5BC
S21401741081B00225F5F779FE002858D0019E08367E
S2140174200127B07D01281AD0029800284ED0FFF718
S21401743052F80090009800B2002847D40098FFF751
S214017440D0F830600098FFF7EAFA30610A98002811
S21401745018D069460A8802804A88428012E0F5F709
S214017460ACFE002832D0B775F5F7BAFE306003F0EF
S21401747075FB002800D13060F5F7D7FE3061F5F7CF
S214017480A4FE70750125B07D012805D1F5F740FEF3
S214017490002801D0002519E030690021C94388423F
S2140174A013D03068002810D0B068017820220A4333
S2140174B002706846007CB076FBF7E9FB70600398C3
S2140174C0F060019801F088FF00E00225280006B070
S2140174D0E0BD80B5DA22815401000C317148FCF719
S2140174E00DF90220FEF735F8F4450000F5450000D9
S2140174F0207B0020537501007D76010070B50100E8
S2140175000A7803240325154008202E000CD195087F
S21401751003262E40032E13D0D20918D0097A214211
S21401752000D00920401C12E0012D0DD0022D0DD1F6
S2140175301509ED0708D4D20909D0087A204201D1ED
S214017540092004E00B2002E0022000E00020C0B287
S21401755070BDFEB50500C64C2000383000900020F6
S21401756000990871022000F0CDFB0098807A042172
S21401757008402F00183F297801260A0060D1B97CFF
S214017580002906D0002856D0009806710020B8744D
S2140175906CE0F868009909688862787C0099096847
S2140175A024228854BE6803CE083E0325002901D153
S2140175B0002819D00522D2430023DB43994213D871
S2140175C001D3904210D23000FBF763FB00280BD1A9
S2140175D0F8680078284001280BD0B8680CC80098D5
S2140175E00068008CEFF748F8F86801780D40012D27
S2140175F00ED101A821003E310622FCF7E5F801A8CC
S21401760003C80A00010000980068FDF77BFC10E043
S214017610DF220A40027001A821003E310622FCF753
S214017620D3F801A803C80A00010000980068FDF716
S2140176301DFE002803D000980068FDF706FAF7BD86
S2140176400429F8D1B97C0029F5D00028F3D0206CA4
S214017650FFF75FF8206400980821405E0028EAD40E
S214017660206CFEF7BEFF386000980671203D2800AA
S21401767001F0BAFEF7BD00000245000000780028C0
S21401768000D0704710B5974C2071022000F03AFBED
S214017690022200212068FEF70FF910BDCC7E0020E3
S2140176A0E17301006C7B0020F6B58BB01C00002155
S2140176B0C94301918C490A68009200266C4D0968FD
S2140176C02964AF213E22A95460610490FFF716FF9A
S2140176D004AF3871002834D004A801F08DFE069955
S2140176E0002903D0042201A8FCF754F913A8007856
S2140176F0002813D06846A96B10310A8802804A8890
S2140177004280009800B2002804D5A948A9490880FB
S214017710FBF7F7FA0098FFF7E6F80DE0787C00280B
S21401772006D00798FCF72AF803C5083D256104E052
S2140177306846008EF7F7D9F9206101980021C94300
S214017740884253D02069002806D10320C043002177
S214017750C94303C5083D2561387C012812D1F5F7D8
S2140177602CFD002842D0F5F73BFDA060AC203E2161
S2140177706854A06800283BD18F488E490880FBF7E3
S214017780B4FA33E00822216902A8FCF703F913A82A
S2140177900078002803D102A8FEF79DFE009000980D
S2140177A000B2002822D485480CC802A803C88B4220
S2140177B003D1824201D1B12000E0AB203E216854C2
S2140177C00098FEF70EFFA06068468078410707D54F
S2140177D013A909780029CCD10007CAD40126C8E725
S2140177E00098FFF753F901998142C2D2022017E0AF
S2140177F000982864F5F789FC2073387920760BA861
S21401780000786076A6761298E06113A800780028C2
S21401781002D0FBF73CFA2061200001F0E5FD0120D3
S2140178200DB0F0BD38B5B24C88204000608500250B
S214017830A56300F09FFA2563FFF7F8FAFFF71CF837
S214017840F3F745FC31BD38B50500994C21002520DC
S214017850FBF766FA21003820FBF762FA002D01D10A
S214017860A44807E019202871280000F01EF831BD51
S214017870207B00204F490880FBF737FA31BD80B5E1
S214017880002801D19C4801E08A210AE0BA49088013
S214017890FBF72BFA01BD80B5002801D19748F5E723
S2140178A0C521017100F001F801BD70B50600904CCC
S2140178B0A06B002801D1012500E00025608D8821FC
S2140178C04900884202D38E49884204D38D48AA498A
S2140178D00880FBF716FA310020003830FBF70EFF60
S2140178E0002D00E1587B002070130300F8B5804D91
S2140178F0AC6B304F002C03D1A0483880FBF701FA5F
S214017900688D9F4900262279192A04D08A2A13D025
S214017910C52A33D047E088214900884202D1802019
S214017920800001E0E020C00068859648E060200005
S2140179300830F3F7ACFBF1BD934A904206D0C22261
S214017940D200904202D0A320207303E06985FEF79F
S2140179501FFA267328003830FBF7EEFEA0680028D1
S21401796003D1A3483880FBF7CCF920000C30A1687E
S2140179708847A86B00281AD000200CE088420DD159
S214017980A020C0006885022020819A4C201DFBF7AC
S21401799085FD6670012000F0B5F9F1BDA321200038
S2140179A000F088F8F1BDB5483880FBF7AAF9F1BDBB
S2140179B004450000CC7E0020054500007825002007
S2140179C0F8B5040009D04A4D1038A96B884204D195
S2140179D020000C380078192804D0874866490880AA
S2140179E000F077FD688DE021C900884202D1FCF7DE
S2140179F05BFF08E080218900884204D0A0485E49E8
S214017A000880FBF77EF900F0B5F90120FCF72EFFA0
S214017A10FFF70CFA0026EE62EE636E632800FBF7B2
S214017A2069FF8020C000A860A04828610120287353
S214017A302E6428001430FBF75DFFFA208000E86111
S214017A409B4868620120202168546E64994F380073
S214017A50FBF750FF8020C000B860974838610120CE
S214017A603873A74806708660C660066106F0E6F8B9
S214017A70FCF70CF9FEF726FF43486885261D20789B
S214017A80307128003830FBF757FE3068002804D1E3
S214017A90A24839490880FBF734F9200008303168DC
S214017AA08847A86B002802D0002000F02BF9F1BD12
S214017AB0681F002070B505000C00002D02D0E86894
S214017AC0002804D196482C490880FBF71AF9084E7D
S214017AD030003830FBF730FE2C7428001030E9688F
S214017AE08847B06B002802D0002000F00BF970BD6B
S214017AF0707B002060440000614400006244000086
S214017B00010700006344000070B50025AB4C00E09F
S214017B106D1C217B8D4206DA21694C226A43895C01
S214017B200029F5D026E00025012601E06D1CEDB206
S214017B302078854219DA01F0FFFF0028A0680BD0F3
S214017B40E82169434018D83001783142EED04078B8
S214017B500007000F022805E0E82169434018D821F4
S214017B60405C3042E2D0012070BDAF204000205C76
S214017B70002800D0012070BDCC7E002064440000A7
S214017B803F040000C17901003203000038B50091BE
S214017B90252809D1FFF7B8FF00990978012242404C
S214017BA00A400098027031BD382820D100200022FA
S214017BB0824900E0521C0B789A4213DA8B68E8245B
S214017BC054431D19D8352C7801231C42F2D06D7808
S214017BD02D072D0F022DEDD16408012C01D0032CA9
S214017BE0E8D101200099097808430099087031BD51
S214017BF06A440000007C00206644000038B504009A
S214017C00012520780009284201D0FCF73FF82078AA
S214017C10C008284201D0FEF755FE31BD10B504005C
S214017C2001D17B4897E3FCF74EF920005D3009212E
S214017C30017021006431220070320A600422C27091
S214017C4074484860744888602000FCF749F910BD04
S214017C5038B50400606990214558002C01D0002DEC
S214017C6004D16E48B4490880FBF74BF80921280077
S214017C70FCF728FB7820205CE87031BD65440000E5
S214017C806744000038B505000C00002D02D0E86FEF
S214017C90002804D1A948A8490880FBF732F87920C2
S214017CA02C5428007930E96F884731BD0D710100E9
S214017CB0358901003C7E0020F18B01001FB50400D0
S214017CC005D06068002802D02068002804D19C48AE
S214017CD099490880FBF715F8606824300178042973
S214017CE00AD1406821686A4618C918C2C078694630
S214017CF008726846F9F7F8FB012004B010BD0000D1
S214017D005C7B002080B5B3490A7801238340134386
S214017D100B702020FBF74AFE01BD000069440000FD
S214017D206B44000038B5AB4C607821786278521C01
S214017D30D2B2082A00DB00226270627801239340E7
S214017D4019420ED04B402370A34891004558280095
S214017D5005D18820C001B9490880FAF7D2FFA847A3
S214017D6001E09042E2D12078002802D02020FBF7E3
